{
	"contracts/store_cids.sol": {
		"StoreCIDs": {
			"abi": [
				{
					"anonymous": false,
					"inputs": [
						{
							"indexed": true,
							"internalType": "address",
							"name": "receiver",
							"type": "address"
						},
						{
							"indexed": false,
							"internalType": "string",
							"name": "cid",
							"type": "string"
						}
					],
					"name": "DeleteCID",
					"type": "event"
				},
				{
					"anonymous": false,
					"inputs": [
						{
							"indexed": true,
							"internalType": "address",
							"name": "receiver",
							"type": "address"
						},
						{
							"indexed": false,
							"internalType": "string",
							"name": "cid",
							"type": "string"
						},
						{
							"indexed": false,
							"internalType": "address",
							"name": "sender",
							"type": "address"
						},
						{
							"indexed": false,
							"internalType": "bytes32",
							"name": "digest",
							"type": "bytes32"
						},
						{
							"indexed": false,
							"internalType": "uint256",
							"name": "timestamp",
							"type": "uint256"
						}
					],
					"name": "StoreCID",
					"type": "event"
				},
				{
					"inputs": [
						{
							"internalType": "address",
							"name": "",
							"type": "address"
						},
						{
							"internalType": "uint256",
							"name": "",
							"type": "uint256"
						}
					],
					"name": "cids",
					"outputs": [
						{
							"internalType": "string",
							"name": "cid",
							"type": "string"
						},
						{
							"internalType": "address",
							"name": "sender",
							"type": "address"
						},
						{
							"internalType": "uint256",
							"name": "timestamp",
							"type": "uint256"
						},
						{
							"internalType": "bytes32",
							"name": "digest",
							"type": "bytes32"
						}
					],
					"stateMutability": "view",
					"type": "function"
				},
				{
					"inputs": [
						{
							"internalType": "address",
							"name": "_sender",
							"type": "address"
						},
						{
							"internalType": "string",
							"name": "cidToDelete",
							"type": "string"
						}
					],
					"name": "deleteCid",
					"outputs": [],
					"stateMutability": "nonpayable",
					"type": "function"
				},
				{
					"inputs": [
						{
							"internalType": "address",
							"name": "_receiver",
							"type": "address"
						}
					],
					"name": "getFiles",
					"outputs": [
						{
							"components": [
								{
									"internalType": "string",
									"name": "cid",
									"type": "string"
								},
								{
									"internalType": "address",
									"name": "sender",
									"type": "address"
								},
								{
									"internalType": "uint256",
									"name": "timestamp",
									"type": "uint256"
								},
								{
									"internalType": "bytes32",
									"name": "digest",
									"type": "bytes32"
								}
							],
							"internalType": "struct StoreCIDs.CID[]",
							"name": "",
							"type": "tuple[]"
						}
					],
					"stateMutability": "view",
					"type": "function"
				},
				{
					"inputs": [
						{
							"internalType": "string",
							"name": "_cid",
							"type": "string"
						},
						{
							"internalType": "bytes32",
							"name": "_digest",
							"type": "bytes32"
						},
						{
							"internalType": "address",
							"name": "_receiver",
							"type": "address"
						}
					],
					"name": "storeFile",
					"outputs": [],
					"stateMutability": "nonpayable",
					"type": "function"
				}
			],
			"devdoc": {
				"kind": "dev",
				"methods": {},
				"version": 1
			},
			"evm": {
				"assembly": "    /* \"contracts/store_cids.sol\":60:1733  contract StoreCIDs {... */\n  mstore(0x40, 0x80)\n  callvalue\n  dup1\n  iszero\n  tag_1\n  jumpi\n  0x00\n  dup1\n  revert\ntag_1:\n  pop\n  dataSize(sub_0)\n  dup1\n  dataOffset(sub_0)\n  0x00\n  codecopy\n  0x00\n  return\nstop\n\nsub_0: assembly {\n        /* \"contracts/store_cids.sol\":60:1733  contract StoreCIDs {... */\n      mstore(0x40, 0x80)\n      callvalue\n      dup1\n      iszero\n      tag_1\n      jumpi\n      0x00\n      dup1\n      revert\n    tag_1:\n      pop\n      jumpi(tag_2, lt(calldatasize, 0x04))\n      shr(0xe0, calldataload(0x00))\n      dup1\n      0x2e28a5\n      eq\n      tag_3\n      jumpi\n      dup1\n      0x379639ed\n      eq\n      tag_4\n      jumpi\n      dup1\n      0x433bf37b\n      eq\n      tag_5\n      jumpi\n      dup1\n      0xbf6be7af\n      eq\n      tag_6\n      jumpi\n    tag_2:\n      0x00\n      dup1\n      revert\n        /* \"contracts/store_cids.sol\":384:421  mapping(address => CID[]) public cids */\n    tag_3:\n      tag_7\n      0x04\n      dup1\n      calldatasize\n      sub\n      dup2\n      add\n      swap1\n      tag_8\n      swap2\n      swap1\n      tag_9\n      jump\t// in\n    tag_8:\n      tag_10\n      jump\t// in\n    tag_7:\n      mload(0x40)\n      tag_11\n      swap5\n      swap4\n      swap3\n      swap2\n      swap1\n      tag_12\n      jump\t// in\n    tag_11:\n      mload(0x40)\n      dup1\n      swap2\n      sub\n      swap1\n      return\n        /* \"contracts/store_cids.sol\":1039:1730  function deleteCid(address _sender,string memory cidToDelete) ... */\n    tag_4:\n      tag_13\n      0x04\n      dup1\n      calldatasize\n      sub\n      dup2\n      add\n      swap1\n      tag_14\n      swap2\n      swap1\n      tag_15\n      jump\t// in\n    tag_14:\n      tag_16\n      jump\t// in\n    tag_13:\n      stop\n        /* \"contracts/store_cids.sol\":831:1031  function getFiles(address _receiver) ... */\n    tag_5:\n      tag_17\n      0x04\n      dup1\n      calldatasize\n      sub\n      dup2\n      add\n      swap1\n      tag_18\n      swap2\n      swap1\n      tag_19\n      jump\t// in\n    tag_18:\n      tag_20\n      jump\t// in\n    tag_17:\n      mload(0x40)\n      tag_21\n      swap2\n      swap1\n      tag_22\n      jump\t// in\n    tag_21:\n      mload(0x40)\n      dup1\n      swap2\n      sub\n      swap1\n      return\n        /* \"contracts/store_cids.sol\":430:823  function storeFile(string memory _cid,bytes32 _digest, address _receiver) ... */\n    tag_6:\n      tag_23\n      0x04\n      dup1\n      calldatasize\n      sub\n      dup2\n      add\n      swap1\n      tag_24\n      swap2\n      swap1\n      tag_25\n      jump\t// in\n    tag_24:\n      tag_26\n      jump\t// in\n    tag_23:\n      stop\n        /* \"contracts/store_cids.sol\":384:421  mapping(address => CID[]) public cids */\n    tag_10:\n      mstore(0x20, 0x00)\n      dup2\n      0x00\n      mstore\n      keccak256(0x00, 0x40)\n      dup2\n      dup2\n      sload\n      dup2\n      lt\n      tag_27\n      jumpi\n      0x00\n      dup1\n      revert\n    tag_27:\n      swap1\n      0x00\n      mstore\n      keccak256(0x00, 0x20)\n      swap1\n      0x04\n      mul\n      add\n      0x00\n      swap2\n      pop\n      swap2\n      pop\n      pop\n      dup1\n      0x00\n      add\n      dup1\n      sload\n      tag_29\n      swap1\n      tag_30\n      jump\t// in\n    tag_29:\n      dup1\n      0x1f\n      add\n      0x20\n      dup1\n      swap2\n      div\n      mul\n      0x20\n      add\n      mload(0x40)\n      swap1\n      dup2\n      add\n      0x40\n      mstore\n      dup1\n      swap3\n      swap2\n      swap1\n      dup2\n      dup2\n      mstore\n      0x20\n      add\n      dup3\n      dup1\n      sload\n      tag_31\n      swap1\n      tag_30\n      jump\t// in\n    tag_31:\n      dup1\n      iszero\n      tag_32\n      jumpi\n      dup1\n      0x1f\n      lt\n      tag_33\n      jumpi\n      0x0100\n      dup1\n      dup4\n      sload\n      div\n      mul\n      dup4\n      mstore\n      swap2\n      0x20\n      add\n      swap2\n      jump(tag_32)\n    tag_33:\n      dup3\n      add\n      swap2\n      swap1\n      0x00\n      mstore\n      keccak256(0x00, 0x20)\n      swap1\n    tag_34:\n      dup2\n      sload\n      dup2\n      mstore\n      swap1\n      0x01\n      add\n      swap1\n      0x20\n      add\n      dup1\n      dup4\n      gt\n      tag_34\n      jumpi\n      dup3\n      swap1\n      sub\n      0x1f\n      and\n      dup3\n      add\n      swap2\n    tag_32:\n      pop\n      pop\n      pop\n      pop\n      pop\n      swap1\n      dup1\n      0x01\n      add\n      0x00\n      swap1\n      sload\n      swap1\n      0x0100\n      exp\n      swap1\n      div\n      0xffffffffffffffffffffffffffffffffffffffff\n      and\n      swap1\n      dup1\n      0x02\n      add\n      sload\n      swap1\n      dup1\n      0x03\n      add\n      sload\n      swap1\n      pop\n      dup5\n      jump\t// out\n        /* \"contracts/store_cids.sol\":1039:1730  function deleteCid(address _sender,string memory cidToDelete) ... */\n    tag_16:\n        /* \"contracts/store_cids.sol\":1146:1153  _sender */\n      dup2\n        /* \"contracts/store_cids.sol\":1133:1153  msg.sender ==_sender */\n      0xffffffffffffffffffffffffffffffffffffffff\n      and\n        /* \"contracts/store_cids.sol\":1133:1143  msg.sender */\n      caller\n        /* \"contracts/store_cids.sol\":1133:1153  msg.sender ==_sender */\n      0xffffffffffffffffffffffffffffffffffffffff\n      and\n      eq\n        /* \"contracts/store_cids.sol\":1125:1174  require(msg.sender ==_sender,\"You are not owner\") */\n      tag_36\n      jumpi\n      mload(0x40)\n      0x08c379a000000000000000000000000000000000000000000000000000000000\n      dup2\n      mstore\n      0x04\n      add\n      tag_37\n      swap1\n      tag_38\n      jump\t// in\n    tag_37:\n      mload(0x40)\n      dup1\n      swap2\n      sub\n      swap1\n      revert\n    tag_36:\n        /* \"contracts/store_cids.sol\":1185:1207  CID[] storage userCIDs */\n      0x00\n        /* \"contracts/store_cids.sol\":1210:1214  cids */\n      dup1\n        /* \"contracts/store_cids.sol\":1210:1226  cids[msg.sender] */\n      0x00\n        /* \"contracts/store_cids.sol\":1215:1225  msg.sender */\n      caller\n        /* \"contracts/store_cids.sol\":1210:1226  cids[msg.sender] */\n      0xffffffffffffffffffffffffffffffffffffffff\n      and\n      0xffffffffffffffffffffffffffffffffffffffff\n      and\n      dup2\n      mstore\n      0x20\n      add\n      swap1\n      dup2\n      mstore\n      0x20\n      add\n      0x00\n      keccak256\n        /* \"contracts/store_cids.sol\":1185:1226  CID[] storage userCIDs = cids[msg.sender] */\n      swap1\n      pop\n        /* \"contracts/store_cids.sol\":1237:1247  bool found */\n      0x00\n        /* \"contracts/store_cids.sol\":1281:1287  uint i */\n      dup1\n        /* \"contracts/store_cids.sol\":1276:1664  for (uint i = 0; i < userCIDs.length; i++) {... */\n    tag_39:\n        /* \"contracts/store_cids.sol\":1297:1305  userCIDs */\n      dup3\n        /* \"contracts/store_cids.sol\":1297:1312  userCIDs.length */\n      dup1\n      sload\n      swap1\n      pop\n        /* \"contracts/store_cids.sol\":1293:1294  i */\n      dup2\n        /* \"contracts/store_cids.sol\":1293:1312  i < userCIDs.length */\n      lt\n        /* \"contracts/store_cids.sol\":1276:1664  for (uint i = 0; i < userCIDs.length; i++) {... */\n      iszero\n      tag_40\n      jumpi\n        /* \"contracts/store_cids.sol\":1413:1424  cidToDelete */\n      dup4\n        /* \"contracts/store_cids.sol\":1396:1425  abi.encodePacked(cidToDelete) */\n      add(0x20, mload(0x40))\n      tag_42\n      swap2\n      swap1\n      tag_43\n      jump\t// in\n    tag_42:\n      mload(0x40)\n      0x20\n      dup2\n      dup4\n      sub\n      sub\n      dup2\n      mstore\n      swap1\n      0x40\n      mstore\n        /* \"contracts/store_cids.sol\":1386:1426  keccak256(abi.encodePacked(cidToDelete)) */\n      dup1\n      mload\n      swap1\n      0x20\n      add\n      keccak256\n        /* \"contracts/store_cids.sol\":1365:1373  userCIDs */\n      dup4\n        /* \"contracts/store_cids.sol\":1374:1375  i */\n      dup3\n        /* \"contracts/store_cids.sol\":1365:1376  userCIDs[i] */\n      dup2\n      sload\n      dup2\n      lt\n      tag_44\n      jumpi\n      tag_45\n      tag_46\n      jump\t// in\n    tag_45:\n    tag_44:\n      swap1\n      0x00\n      mstore\n      keccak256(0x00, 0x20)\n      swap1\n      0x04\n      mul\n      add\n        /* \"contracts/store_cids.sol\":1365:1380  userCIDs[i].cid */\n      0x00\n      add\n        /* \"contracts/store_cids.sol\":1348:1381  abi.encodePacked(userCIDs[i].cid) */\n      add(0x20, mload(0x40))\n      tag_48\n      swap2\n      swap1\n      tag_49\n      jump\t// in\n    tag_48:\n      mload(0x40)\n      0x20\n      dup2\n      dup4\n      sub\n      sub\n      dup2\n      mstore\n      swap1\n      0x40\n      mstore\n        /* \"contracts/store_cids.sol\":1338:1382  keccak256(abi.encodePacked(userCIDs[i].cid)) */\n      dup1\n      mload\n      swap1\n      0x20\n      add\n      keccak256\n        /* \"contracts/store_cids.sol\":1338:1426  keccak256(abi.encodePacked(userCIDs[i].cid)) == keccak256(abi.encodePacked(cidToDelete)) */\n      sub\n        /* \"contracts/store_cids.sol\":1334:1653  if (keccak256(abi.encodePacked(userCIDs[i].cid)) == keccak256(abi.encodePacked(cidToDelete))) {... */\n      tag_50\n      jumpi\n        /* \"contracts/store_cids.sol\":1461:1469  userCIDs */\n      dup3\n        /* \"contracts/store_cids.sol\":1488:1489  1 */\n      0x01\n        /* \"contracts/store_cids.sol\":1470:1478  userCIDs */\n      dup5\n        /* \"contracts/store_cids.sol\":1470:1485  userCIDs.length */\n      dup1\n      sload\n      swap1\n      pop\n        /* \"contracts/store_cids.sol\":1470:1489  userCIDs.length - 1 */\n      tag_51\n      swap2\n      swap1\n      tag_52\n      jump\t// in\n    tag_51:\n        /* \"contracts/store_cids.sol\":1461:1490  userCIDs[userCIDs.length - 1] */\n      dup2\n      sload\n      dup2\n      lt\n      tag_53\n      jumpi\n      tag_54\n      tag_46\n      jump\t// in\n    tag_54:\n    tag_53:\n      swap1\n      0x00\n      mstore\n      keccak256(0x00, 0x20)\n      swap1\n      0x04\n      mul\n      add\n        /* \"contracts/store_cids.sol\":1447:1455  userCIDs */\n      dup4\n        /* \"contracts/store_cids.sol\":1456:1457  i */\n      dup3\n        /* \"contracts/store_cids.sol\":1447:1458  userCIDs[i] */\n      dup2\n      sload\n      dup2\n      lt\n      tag_56\n      jumpi\n      tag_57\n      tag_46\n      jump\t// in\n    tag_57:\n    tag_56:\n      swap1\n      0x00\n      mstore\n      keccak256(0x00, 0x20)\n      swap1\n      0x04\n      mul\n      add\n        /* \"contracts/store_cids.sol\":1447:1490  userCIDs[i] = userCIDs[userCIDs.length - 1] */\n      0x00\n      dup3\n      add\n      dup2\n      0x00\n      add\n      swap1\n      dup2\n      tag_59\n      swap2\n      swap1\n      tag_60\n      jump\t// in\n    tag_59:\n      pop\n      0x01\n      dup3\n      add\n      0x00\n      swap1\n      sload\n      swap1\n      0x0100\n      exp\n      swap1\n      div\n      0xffffffffffffffffffffffffffffffffffffffff\n      and\n      dup2\n      0x01\n      add\n      exp(0x0100, 0x00)\n      dup2\n      sload\n      dup2\n      0xffffffffffffffffffffffffffffffffffffffff\n      mul\n      not\n      and\n      swap1\n      dup4\n      0xffffffffffffffffffffffffffffffffffffffff\n      and\n      mul\n      or\n      swap1\n      sstore\n      pop\n      0x02\n      dup3\n      add\n      sload\n      dup2\n      0x02\n      add\n      sstore\n      0x03\n      dup3\n      add\n      sload\n      dup2\n      0x03\n      add\n      sstore\n      swap1\n      pop\n      pop\n        /* \"contracts/store_cids.sol\":1509:1517  userCIDs */\n      dup3\n        /* \"contracts/store_cids.sol\":1509:1523  userCIDs.pop() */\n      dup1\n      sload\n      dup1\n      tag_61\n      jumpi\n      tag_62\n      tag_63\n      jump\t// in\n    tag_62:\n    tag_61:\n      0x01\n      swap1\n      sub\n      dup2\n      dup2\n      swap1\n      0x00\n      mstore\n      keccak256(0x00, 0x20)\n      swap1\n      0x04\n      mul\n      add\n      0x00\n      dup1\n      dup3\n      add\n      0x00\n      tag_65\n      swap2\n      swap1\n      tag_66\n      jump\t// in\n    tag_65:\n      0x01\n      dup3\n      add\n      exp(0x0100, 0x00)\n      dup2\n      sload\n      swap1\n      0xffffffffffffffffffffffffffffffffffffffff\n      mul\n      not\n      and\n      swap1\n      sstore\n      0x02\n      dup3\n      add\n      0x00\n      swap1\n      sstore\n      0x03\n      dup3\n      add\n      0x00\n      swap1\n      sstore\n      pop\n      pop\n      swap1\n      sstore\n        /* \"contracts/store_cids.sol\":1551:1555  true */\n      0x01\n        /* \"contracts/store_cids.sol\":1543:1555  found = true */\n      swap2\n      pop\n        /* \"contracts/store_cids.sol\":1589:1599  msg.sender */\n      caller\n        /* \"contracts/store_cids.sol\":1579:1613  DeleteCID(msg.sender, cidToDelete) */\n      0xffffffffffffffffffffffffffffffffffffffff\n      and\n      0xec53acee17e291d4c2113d26ee57d287301f82fafa5871c806185942df36fbdf\n        /* \"contracts/store_cids.sol\":1601:1612  cidToDelete */\n      dup6\n        /* \"contracts/store_cids.sol\":1579:1613  DeleteCID(msg.sender, cidToDelete) */\n      mload(0x40)\n      tag_67\n      swap2\n      swap1\n      tag_68\n      jump\t// in\n    tag_67:\n      mload(0x40)\n      dup1\n      swap2\n      sub\n      swap1\n      log2\n        /* \"contracts/store_cids.sol\":1632:1637  break */\n      jump(tag_40)\n        /* \"contracts/store_cids.sol\":1334:1653  if (keccak256(abi.encodePacked(userCIDs[i].cid)) == keccak256(abi.encodePacked(cidToDelete))) {... */\n    tag_50:\n        /* \"contracts/store_cids.sol\":1314:1317  i++ */\n      dup1\n      dup1\n      0x01\n      add\n      swap2\n      pop\n      pop\n        /* \"contracts/store_cids.sol\":1276:1664  for (uint i = 0; i < userCIDs.length; i++) {... */\n      jump(tag_39)\n    tag_40:\n      pop\n        /* \"contracts/store_cids.sol\":1684:1689  found */\n      dup1\n        /* \"contracts/store_cids.sol\":1676:1722  require(found, \"CID not found for the sender\") */\n      tag_69\n      jumpi\n      mload(0x40)\n      0x08c379a000000000000000000000000000000000000000000000000000000000\n      dup2\n      mstore\n      0x04\n      add\n      tag_70\n      swap1\n      tag_71\n      jump\t// in\n    tag_70:\n      mload(0x40)\n      dup1\n      swap2\n      sub\n      swap1\n      revert\n    tag_69:\n        /* \"contracts/store_cids.sol\":1114:1730  {... */\n      pop\n      pop\n        /* \"contracts/store_cids.sol\":1039:1730  function deleteCid(address _sender,string memory cidToDelete) ... */\n      pop\n      pop\n      jump\t// out\n        /* \"contracts/store_cids.sol\":831:1031  function getFiles(address _receiver) ... */\n    tag_20:\n        /* \"contracts/store_cids.sol\":907:919  CID[] memory */\n      0x60\n        /* \"contracts/store_cids.sol\":953:963  msg.sender */\n      caller\n        /* \"contracts/store_cids.sol\":940:963  _receiver == msg.sender */\n      0xffffffffffffffffffffffffffffffffffffffff\n      and\n        /* \"contracts/store_cids.sol\":940:949  _receiver */\n      dup3\n        /* \"contracts/store_cids.sol\":940:963  _receiver == msg.sender */\n      0xffffffffffffffffffffffffffffffffffffffff\n      and\n      eq\n        /* \"contracts/store_cids.sol\":932:990  require(_receiver == msg.sender, \"You are not the owner!\") */\n      tag_73\n      jumpi\n      mload(0x40)\n      0x08c379a000000000000000000000000000000000000000000000000000000000\n      dup2\n      mstore\n      0x04\n      add\n      tag_74\n      swap1\n      tag_75\n      jump\t// in\n    tag_74:\n      mload(0x40)\n      dup1\n      swap2\n      sub\n      swap1\n      revert\n    tag_73:\n        /* \"contracts/store_cids.sol\":1008:1012  cids */\n      0x00\n        /* \"contracts/store_cids.sol\":1008:1023  cids[_receiver] */\n      dup1\n        /* \"contracts/store_cids.sol\":1013:1022  _receiver */\n      dup4\n        /* \"contracts/store_cids.sol\":1008:1023  cids[_receiver] */\n      0xffffffffffffffffffffffffffffffffffffffff\n      and\n      0xffffffffffffffffffffffffffffffffffffffff\n      and\n      dup2\n      mstore\n      0x20\n      add\n      swap1\n      dup2\n      mstore\n      0x20\n      add\n      0x00\n      keccak256\n        /* \"contracts/store_cids.sol\":1001:1023  return cids[_receiver] */\n      dup1\n      sload\n      dup1\n      0x20\n      mul\n      0x20\n      add\n      mload(0x40)\n      swap1\n      dup2\n      add\n      0x40\n      mstore\n      dup1\n      swap3\n      swap2\n      swap1\n      dup2\n      dup2\n      mstore\n      0x20\n      add\n      0x00\n      swap1\n    tag_76:\n      dup3\n      dup3\n      lt\n      iszero\n      tag_77\n      jumpi\n      dup4\n      dup3\n      swap1\n      0x00\n      mstore\n      keccak256(0x00, 0x20)\n      swap1\n      0x04\n      mul\n      add\n      mload(0x40)\n      dup1\n      0x80\n      add\n      0x40\n      mstore\n      swap1\n      dup2\n      0x00\n      dup3\n      add\n      dup1\n      sload\n      tag_79\n      swap1\n      tag_30\n      jump\t// in\n    tag_79:\n      dup1\n      0x1f\n      add\n      0x20\n      dup1\n      swap2\n      div\n      mul\n      0x20\n      add\n      mload(0x40)\n      swap1\n      dup2\n      add\n      0x40\n      mstore\n      dup1\n      swap3\n      swap2\n      swap1\n      dup2\n      dup2\n      mstore\n      0x20\n      add\n      dup3\n      dup1\n      sload\n      tag_80\n      swap1\n      tag_30\n      jump\t// in\n    tag_80:\n      dup1\n      iszero\n      tag_81\n      jumpi\n      dup1\n      0x1f\n      lt\n      tag_82\n      jumpi\n      0x0100\n      dup1\n      dup4\n      sload\n      div\n      mul\n      dup4\n      mstore\n      swap2\n      0x20\n      add\n      swap2\n      jump(tag_81)\n    tag_82:\n      dup3\n      add\n      swap2\n      swap1\n      0x00\n      mstore\n      keccak256(0x00, 0x20)\n      swap1\n    tag_83:\n      dup2\n      sload\n      dup2\n      mstore\n      swap1\n      0x01\n      add\n      swap1\n      0x20\n      add\n      dup1\n      dup4\n      gt\n      tag_83\n      jumpi\n      dup3\n      swap1\n      sub\n      0x1f\n      and\n      dup3\n      add\n      swap2\n    tag_81:\n      pop\n      pop\n      pop\n      pop\n      pop\n      dup2\n      mstore\n      0x20\n      add\n      0x01\n      dup3\n      add\n      0x00\n      swap1\n      sload\n      swap1\n      0x0100\n      exp\n      swap1\n      div\n      0xffffffffffffffffffffffffffffffffffffffff\n      and\n      0xffffffffffffffffffffffffffffffffffffffff\n      and\n      0xffffffffffffffffffffffffffffffffffffffff\n      and\n      dup2\n      mstore\n      0x20\n      add\n      0x02\n      dup3\n      add\n      sload\n      dup2\n      mstore\n      0x20\n      add\n      0x03\n      dup3\n      add\n      sload\n      dup2\n      mstore\n      pop\n      pop\n      dup2\n      mstore\n      0x20\n      add\n      swap1\n      0x01\n      add\n      swap1\n      jump(tag_76)\n    tag_77:\n      pop\n      pop\n      pop\n      pop\n      swap1\n      pop\n        /* \"contracts/store_cids.sol\":831:1031  function getFiles(address _receiver) ... */\n      swap2\n      swap1\n      pop\n      jump\t// out\n        /* \"contracts/store_cids.sol\":430:823  function storeFile(string memory _cid,bytes32 _digest, address _receiver) ... */\n    tag_26:\n        /* \"contracts/store_cids.sol\":528:545  CID memory newCid */\n      0x00\n        /* \"contracts/store_cids.sol\":548:693  CID({... */\n      mload(0x40)\n      dup1\n      0x80\n      add\n      0x40\n      mstore\n      dup1\n        /* \"contracts/store_cids.sol\":572:576  _cid */\n      dup6\n        /* \"contracts/store_cids.sol\":548:693  CID({... */\n      dup2\n      mstore\n      0x20\n      add\n        /* \"contracts/store_cids.sol\":630:640  msg.sender */\n      caller\n        /* \"contracts/store_cids.sol\":548:693  CID({... */\n      0xffffffffffffffffffffffffffffffffffffffff\n      and\n      dup2\n      mstore\n      0x20\n      add\n        /* \"contracts/store_cids.sol\":666:681  block.timestamp */\n      timestamp\n        /* \"contracts/store_cids.sol\":548:693  CID({... */\n      dup2\n      mstore\n      0x20\n      add\n        /* \"contracts/store_cids.sol\":600:607  _digest */\n      dup5\n        /* \"contracts/store_cids.sol\":548:693  CID({... */\n      dup2\n      mstore\n      pop\n        /* \"contracts/store_cids.sol\":528:693  CID memory newCid = CID({... */\n      swap1\n      pop\n        /* \"contracts/store_cids.sol\":706:710  cids */\n      0x00\n        /* \"contracts/store_cids.sol\":706:721  cids[_receiver] */\n      dup1\n        /* \"contracts/store_cids.sol\":711:720  _receiver */\n      dup4\n        /* \"contracts/store_cids.sol\":706:721  cids[_receiver] */\n      0xffffffffffffffffffffffffffffffffffffffff\n      and\n      0xffffffffffffffffffffffffffffffffffffffff\n      and\n      dup2\n      mstore\n      0x20\n      add\n      swap1\n      dup2\n      mstore\n      0x20\n      add\n      0x00\n      keccak256\n        /* \"contracts/store_cids.sol\":727:733  newCid */\n      dup2\n        /* \"contracts/store_cids.sol\":706:734  cids[_receiver].push(newCid) */\n      swap1\n      dup1\n      0x01\n      dup2\n      sload\n      add\n      dup1\n      dup3\n      sstore\n      dup1\n      swap2\n      pop\n      pop\n      0x01\n      swap1\n      sub\n      swap1\n      0x00\n      mstore\n      keccak256(0x00, 0x20)\n      swap1\n      0x04\n      mul\n      add\n      0x00\n      swap1\n      swap2\n      swap1\n      swap2\n      swap1\n      swap2\n      pop\n      0x00\n      dup3\n      add\n      mload\n      dup2\n      0x00\n      add\n      swap1\n      dup2\n      tag_86\n      swap2\n      swap1\n      tag_87\n      jump\t// in\n    tag_86:\n      pop\n      0x20\n      dup3\n      add\n      mload\n      dup2\n      0x01\n      add\n      exp(0x0100, 0x00)\n      dup2\n      sload\n      dup2\n      0xffffffffffffffffffffffffffffffffffffffff\n      mul\n      not\n      and\n      swap1\n      dup4\n      0xffffffffffffffffffffffffffffffffffffffff\n      and\n      mul\n      or\n      swap1\n      sstore\n      pop\n      0x40\n      dup3\n      add\n      mload\n      dup2\n      0x02\n      add\n      sstore\n      0x60\n      dup3\n      add\n      mload\n      dup2\n      0x03\n      add\n      sstore\n      pop\n      pop\n        /* \"contracts/store_cids.sol\":761:770  _receiver */\n      dup2\n        /* \"contracts/store_cids.sol\":752:815  StoreCID(_receiver, _cid, msg.sender, _digest, block.timestamp) */\n      0xffffffffffffffffffffffffffffffffffffffff\n      and\n      0x9e579ea0c4da0f88f445fc1ca29e6141a190d5ad059c58931481738eebddfb03\n        /* \"contracts/store_cids.sol\":772:776  _cid */\n      dup6\n        /* \"contracts/store_cids.sol\":778:788  msg.sender */\n      caller\n        /* \"contracts/store_cids.sol\":790:797  _digest */\n      dup7\n        /* \"contracts/store_cids.sol\":799:814  block.timestamp */\n      timestamp\n        /* \"contracts/store_cids.sol\":752:815  StoreCID(_receiver, _cid, msg.sender, _digest, block.timestamp) */\n      mload(0x40)\n      tag_88\n      swap5\n      swap4\n      swap3\n      swap2\n      swap1\n      tag_89\n      jump\t// in\n    tag_88:\n      mload(0x40)\n      dup1\n      swap2\n      sub\n      swap1\n      log2\n        /* \"contracts/store_cids.sol\":517:823  {... */\n      pop\n        /* \"contracts/store_cids.sol\":430:823  function storeFile(string memory _cid,bytes32 _digest, address _receiver) ... */\n      pop\n      pop\n      pop\n      jump\t// out\n    tag_66:\n      pop\n      dup1\n      sload\n      tag_90\n      swap1\n      tag_30\n      jump\t// in\n    tag_90:\n      0x00\n      dup3\n      sstore\n      dup1\n      0x1f\n      lt\n      tag_92\n      jumpi\n      pop\n      jump(tag_91)\n    tag_92:\n      0x1f\n      add\n      0x20\n      swap1\n      div\n      swap1\n      0x00\n      mstore\n      keccak256(0x00, 0x20)\n      swap1\n      dup2\n      add\n      swap1\n      tag_93\n      swap2\n      swap1\n      tag_94\n      jump\t// in\n    tag_93:\n    tag_91:\n      pop\n      jump\t// out\n    tag_94:\n    tag_95:\n      dup1\n      dup3\n      gt\n      iszero\n      tag_96\n      jumpi\n      0x00\n      dup2\n      0x00\n      swap1\n      sstore\n      pop\n      0x01\n      add\n      jump(tag_95)\n    tag_96:\n      pop\n      swap1\n      jump\t// out\n        /* \"#utility.yul\":7:82   */\n    tag_97:\n        /* \"#utility.yul\":40:46   */\n      0x00\n        /* \"#utility.yul\":73:75   */\n      0x40\n        /* \"#utility.yul\":67:76   */\n      mload\n        /* \"#utility.yul\":57:76   */\n      swap1\n      pop\n        /* \"#utility.yul\":7:82   */\n      swap1\n      jump\t// out\n        /* \"#utility.yul\":88:205   */\n    tag_98:\n        /* \"#utility.yul\":197:198   */\n      0x00\n        /* \"#utility.yul\":194:195   */\n      dup1\n        /* \"#utility.yul\":187:199   */\n      revert\n        /* \"#utility.yul\":211:328   */\n    tag_99:\n        /* \"#utility.yul\":320:321   */\n      0x00\n        /* \"#utility.yul\":317:318   */\n      dup1\n        /* \"#utility.yul\":310:322   */\n      revert\n        /* \"#utility.yul\":334:460   */\n    tag_100:\n        /* \"#utility.yul\":371:378   */\n      0x00\n        /* \"#utility.yul\":411:453   */\n      0xffffffffffffffffffffffffffffffffffffffff\n        /* \"#utility.yul\":404:409   */\n      dup3\n        /* \"#utility.yul\":400:454   */\n      and\n        /* \"#utility.yul\":389:454   */\n      swap1\n      pop\n        /* \"#utility.yul\":334:460   */\n      swap2\n      swap1\n      pop\n      jump\t// out\n        /* \"#utility.yul\":466:562   */\n    tag_101:\n        /* \"#utility.yul\":503:510   */\n      0x00\n        /* \"#utility.yul\":532:556   */\n      tag_172\n        /* \"#utility.yul\":550:555   */\n      dup3\n        /* \"#utility.yul\":532:556   */\n      tag_100\n      jump\t// in\n    tag_172:\n        /* \"#utility.yul\":521:556   */\n      swap1\n      pop\n        /* \"#utility.yul\":466:562   */\n      swap2\n      swap1\n      pop\n      jump\t// out\n        /* \"#utility.yul\":568:690   */\n    tag_102:\n        /* \"#utility.yul\":641:665   */\n      tag_174\n        /* \"#utility.yul\":659:664   */\n      dup2\n        /* \"#utility.yul\":641:665   */\n      tag_101\n      jump\t// in\n    tag_174:\n        /* \"#utility.yul\":634:639   */\n      dup2\n        /* \"#utility.yul\":631:666   */\n      eq\n        /* \"#utility.yul\":621:684   */\n      tag_175\n      jumpi\n        /* \"#utility.yul\":680:681   */\n      0x00\n        /* \"#utility.yul\":677:678   */\n      dup1\n        /* \"#utility.yul\":670:682   */\n      revert\n        /* \"#utility.yul\":621:684   */\n    tag_175:\n        /* \"#utility.yul\":568:690   */\n      pop\n      jump\t// out\n        /* \"#utility.yul\":696:835   */\n    tag_103:\n        /* \"#utility.yul\":742:747   */\n      0x00\n        /* \"#utility.yul\":780:786   */\n      dup2\n        /* \"#utility.yul\":767:787   */\n      calldataload\n        /* \"#utility.yul\":758:787   */\n      swap1\n      pop\n        /* \"#utility.yul\":796:829   */\n      tag_177\n        /* \"#utility.yul\":823:828   */\n      dup2\n        /* \"#utility.yul\":796:829   */\n      tag_102\n      jump\t// in\n    tag_177:\n        /* \"#utility.yul\":696:835   */\n      swap3\n      swap2\n      pop\n      pop\n      jump\t// out\n        /* \"#utility.yul\":841:918   */\n    tag_104:\n        /* \"#utility.yul\":878:885   */\n      0x00\n        /* \"#utility.yul\":907:912   */\n      dup2\n        /* \"#utility.yul\":896:912   */\n      swap1\n      pop\n        /* \"#utility.yul\":841:918   */\n      swap2\n      swap1\n      pop\n      jump\t// out\n        /* \"#utility.yul\":924:1046   */\n    tag_105:\n        /* \"#utility.yul\":997:1021   */\n      tag_180\n        /* \"#utility.yul\":1015:1020   */\n      dup2\n        /* \"#utility.yul\":997:1021   */\n      tag_104\n      jump\t// in\n    tag_180:\n        /* \"#utility.yul\":990:995   */\n      dup2\n        /* \"#utility.yul\":987:1022   */\n      eq\n        /* \"#utility.yul\":977:1040   */\n      tag_181\n      jumpi\n        /* \"#utility.yul\":1036:1037   */\n      0x00\n        /* \"#utility.yul\":1033:1034   */\n      dup1\n        /* \"#utility.yul\":1026:1038   */\n      revert\n        /* \"#utility.yul\":977:1040   */\n    tag_181:\n        /* \"#utility.yul\":924:1046   */\n      pop\n      jump\t// out\n        /* \"#utility.yul\":1052:1191   */\n    tag_106:\n        /* \"#utility.yul\":1098:1103   */\n      0x00\n        /* \"#utility.yul\":1136:1142   */\n      dup2\n        /* \"#utility.yul\":1123:1143   */\n      calldataload\n        /* \"#utility.yul\":1114:1143   */\n      swap1\n      pop\n        /* \"#utility.yul\":1152:1185   */\n      tag_183\n        /* \"#utility.yul\":1179:1184   */\n      dup2\n        /* \"#utility.yul\":1152:1185   */\n      tag_105\n      jump\t// in\n    tag_183:\n        /* \"#utility.yul\":1052:1191   */\n      swap3\n      swap2\n      pop\n      pop\n      jump\t// out\n        /* \"#utility.yul\":1197:1671   */\n    tag_9:\n        /* \"#utility.yul\":1265:1271   */\n      0x00\n        /* \"#utility.yul\":1273:1279   */\n      dup1\n        /* \"#utility.yul\":1322:1324   */\n      0x40\n        /* \"#utility.yul\":1310:1319   */\n      dup4\n        /* \"#utility.yul\":1301:1308   */\n      dup6\n        /* \"#utility.yul\":1297:1320   */\n      sub\n        /* \"#utility.yul\":1293:1325   */\n      slt\n        /* \"#utility.yul\":1290:1409   */\n      iszero\n      tag_185\n      jumpi\n        /* \"#utility.yul\":1328:1407   */\n      tag_186\n      tag_98\n      jump\t// in\n    tag_186:\n        /* \"#utility.yul\":1290:1409   */\n    tag_185:\n        /* \"#utility.yul\":1448:1449   */\n      0x00\n        /* \"#utility.yul\":1473:1526   */\n      tag_187\n        /* \"#utility.yul\":1518:1525   */\n      dup6\n        /* \"#utility.yul\":1509:1515   */\n      dup3\n        /* \"#utility.yul\":1498:1507   */\n      dup7\n        /* \"#utility.yul\":1494:1516   */\n      add\n        /* \"#utility.yul\":1473:1526   */\n      tag_103\n      jump\t// in\n    tag_187:\n        /* \"#utility.yul\":1463:1526   */\n      swap3\n      pop\n        /* \"#utility.yul\":1419:1536   */\n      pop\n        /* \"#utility.yul\":1575:1577   */\n      0x20\n        /* \"#utility.yul\":1601:1654   */\n      tag_188\n        /* \"#utility.yul\":1646:1653   */\n      dup6\n        /* \"#utility.yul\":1637:1643   */\n      dup3\n        /* \"#utility.yul\":1626:1635   */\n      dup7\n        /* \"#utility.yul\":1622:1644   */\n      add\n        /* \"#utility.yul\":1601:1654   */\n      tag_106\n      jump\t// in\n    tag_188:\n        /* \"#utility.yul\":1591:1654   */\n      swap2\n      pop\n        /* \"#utility.yul\":1546:1664   */\n      pop\n        /* \"#utility.yul\":1197:1671   */\n      swap3\n      pop\n      swap3\n      swap1\n      pop\n      jump\t// out\n        /* \"#utility.yul\":1677:1776   */\n    tag_107:\n        /* \"#utility.yul\":1729:1735   */\n      0x00\n        /* \"#utility.yul\":1763:1768   */\n      dup2\n        /* \"#utility.yul\":1757:1769   */\n      mload\n        /* \"#utility.yul\":1747:1769   */\n      swap1\n      pop\n        /* \"#utility.yul\":1677:1776   */\n      swap2\n      swap1\n      pop\n      jump\t// out\n        /* \"#utility.yul\":1782:1951   */\n    tag_108:\n        /* \"#utility.yul\":1866:1877   */\n      0x00\n        /* \"#utility.yul\":1900:1906   */\n      dup3\n        /* \"#utility.yul\":1895:1898   */\n      dup3\n        /* \"#utility.yul\":1888:1907   */\n      mstore\n        /* \"#utility.yul\":1940:1944   */\n      0x20\n        /* \"#utility.yul\":1935:1938   */\n      dup3\n        /* \"#utility.yul\":1931:1945   */\n      add\n        /* \"#utility.yul\":1916:1945   */\n      swap1\n      pop\n        /* \"#utility.yul\":1782:1951   */\n      swap3\n      swap2\n      pop\n      pop\n      jump\t// out\n        /* \"#utility.yul\":1957:2096   */\n    tag_109:\n        /* \"#utility.yul\":2046:2052   */\n      dup3\n        /* \"#utility.yul\":2041:2044   */\n      dup2\n        /* \"#utility.yul\":2036:2039   */\n      dup4\n        /* \"#utility.yul\":2030:2053   */\n      mcopy\n        /* \"#utility.yul\":2087:2088   */\n      0x00\n        /* \"#utility.yul\":2078:2084   */\n      dup4\n        /* \"#utility.yul\":2073:2076   */\n      dup4\n        /* \"#utility.yul\":2069:2085   */\n      add\n        /* \"#utility.yul\":2062:2089   */\n      mstore\n        /* \"#utility.yul\":1957:2096   */\n      pop\n      pop\n      pop\n      jump\t// out\n        /* \"#utility.yul\":2102:2204   */\n    tag_110:\n        /* \"#utility.yul\":2143:2149   */\n      0x00\n        /* \"#utility.yul\":2194:2196   */\n      0x1f\n        /* \"#utility.yul\":2190:2197   */\n      not\n        /* \"#utility.yul\":2185:2187   */\n      0x1f\n        /* \"#utility.yul\":2178:2183   */\n      dup4\n        /* \"#utility.yul\":2174:2188   */\n      add\n        /* \"#utility.yul\":2170:2198   */\n      and\n        /* \"#utility.yul\":2160:2198   */\n      swap1\n      pop\n        /* \"#utility.yul\":2102:2204   */\n      swap2\n      swap1\n      pop\n      jump\t// out\n        /* \"#utility.yul\":2210:2587   */\n    tag_111:\n        /* \"#utility.yul\":2298:2301   */\n      0x00\n        /* \"#utility.yul\":2326:2365   */\n      tag_194\n        /* \"#utility.yul\":2359:2364   */\n      dup3\n        /* \"#utility.yul\":2326:2365   */\n      tag_107\n      jump\t// in\n    tag_194:\n        /* \"#utility.yul\":2381:2452   */\n      tag_195\n        /* \"#utility.yul\":2445:2451   */\n      dup2\n        /* \"#utility.yul\":2440:2443   */\n      dup6\n        /* \"#utility.yul\":2381:2452   */\n      tag_108\n      jump\t// in\n    tag_195:\n        /* \"#utility.yul\":2374:2452   */\n      swap4\n      pop\n        /* \"#utility.yul\":2461:2526   */\n      tag_196\n        /* \"#utility.yul\":2519:2525   */\n      dup2\n        /* \"#utility.yul\":2514:2517   */\n      dup6\n        /* \"#utility.yul\":2507:2511   */\n      0x20\n        /* \"#utility.yul\":2500:2505   */\n      dup7\n        /* \"#utility.yul\":2496:2512   */\n      add\n        /* \"#utility.yul\":2461:2526   */\n      tag_109\n      jump\t// in\n    tag_196:\n        /* \"#utility.yul\":2551:2580   */\n      tag_197\n        /* \"#utility.yul\":2573:2579   */\n      dup2\n        /* \"#utility.yul\":2551:2580   */\n      tag_110\n      jump\t// in\n    tag_197:\n        /* \"#utility.yul\":2546:2549   */\n      dup5\n        /* \"#utility.yul\":2542:2581   */\n      add\n        /* \"#utility.yul\":2535:2581   */\n      swap2\n      pop\n        /* \"#utility.yul\":2302:2587   */\n      pop\n        /* \"#utility.yul\":2210:2587   */\n      swap3\n      swap2\n      pop\n      pop\n      jump\t// out\n        /* \"#utility.yul\":2593:2711   */\n    tag_112:\n        /* \"#utility.yul\":2680:2704   */\n      tag_199\n        /* \"#utility.yul\":2698:2703   */\n      dup2\n        /* \"#utility.yul\":2680:2704   */\n      tag_101\n      jump\t// in\n    tag_199:\n        /* \"#utility.yul\":2675:2678   */\n      dup3\n        /* \"#utility.yul\":2668:2705   */\n      mstore\n        /* \"#utility.yul\":2593:2711   */\n      pop\n      pop\n      jump\t// out\n        /* \"#utility.yul\":2717:2835   */\n    tag_113:\n        /* \"#utility.yul\":2804:2828   */\n      tag_201\n        /* \"#utility.yul\":2822:2827   */\n      dup2\n        /* \"#utility.yul\":2804:2828   */\n      tag_104\n      jump\t// in\n    tag_201:\n        /* \"#utility.yul\":2799:2802   */\n      dup3\n        /* \"#utility.yul\":2792:2829   */\n      mstore\n        /* \"#utility.yul\":2717:2835   */\n      pop\n      pop\n      jump\t// out\n        /* \"#utility.yul\":2841:2918   */\n    tag_114:\n        /* \"#utility.yul\":2878:2885   */\n      0x00\n        /* \"#utility.yul\":2907:2912   */\n      dup2\n        /* \"#utility.yul\":2896:2912   */\n      swap1\n      pop\n        /* \"#utility.yul\":2841:2918   */\n      swap2\n      swap1\n      pop\n      jump\t// out\n        /* \"#utility.yul\":2924:3042   */\n    tag_115:\n        /* \"#utility.yul\":3011:3035   */\n      tag_204\n        /* \"#utility.yul\":3029:3034   */\n      dup2\n        /* \"#utility.yul\":3011:3035   */\n      tag_114\n      jump\t// in\n    tag_204:\n        /* \"#utility.yul\":3006:3009   */\n      dup3\n        /* \"#utility.yul\":2999:3036   */\n      mstore\n        /* \"#utility.yul\":2924:3042   */\n      pop\n      pop\n      jump\t// out\n        /* \"#utility.yul\":3048:3692   */\n    tag_12:\n        /* \"#utility.yul\":3245:3249   */\n      0x00\n        /* \"#utility.yul\":3283:3286   */\n      0x80\n        /* \"#utility.yul\":3272:3281   */\n      dup3\n        /* \"#utility.yul\":3268:3287   */\n      add\n        /* \"#utility.yul\":3260:3287   */\n      swap1\n      pop\n        /* \"#utility.yul\":3333:3342   */\n      dup2\n        /* \"#utility.yul\":3327:3331   */\n      dup2\n        /* \"#utility.yul\":3323:3343   */\n      sub\n        /* \"#utility.yul\":3319:3320   */\n      0x00\n        /* \"#utility.yul\":3308:3317   */\n      dup4\n        /* \"#utility.yul\":3304:3321   */\n      add\n        /* \"#utility.yul\":3297:3344   */\n      mstore\n        /* \"#utility.yul\":3361:3439   */\n      tag_206\n        /* \"#utility.yul\":3434:3438   */\n      dup2\n        /* \"#utility.yul\":3425:3431   */\n      dup8\n        /* \"#utility.yul\":3361:3439   */\n      tag_111\n      jump\t// in\n    tag_206:\n        /* \"#utility.yul\":3353:3439   */\n      swap1\n      pop\n        /* \"#utility.yul\":3449:3521   */\n      tag_207\n        /* \"#utility.yul\":3517:3519   */\n      0x20\n        /* \"#utility.yul\":3506:3515   */\n      dup4\n        /* \"#utility.yul\":3502:3520   */\n      add\n        /* \"#utility.yul\":3493:3499   */\n      dup7\n        /* \"#utility.yul\":3449:3521   */\n      tag_112\n      jump\t// in\n    tag_207:\n        /* \"#utility.yul\":3531:3603   */\n      tag_208\n        /* \"#utility.yul\":3599:3601   */\n      0x40\n        /* \"#utility.yul\":3588:3597   */\n      dup4\n        /* \"#utility.yul\":3584:3602   */\n      add\n        /* \"#utility.yul\":3575:3581   */\n      dup6\n        /* \"#utility.yul\":3531:3603   */\n      tag_113\n      jump\t// in\n    tag_208:\n        /* \"#utility.yul\":3613:3685   */\n      tag_209\n        /* \"#utility.yul\":3681:3683   */\n      0x60\n        /* \"#utility.yul\":3670:3679   */\n      dup4\n        /* \"#utility.yul\":3666:3684   */\n      add\n        /* \"#utility.yul\":3657:3663   */\n      dup5\n        /* \"#utility.yul\":3613:3685   */\n      tag_115\n      jump\t// in\n    tag_209:\n        /* \"#utility.yul\":3048:3692   */\n      swap6\n      swap5\n      pop\n      pop\n      pop\n      pop\n      pop\n      jump\t// out\n        /* \"#utility.yul\":3698:3815   */\n    tag_116:\n        /* \"#utility.yul\":3807:3808   */\n      0x00\n        /* \"#utility.yul\":3804:3805   */\n      dup1\n        /* \"#utility.yul\":3797:3809   */\n      revert\n        /* \"#utility.yul\":3821:3938   */\n    tag_117:\n        /* \"#utility.yul\":3930:3931   */\n      0x00\n        /* \"#utility.yul\":3927:3928   */\n      dup1\n        /* \"#utility.yul\":3920:3932   */\n      revert\n        /* \"#utility.yul\":3944:4124   */\n    tag_118:\n        /* \"#utility.yul\":3992:4069   */\n      0x4e487b7100000000000000000000000000000000000000000000000000000000\n        /* \"#utility.yul\":3989:3990   */\n      0x00\n        /* \"#utility.yul\":3982:4070   */\n      mstore\n        /* \"#utility.yul\":4089:4093   */\n      0x41\n        /* \"#utility.yul\":4086:4087   */\n      0x04\n        /* \"#utility.yul\":4079:4094   */\n      mstore\n        /* \"#utility.yul\":4113:4117   */\n      0x24\n        /* \"#utility.yul\":4110:4111   */\n      0x00\n        /* \"#utility.yul\":4103:4118   */\n      revert\n        /* \"#utility.yul\":4130:4411   */\n    tag_119:\n        /* \"#utility.yul\":4213:4240   */\n      tag_214\n        /* \"#utility.yul\":4235:4239   */\n      dup3\n        /* \"#utility.yul\":4213:4240   */\n      tag_110\n      jump\t// in\n    tag_214:\n        /* \"#utility.yul\":4205:4211   */\n      dup2\n        /* \"#utility.yul\":4201:4241   */\n      add\n        /* \"#utility.yul\":4343:4349   */\n      dup2\n        /* \"#utility.yul\":4331:4341   */\n      dup2\n        /* \"#utility.yul\":4328:4350   */\n      lt\n        /* \"#utility.yul\":4307:4325   */\n      0xffffffffffffffff\n        /* \"#utility.yul\":4295:4305   */\n      dup3\n        /* \"#utility.yul\":4292:4326   */\n      gt\n        /* \"#utility.yul\":4289:4351   */\n      or\n        /* \"#utility.yul\":4286:4374   */\n      iszero\n      tag_215\n      jumpi\n        /* \"#utility.yul\":4354:4372   */\n      tag_216\n      tag_118\n      jump\t// in\n    tag_216:\n        /* \"#utility.yul\":4286:4374   */\n    tag_215:\n        /* \"#utility.yul\":4394:4404   */\n      dup1\n        /* \"#utility.yul\":4390:4392   */\n      0x40\n        /* \"#utility.yul\":4383:4405   */\n      mstore\n        /* \"#utility.yul\":4173:4411   */\n      pop\n        /* \"#utility.yul\":4130:4411   */\n      pop\n      pop\n      jump\t// out\n        /* \"#utility.yul\":4417:4546   */\n    tag_120:\n        /* \"#utility.yul\":4451:4457   */\n      0x00\n        /* \"#utility.yul\":4478:4498   */\n      tag_218\n      tag_97\n      jump\t// in\n    tag_218:\n        /* \"#utility.yul\":4468:4498   */\n      swap1\n      pop\n        /* \"#utility.yul\":4507:4540   */\n      tag_219\n        /* \"#utility.yul\":4535:4539   */\n      dup3\n        /* \"#utility.yul\":4527:4533   */\n      dup3\n        /* \"#utility.yul\":4507:4540   */\n      tag_119\n      jump\t// in\n    tag_219:\n        /* \"#utility.yul\":4417:4546   */\n      swap2\n      swap1\n      pop\n      jump\t// out\n        /* \"#utility.yul\":4552:4860   */\n    tag_121:\n        /* \"#utility.yul\":4614:4618   */\n      0x00\n        /* \"#utility.yul\":4704:4722   */\n      0xffffffffffffffff\n        /* \"#utility.yul\":4696:4702   */\n      dup3\n        /* \"#utility.yul\":4693:4723   */\n      gt\n        /* \"#utility.yul\":4690:4746   */\n      iszero\n      tag_221\n      jumpi\n        /* \"#utility.yul\":4726:4744   */\n      tag_222\n      tag_118\n      jump\t// in\n    tag_222:\n        /* \"#utility.yul\":4690:4746   */\n    tag_221:\n        /* \"#utility.yul\":4764:4793   */\n      tag_223\n        /* \"#utility.yul\":4786:4792   */\n      dup3\n        /* \"#utility.yul\":4764:4793   */\n      tag_110\n      jump\t// in\n    tag_223:\n        /* \"#utility.yul\":4756:4793   */\n      swap1\n      pop\n        /* \"#utility.yul\":4848:4852   */\n      0x20\n        /* \"#utility.yul\":4842:4846   */\n      dup2\n        /* \"#utility.yul\":4838:4853   */\n      add\n        /* \"#utility.yul\":4830:4853   */\n      swap1\n      pop\n        /* \"#utility.yul\":4552:4860   */\n      swap2\n      swap1\n      pop\n      jump\t// out\n        /* \"#utility.yul\":4866:5014   */\n    tag_122:\n        /* \"#utility.yul\":4964:4970   */\n      dup3\n        /* \"#utility.yul\":4959:4962   */\n      dup2\n        /* \"#utility.yul\":4954:4957   */\n      dup4\n        /* \"#utility.yul\":4941:4971   */\n      calldatacopy\n        /* \"#utility.yul\":5005:5006   */\n      0x00\n        /* \"#utility.yul\":4996:5002   */\n      dup4\n        /* \"#utility.yul\":4991:4994   */\n      dup4\n        /* \"#utility.yul\":4987:5003   */\n      add\n        /* \"#utility.yul\":4980:5007   */\n      mstore\n        /* \"#utility.yul\":4866:5014   */\n      pop\n      pop\n      pop\n      jump\t// out\n        /* \"#utility.yul\":5020:5445   */\n    tag_123:\n        /* \"#utility.yul\":5098:5103   */\n      0x00\n        /* \"#utility.yul\":5123:5189   */\n      tag_226\n        /* \"#utility.yul\":5139:5188   */\n      tag_227\n        /* \"#utility.yul\":5181:5187   */\n      dup5\n        /* \"#utility.yul\":5139:5188   */\n      tag_121\n      jump\t// in\n    tag_227:\n        /* \"#utility.yul\":5123:5189   */\n      tag_120\n      jump\t// in\n    tag_226:\n        /* \"#utility.yul\":5114:5189   */\n      swap1\n      pop\n        /* \"#utility.yul\":5212:5218   */\n      dup3\n        /* \"#utility.yul\":5205:5210   */\n      dup2\n        /* \"#utility.yul\":5198:5219   */\n      mstore\n        /* \"#utility.yul\":5250:5254   */\n      0x20\n        /* \"#utility.yul\":5243:5248   */\n      dup2\n        /* \"#utility.yul\":5239:5255   */\n      add\n        /* \"#utility.yul\":5288:5291   */\n      dup5\n        /* \"#utility.yul\":5279:5285   */\n      dup5\n        /* \"#utility.yul\":5274:5277   */\n      dup5\n        /* \"#utility.yul\":5270:5286   */\n      add\n        /* \"#utility.yul\":5267:5292   */\n      gt\n        /* \"#utility.yul\":5264:5376   */\n      iszero\n      tag_228\n      jumpi\n        /* \"#utility.yul\":5295:5374   */\n      tag_229\n      tag_117\n      jump\t// in\n    tag_229:\n        /* \"#utility.yul\":5264:5376   */\n    tag_228:\n        /* \"#utility.yul\":5385:5439   */\n      tag_230\n        /* \"#utility.yul\":5432:5438   */\n      dup5\n        /* \"#utility.yul\":5427:5430   */\n      dup3\n        /* \"#utility.yul\":5422:5425   */\n      dup6\n        /* \"#utility.yul\":5385:5439   */\n      tag_122\n      jump\t// in\n    tag_230:\n        /* \"#utility.yul\":5104:5445   */\n      pop\n        /* \"#utility.yul\":5020:5445   */\n      swap4\n      swap3\n      pop\n      pop\n      pop\n      jump\t// out\n        /* \"#utility.yul\":5465:5805   */\n    tag_124:\n        /* \"#utility.yul\":5521:5526   */\n      0x00\n        /* \"#utility.yul\":5570:5573   */\n      dup3\n        /* \"#utility.yul\":5563:5567   */\n      0x1f\n        /* \"#utility.yul\":5555:5561   */\n      dup4\n        /* \"#utility.yul\":5551:5568   */\n      add\n        /* \"#utility.yul\":5547:5574   */\n      slt\n        /* \"#utility.yul\":5537:5659   */\n      tag_232\n      jumpi\n        /* \"#utility.yul\":5578:5657   */\n      tag_233\n      tag_116\n      jump\t// in\n    tag_233:\n        /* \"#utility.yul\":5537:5659   */\n    tag_232:\n        /* \"#utility.yul\":5695:5701   */\n      dup2\n        /* \"#utility.yul\":5682:5702   */\n      calldataload\n        /* \"#utility.yul\":5720:5799   */\n      tag_234\n        /* \"#utility.yul\":5795:5798   */\n      dup5\n        /* \"#utility.yul\":5787:5793   */\n      dup3\n        /* \"#utility.yul\":5780:5784   */\n      0x20\n        /* \"#utility.yul\":5772:5778   */\n      dup7\n        /* \"#utility.yul\":5768:5785   */\n      add\n        /* \"#utility.yul\":5720:5799   */\n      tag_123\n      jump\t// in\n    tag_234:\n        /* \"#utility.yul\":5711:5799   */\n      swap2\n      pop\n        /* \"#utility.yul\":5527:5805   */\n      pop\n        /* \"#utility.yul\":5465:5805   */\n      swap3\n      swap2\n      pop\n      pop\n      jump\t// out\n        /* \"#utility.yul\":5811:6465   */\n    tag_15:\n        /* \"#utility.yul\":5889:5895   */\n      0x00\n        /* \"#utility.yul\":5897:5903   */\n      dup1\n        /* \"#utility.yul\":5946:5948   */\n      0x40\n        /* \"#utility.yul\":5934:5943   */\n      dup4\n        /* \"#utility.yul\":5925:5932   */\n      dup6\n        /* \"#utility.yul\":5921:5944   */\n      sub\n        /* \"#utility.yul\":5917:5949   */\n      slt\n        /* \"#utility.yul\":5914:6033   */\n      iszero\n      tag_236\n      jumpi\n        /* \"#utility.yul\":5952:6031   */\n      tag_237\n      tag_98\n      jump\t// in\n    tag_237:\n        /* \"#utility.yul\":5914:6033   */\n    tag_236:\n        /* \"#utility.yul\":6072:6073   */\n      0x00\n        /* \"#utility.yul\":6097:6150   */\n      tag_238\n        /* \"#utility.yul\":6142:6149   */\n      dup6\n        /* \"#utility.yul\":6133:6139   */\n      dup3\n        /* \"#utility.yul\":6122:6131   */\n      dup7\n        /* \"#utility.yul\":6118:6140   */\n      add\n        /* \"#utility.yul\":6097:6150   */\n      tag_103\n      jump\t// in\n    tag_238:\n        /* \"#utility.yul\":6087:6150   */\n      swap3\n      pop\n        /* \"#utility.yul\":6043:6160   */\n      pop\n        /* \"#utility.yul\":6227:6229   */\n      0x20\n        /* \"#utility.yul\":6216:6225   */\n      dup4\n        /* \"#utility.yul\":6212:6230   */\n      add\n        /* \"#utility.yul\":6199:6231   */\n      calldataload\n        /* \"#utility.yul\":6258:6276   */\n      0xffffffffffffffff\n        /* \"#utility.yul\":6250:6256   */\n      dup2\n        /* \"#utility.yul\":6247:6277   */\n      gt\n        /* \"#utility.yul\":6244:6361   */\n      iszero\n      tag_239\n      jumpi\n        /* \"#utility.yul\":6280:6359   */\n      tag_240\n      tag_99\n      jump\t// in\n    tag_240:\n        /* \"#utility.yul\":6244:6361   */\n    tag_239:\n        /* \"#utility.yul\":6385:6448   */\n      tag_241\n        /* \"#utility.yul\":6440:6447   */\n      dup6\n        /* \"#utility.yul\":6431:6437   */\n      dup3\n        /* \"#utility.yul\":6420:6429   */\n      dup7\n        /* \"#utility.yul\":6416:6438   */\n      add\n        /* \"#utility.yul\":6385:6448   */\n      tag_124\n      jump\t// in\n    tag_241:\n        /* \"#utility.yul\":6375:6448   */\n      swap2\n      pop\n        /* \"#utility.yul\":6170:6458   */\n      pop\n        /* \"#utility.yul\":5811:6465   */\n      swap3\n      pop\n      swap3\n      swap1\n      pop\n      jump\t// out\n        /* \"#utility.yul\":6471:6800   */\n    tag_19:\n        /* \"#utility.yul\":6530:6536   */\n      0x00\n        /* \"#utility.yul\":6579:6581   */\n      0x20\n        /* \"#utility.yul\":6567:6576   */\n      dup3\n        /* \"#utility.yul\":6558:6565   */\n      dup5\n        /* \"#utility.yul\":6554:6577   */\n      sub\n        /* \"#utility.yul\":6550:6582   */\n      slt\n        /* \"#utility.yul\":6547:6666   */\n      iszero\n      tag_243\n      jumpi\n        /* \"#utility.yul\":6585:6664   */\n      tag_244\n      tag_98\n      jump\t// in\n    tag_244:\n        /* \"#utility.yul\":6547:6666   */\n    tag_243:\n        /* \"#utility.yul\":6705:6706   */\n      0x00\n        /* \"#utility.yul\":6730:6783   */\n      tag_245\n        /* \"#utility.yul\":6775:6782   */\n      dup5\n        /* \"#utility.yul\":6766:6772   */\n      dup3\n        /* \"#utility.yul\":6755:6764   */\n      dup6\n        /* \"#utility.yul\":6751:6773   */\n      add\n        /* \"#utility.yul\":6730:6783   */\n      tag_103\n      jump\t// in\n    tag_245:\n        /* \"#utility.yul\":6720:6783   */\n      swap2\n      pop\n        /* \"#utility.yul\":6676:6793   */\n      pop\n        /* \"#utility.yul\":6471:6800   */\n      swap3\n      swap2\n      pop\n      pop\n      jump\t// out\n        /* \"#utility.yul\":6806:6939   */\n    tag_125:\n        /* \"#utility.yul\":6892:6898   */\n      0x00\n        /* \"#utility.yul\":6926:6931   */\n      dup2\n        /* \"#utility.yul\":6920:6932   */\n      mload\n        /* \"#utility.yul\":6910:6932   */\n      swap1\n      pop\n        /* \"#utility.yul\":6806:6939   */\n      swap2\n      swap1\n      pop\n      jump\t// out\n        /* \"#utility.yul\":6945:7148   */\n    tag_126:\n        /* \"#utility.yul\":7063:7074   */\n      0x00\n        /* \"#utility.yul\":7097:7103   */\n      dup3\n        /* \"#utility.yul\":7092:7095   */\n      dup3\n        /* \"#utility.yul\":7085:7104   */\n      mstore\n        /* \"#utility.yul\":7137:7141   */\n      0x20\n        /* \"#utility.yul\":7132:7135   */\n      dup3\n        /* \"#utility.yul\":7128:7142   */\n      add\n        /* \"#utility.yul\":7113:7142   */\n      swap1\n      pop\n        /* \"#utility.yul\":6945:7148   */\n      swap3\n      swap2\n      pop\n      pop\n      jump\t// out\n        /* \"#utility.yul\":7154:7305   */\n    tag_127:\n        /* \"#utility.yul\":7240:7244   */\n      0x00\n        /* \"#utility.yul\":7263:7266   */\n      dup2\n        /* \"#utility.yul\":7255:7266   */\n      swap1\n      pop\n        /* \"#utility.yul\":7293:7297   */\n      0x20\n        /* \"#utility.yul\":7288:7291   */\n      dup3\n        /* \"#utility.yul\":7284:7298   */\n      add\n        /* \"#utility.yul\":7276:7298   */\n      swap1\n      pop\n        /* \"#utility.yul\":7154:7305   */\n      swap2\n      swap1\n      pop\n      jump\t// out\n        /* \"#utility.yul\":7311:7470   */\n    tag_128:\n        /* \"#utility.yul\":7385:7396   */\n      0x00\n        /* \"#utility.yul\":7419:7425   */\n      dup3\n        /* \"#utility.yul\":7414:7417   */\n      dup3\n        /* \"#utility.yul\":7407:7426   */\n      mstore\n        /* \"#utility.yul\":7459:7463   */\n      0x20\n        /* \"#utility.yul\":7454:7457   */\n      dup3\n        /* \"#utility.yul\":7450:7464   */\n      add\n        /* \"#utility.yul\":7435:7464   */\n      swap1\n      pop\n        /* \"#utility.yul\":7311:7470   */\n      swap3\n      swap2\n      pop\n      pop\n      jump\t// out\n        /* \"#utility.yul\":7476:7833   */\n    tag_129:\n        /* \"#utility.yul\":7554:7557   */\n      0x00\n        /* \"#utility.yul\":7582:7621   */\n      tag_251\n        /* \"#utility.yul\":7615:7620   */\n      dup3\n        /* \"#utility.yul\":7582:7621   */\n      tag_107\n      jump\t// in\n    tag_251:\n        /* \"#utility.yul\":7637:7698   */\n      tag_252\n        /* \"#utility.yul\":7691:7697   */\n      dup2\n        /* \"#utility.yul\":7686:7689   */\n      dup6\n        /* \"#utility.yul\":7637:7698   */\n      tag_128\n      jump\t// in\n    tag_252:\n        /* \"#utility.yul\":7630:7698   */\n      swap4\n      pop\n        /* \"#utility.yul\":7707:7772   */\n      tag_253\n        /* \"#utility.yul\":7765:7771   */\n      dup2\n        /* \"#utility.yul\":7760:7763   */\n      dup6\n        /* \"#utility.yul\":7753:7757   */\n      0x20\n        /* \"#utility.yul\":7746:7751   */\n      dup7\n        /* \"#utility.yul\":7742:7758   */\n      add\n        /* \"#utility.yul\":7707:7772   */\n      tag_109\n      jump\t// in\n    tag_253:\n        /* \"#utility.yul\":7797:7826   */\n      tag_254\n        /* \"#utility.yul\":7819:7825   */\n      dup2\n        /* \"#utility.yul\":7797:7826   */\n      tag_110\n      jump\t// in\n    tag_254:\n        /* \"#utility.yul\":7792:7795   */\n      dup5\n        /* \"#utility.yul\":7788:7827   */\n      add\n        /* \"#utility.yul\":7781:7827   */\n      swap2\n      pop\n        /* \"#utility.yul\":7558:7833   */\n      pop\n        /* \"#utility.yul\":7476:7833   */\n      swap3\n      swap2\n      pop\n      pop\n      jump\t// out\n        /* \"#utility.yul\":7839:7947   */\n    tag_130:\n        /* \"#utility.yul\":7916:7940   */\n      tag_256\n        /* \"#utility.yul\":7934:7939   */\n      dup2\n        /* \"#utility.yul\":7916:7940   */\n      tag_101\n      jump\t// in\n    tag_256:\n        /* \"#utility.yul\":7911:7914   */\n      dup3\n        /* \"#utility.yul\":7904:7941   */\n      mstore\n        /* \"#utility.yul\":7839:7947   */\n      pop\n      pop\n      jump\t// out\n        /* \"#utility.yul\":7953:8061   */\n    tag_131:\n        /* \"#utility.yul\":8030:8054   */\n      tag_258\n        /* \"#utility.yul\":8048:8053   */\n      dup2\n        /* \"#utility.yul\":8030:8054   */\n      tag_104\n      jump\t// in\n    tag_258:\n        /* \"#utility.yul\":8025:8028   */\n      dup3\n        /* \"#utility.yul\":8018:8055   */\n      mstore\n        /* \"#utility.yul\":7953:8061   */\n      pop\n      pop\n      jump\t// out\n        /* \"#utility.yul\":8067:8175   */\n    tag_132:\n        /* \"#utility.yul\":8144:8168   */\n      tag_260\n        /* \"#utility.yul\":8162:8167   */\n      dup2\n        /* \"#utility.yul\":8144:8168   */\n      tag_114\n      jump\t// in\n    tag_260:\n        /* \"#utility.yul\":8139:8142   */\n      dup3\n        /* \"#utility.yul\":8132:8169   */\n      mstore\n        /* \"#utility.yul\":8067:8175   */\n      pop\n      pop\n      jump\t// out\n        /* \"#utility.yul\":8233:9173   */\n    tag_133:\n        /* \"#utility.yul\":8330:8333   */\n      0x00\n        /* \"#utility.yul\":8366:8370   */\n      0x80\n        /* \"#utility.yul\":8361:8364   */\n      dup4\n        /* \"#utility.yul\":8357:8371   */\n      add\n        /* \"#utility.yul\":8452:8456   */\n      0x00\n        /* \"#utility.yul\":8445:8450   */\n      dup4\n        /* \"#utility.yul\":8441:8457   */\n      add\n        /* \"#utility.yul\":8435:8458   */\n      mload\n        /* \"#utility.yul\":8505:8508   */\n      dup5\n        /* \"#utility.yul\":8499:8503   */\n      dup3\n        /* \"#utility.yul\":8495:8509   */\n      sub\n        /* \"#utility.yul\":8488:8492   */\n      0x00\n        /* \"#utility.yul\":8483:8486   */\n      dup7\n        /* \"#utility.yul\":8479:8493   */\n      add\n        /* \"#utility.yul\":8472:8510   */\n      mstore\n        /* \"#utility.yul\":8531:8604   */\n      tag_262\n        /* \"#utility.yul\":8599:8603   */\n      dup3\n        /* \"#utility.yul\":8585:8597   */\n      dup3\n        /* \"#utility.yul\":8531:8604   */\n      tag_129\n      jump\t// in\n    tag_262:\n        /* \"#utility.yul\":8523:8604   */\n      swap2\n      pop\n        /* \"#utility.yul\":8381:8615   */\n      pop\n        /* \"#utility.yul\":8699:8703   */\n      0x20\n        /* \"#utility.yul\":8692:8697   */\n      dup4\n        /* \"#utility.yul\":8688:8704   */\n      add\n        /* \"#utility.yul\":8682:8705   */\n      mload\n        /* \"#utility.yul\":8718:8781   */\n      tag_263\n        /* \"#utility.yul\":8775:8779   */\n      0x20\n        /* \"#utility.yul\":8770:8773   */\n      dup7\n        /* \"#utility.yul\":8766:8780   */\n      add\n        /* \"#utility.yul\":8752:8764   */\n      dup3\n        /* \"#utility.yul\":8718:8781   */\n      tag_130\n      jump\t// in\n    tag_263:\n        /* \"#utility.yul\":8625:8791   */\n      pop\n        /* \"#utility.yul\":8878:8882   */\n      0x40\n        /* \"#utility.yul\":8871:8876   */\n      dup4\n        /* \"#utility.yul\":8867:8883   */\n      add\n        /* \"#utility.yul\":8861:8884   */\n      mload\n        /* \"#utility.yul\":8897:8960   */\n      tag_264\n        /* \"#utility.yul\":8954:8958   */\n      0x40\n        /* \"#utility.yul\":8949:8952   */\n      dup7\n        /* \"#utility.yul\":8945:8959   */\n      add\n        /* \"#utility.yul\":8931:8943   */\n      dup3\n        /* \"#utility.yul\":8897:8960   */\n      tag_131\n      jump\t// in\n    tag_264:\n        /* \"#utility.yul\":8801:8970   */\n      pop\n        /* \"#utility.yul\":9054:9058   */\n      0x60\n        /* \"#utility.yul\":9047:9052   */\n      dup4\n        /* \"#utility.yul\":9043:9059   */\n      add\n        /* \"#utility.yul\":9037:9060   */\n      mload\n        /* \"#utility.yul\":9073:9136   */\n      tag_265\n        /* \"#utility.yul\":9130:9134   */\n      0x60\n        /* \"#utility.yul\":9125:9128   */\n      dup7\n        /* \"#utility.yul\":9121:9135   */\n      add\n        /* \"#utility.yul\":9107:9119   */\n      dup3\n        /* \"#utility.yul\":9073:9136   */\n      tag_132\n      jump\t// in\n    tag_265:\n        /* \"#utility.yul\":8980:9146   */\n      pop\n        /* \"#utility.yul\":9163:9167   */\n      dup1\n        /* \"#utility.yul\":9156:9167   */\n      swap2\n      pop\n        /* \"#utility.yul\":8335:9173   */\n      pop\n        /* \"#utility.yul\":8233:9173   */\n      swap3\n      swap2\n      pop\n      pop\n      jump\t// out\n        /* \"#utility.yul\":9179:9411   */\n    tag_134:\n        /* \"#utility.yul\":9286:9296   */\n      0x00\n        /* \"#utility.yul\":9321:9405   */\n      tag_267\n        /* \"#utility.yul\":9401:9404   */\n      dup4\n        /* \"#utility.yul\":9393:9399   */\n      dup4\n        /* \"#utility.yul\":9321:9405   */\n      tag_133\n      jump\t// in\n    tag_267:\n        /* \"#utility.yul\":9307:9405   */\n      swap1\n      pop\n        /* \"#utility.yul\":9179:9411   */\n      swap3\n      swap2\n      pop\n      pop\n      jump\t// out\n        /* \"#utility.yul\":9417:9549   */\n    tag_135:\n        /* \"#utility.yul\":9506:9510   */\n      0x00\n        /* \"#utility.yul\":9538:9542   */\n      0x20\n        /* \"#utility.yul\":9533:9536   */\n      dup3\n        /* \"#utility.yul\":9529:9543   */\n      add\n        /* \"#utility.yul\":9521:9543   */\n      swap1\n      pop\n        /* \"#utility.yul\":9417:9549   */\n      swap2\n      swap1\n      pop\n      jump\t// out\n        /* \"#utility.yul\":9611:10674   */\n    tag_136:\n        /* \"#utility.yul\":9768:9771   */\n      0x00\n        /* \"#utility.yul\":9797:9870   */\n      tag_270\n        /* \"#utility.yul\":9864:9869   */\n      dup3\n        /* \"#utility.yul\":9797:9870   */\n      tag_125\n      jump\t// in\n    tag_270:\n        /* \"#utility.yul\":9886:9991   */\n      tag_271\n        /* \"#utility.yul\":9984:9990   */\n      dup2\n        /* \"#utility.yul\":9979:9982   */\n      dup6\n        /* \"#utility.yul\":9886:9991   */\n      tag_126\n      jump\t// in\n    tag_271:\n        /* \"#utility.yul\":9879:9991   */\n      swap4\n      pop\n        /* \"#utility.yul\":10017:10020   */\n      dup4\n        /* \"#utility.yul\":10062:10066   */\n      0x20\n        /* \"#utility.yul\":10054:10060   */\n      dup3\n        /* \"#utility.yul\":10050:10067   */\n      mul\n        /* \"#utility.yul\":10045:10048   */\n      dup6\n        /* \"#utility.yul\":10041:10068   */\n      add\n        /* \"#utility.yul\":10092:10167   */\n      tag_272\n        /* \"#utility.yul\":10161:10166   */\n      dup6\n        /* \"#utility.yul\":10092:10167   */\n      tag_127\n      jump\t// in\n    tag_272:\n        /* \"#utility.yul\":10190:10197   */\n      dup1\n        /* \"#utility.yul\":10221:10222   */\n      0x00\n        /* \"#utility.yul\":10206:10629   */\n    tag_273:\n        /* \"#utility.yul\":10231:10237   */\n      dup6\n        /* \"#utility.yul\":10228:10229   */\n      dup2\n        /* \"#utility.yul\":10225:10238   */\n      lt\n        /* \"#utility.yul\":10206:10629   */\n      iszero\n      tag_275\n      jumpi\n        /* \"#utility.yul\":10302:10311   */\n      dup5\n        /* \"#utility.yul\":10296:10300   */\n      dup5\n        /* \"#utility.yul\":10292:10312   */\n      sub\n        /* \"#utility.yul\":10287:10290   */\n      dup10\n        /* \"#utility.yul\":10280:10313   */\n      mstore\n        /* \"#utility.yul\":10353:10359   */\n      dup2\n        /* \"#utility.yul\":10347:10360   */\n      mload\n        /* \"#utility.yul\":10381:10483   */\n      tag_276\n        /* \"#utility.yul\":10478:10482   */\n      dup6\n        /* \"#utility.yul\":10463:10476   */\n      dup3\n        /* \"#utility.yul\":10381:10483   */\n      tag_134\n      jump\t// in\n    tag_276:\n        /* \"#utility.yul\":10373:10483   */\n      swap5\n      pop\n        /* \"#utility.yul\":10506:10585   */\n      tag_277\n        /* \"#utility.yul\":10578:10584   */\n      dup4\n        /* \"#utility.yul\":10506:10585   */\n      tag_135\n      jump\t// in\n    tag_277:\n        /* \"#utility.yul\":10496:10585   */\n      swap3\n      pop\n        /* \"#utility.yul\":10614:10618   */\n      0x20\n        /* \"#utility.yul\":10609:10612   */\n      dup11\n        /* \"#utility.yul\":10605:10619   */\n      add\n        /* \"#utility.yul\":10598:10619   */\n      swap10\n      pop\n        /* \"#utility.yul\":10266:10629   */\n      pop\n        /* \"#utility.yul\":10253:10254   */\n      0x01\n        /* \"#utility.yul\":10250:10251   */\n      dup2\n        /* \"#utility.yul\":10246:10255   */\n      add\n        /* \"#utility.yul\":10241:10255   */\n      swap1\n      pop\n        /* \"#utility.yul\":10206:10629   */\n      jump(tag_273)\n    tag_275:\n        /* \"#utility.yul\":10210:10224   */\n      pop\n        /* \"#utility.yul\":10645:10649   */\n      dup3\n        /* \"#utility.yul\":10638:10649   */\n      swap8\n      pop\n        /* \"#utility.yul\":10665:10668   */\n      dup8\n        /* \"#utility.yul\":10658:10668   */\n      swap6\n      pop\n        /* \"#utility.yul\":9773:10674   */\n      pop\n      pop\n      pop\n      pop\n      pop\n        /* \"#utility.yul\":9611:10674   */\n      swap3\n      swap2\n      pop\n      pop\n      jump\t// out\n        /* \"#utility.yul\":10680:11129   */\n    tag_22:\n        /* \"#utility.yul\":10861:10865   */\n      0x00\n        /* \"#utility.yul\":10899:10901   */\n      0x20\n        /* \"#utility.yul\":10888:10897   */\n      dup3\n        /* \"#utility.yul\":10884:10902   */\n      add\n        /* \"#utility.yul\":10876:10902   */\n      swap1\n      pop\n        /* \"#utility.yul\":10948:10957   */\n      dup2\n        /* \"#utility.yul\":10942:10946   */\n      dup2\n        /* \"#utility.yul\":10938:10958   */\n      sub\n        /* \"#utility.yul\":10934:10935   */\n      0x00\n        /* \"#utility.yul\":10923:10932   */\n      dup4\n        /* \"#utility.yul\":10919:10936   */\n      add\n        /* \"#utility.yul\":10912:10959   */\n      mstore\n        /* \"#utility.yul\":10976:11122   */\n      tag_279\n        /* \"#utility.yul\":11117:11121   */\n      dup2\n        /* \"#utility.yul\":11108:11114   */\n      dup5\n        /* \"#utility.yul\":10976:11122   */\n      tag_136\n      jump\t// in\n    tag_279:\n        /* \"#utility.yul\":10968:11122   */\n      swap1\n      pop\n        /* \"#utility.yul\":10680:11129   */\n      swap3\n      swap2\n      pop\n      pop\n      jump\t// out\n        /* \"#utility.yul\":11135:11257   */\n    tag_137:\n        /* \"#utility.yul\":11208:11232   */\n      tag_281\n        /* \"#utility.yul\":11226:11231   */\n      dup2\n        /* \"#utility.yul\":11208:11232   */\n      tag_114\n      jump\t// in\n    tag_281:\n        /* \"#utility.yul\":11201:11206   */\n      dup2\n        /* \"#utility.yul\":11198:11233   */\n      eq\n        /* \"#utility.yul\":11188:11251   */\n      tag_282\n      jumpi\n        /* \"#utility.yul\":11247:11248   */\n      0x00\n        /* \"#utility.yul\":11244:11245   */\n      dup1\n        /* \"#utility.yul\":11237:11249   */\n      revert\n        /* \"#utility.yul\":11188:11251   */\n    tag_282:\n        /* \"#utility.yul\":11135:11257   */\n      pop\n      jump\t// out\n        /* \"#utility.yul\":11263:11402   */\n    tag_138:\n        /* \"#utility.yul\":11309:11314   */\n      0x00\n        /* \"#utility.yul\":11347:11353   */\n      dup2\n        /* \"#utility.yul\":11334:11354   */\n      calldataload\n        /* \"#utility.yul\":11325:11354   */\n      swap1\n      pop\n        /* \"#utility.yul\":11363:11396   */\n      tag_284\n        /* \"#utility.yul\":11390:11395   */\n      dup2\n        /* \"#utility.yul\":11363:11396   */\n      tag_137\n      jump\t// in\n    tag_284:\n        /* \"#utility.yul\":11263:11402   */\n      swap3\n      swap2\n      pop\n      pop\n      jump\t// out\n        /* \"#utility.yul\":11408:12207   */\n    tag_25:\n        /* \"#utility.yul\":11495:11501   */\n      0x00\n        /* \"#utility.yul\":11503:11509   */\n      dup1\n        /* \"#utility.yul\":11511:11517   */\n      0x00\n        /* \"#utility.yul\":11560:11562   */\n      0x60\n        /* \"#utility.yul\":11548:11557   */\n      dup5\n        /* \"#utility.yul\":11539:11546   */\n      dup7\n        /* \"#utility.yul\":11535:11558   */\n      sub\n        /* \"#utility.yul\":11531:11563   */\n      slt\n        /* \"#utility.yul\":11528:11647   */\n      iszero\n      tag_286\n      jumpi\n        /* \"#utility.yul\":11566:11645   */\n      tag_287\n      tag_98\n      jump\t// in\n    tag_287:\n        /* \"#utility.yul\":11528:11647   */\n    tag_286:\n        /* \"#utility.yul\":11714:11715   */\n      0x00\n        /* \"#utility.yul\":11703:11712   */\n      dup5\n        /* \"#utility.yul\":11699:11716   */\n      add\n        /* \"#utility.yul\":11686:11717   */\n      calldataload\n        /* \"#utility.yul\":11744:11762   */\n      0xffffffffffffffff\n        /* \"#utility.yul\":11736:11742   */\n      dup2\n        /* \"#utility.yul\":11733:11763   */\n      gt\n        /* \"#utility.yul\":11730:11847   */\n      iszero\n      tag_288\n      jumpi\n        /* \"#utility.yul\":11766:11845   */\n      tag_289\n      tag_99\n      jump\t// in\n    tag_289:\n        /* \"#utility.yul\":11730:11847   */\n    tag_288:\n        /* \"#utility.yul\":11871:11934   */\n      tag_290\n        /* \"#utility.yul\":11926:11933   */\n      dup7\n        /* \"#utility.yul\":11917:11923   */\n      dup3\n        /* \"#utility.yul\":11906:11915   */\n      dup8\n        /* \"#utility.yul\":11902:11924   */\n      add\n        /* \"#utility.yul\":11871:11934   */\n      tag_124\n      jump\t// in\n    tag_290:\n        /* \"#utility.yul\":11861:11934   */\n      swap4\n      pop\n        /* \"#utility.yul\":11657:11944   */\n      pop\n        /* \"#utility.yul\":11983:11985   */\n      0x20\n        /* \"#utility.yul\":12009:12062   */\n      tag_291\n        /* \"#utility.yul\":12054:12061   */\n      dup7\n        /* \"#utility.yul\":12045:12051   */\n      dup3\n        /* \"#utility.yul\":12034:12043   */\n      dup8\n        /* \"#utility.yul\":12030:12052   */\n      add\n        /* \"#utility.yul\":12009:12062   */\n      tag_138\n      jump\t// in\n    tag_291:\n        /* \"#utility.yul\":11999:12062   */\n      swap3\n      pop\n        /* \"#utility.yul\":11954:12072   */\n      pop\n        /* \"#utility.yul\":12111:12113   */\n      0x40\n        /* \"#utility.yul\":12137:12190   */\n      tag_292\n        /* \"#utility.yul\":12182:12189   */\n      dup7\n        /* \"#utility.yul\":12173:12179   */\n      dup3\n        /* \"#utility.yul\":12162:12171   */\n      dup8\n        /* \"#utility.yul\":12158:12180   */\n      add\n        /* \"#utility.yul\":12137:12190   */\n      tag_103\n      jump\t// in\n    tag_292:\n        /* \"#utility.yul\":12127:12190   */\n      swap2\n      pop\n        /* \"#utility.yul\":12082:12200   */\n      pop\n        /* \"#utility.yul\":11408:12207   */\n      swap3\n      pop\n      swap3\n      pop\n      swap3\n      jump\t// out\n        /* \"#utility.yul\":12213:12393   */\n    tag_139:\n        /* \"#utility.yul\":12261:12338   */\n      0x4e487b7100000000000000000000000000000000000000000000000000000000\n        /* \"#utility.yul\":12258:12259   */\n      0x00\n        /* \"#utility.yul\":12251:12339   */\n      mstore\n        /* \"#utility.yul\":12358:12362   */\n      0x22\n        /* \"#utility.yul\":12355:12356   */\n      0x04\n        /* \"#utility.yul\":12348:12363   */\n      mstore\n        /* \"#utility.yul\":12382:12386   */\n      0x24\n        /* \"#utility.yul\":12379:12380   */\n      0x00\n        /* \"#utility.yul\":12372:12387   */\n      revert\n        /* \"#utility.yul\":12399:12719   */\n    tag_30:\n        /* \"#utility.yul\":12443:12449   */\n      0x00\n        /* \"#utility.yul\":12480:12481   */\n      0x02\n        /* \"#utility.yul\":12474:12478   */\n      dup3\n        /* \"#utility.yul\":12470:12482   */\n      div\n        /* \"#utility.yul\":12460:12482   */\n      swap1\n      pop\n        /* \"#utility.yul\":12527:12528   */\n      0x01\n        /* \"#utility.yul\":12521:12525   */\n      dup3\n        /* \"#utility.yul\":12517:12529   */\n      and\n        /* \"#utility.yul\":12548:12566   */\n      dup1\n        /* \"#utility.yul\":12538:12619   */\n      tag_295\n      jumpi\n        /* \"#utility.yul\":12604:12608   */\n      0x7f\n        /* \"#utility.yul\":12596:12602   */\n      dup3\n        /* \"#utility.yul\":12592:12609   */\n      and\n        /* \"#utility.yul\":12582:12609   */\n      swap2\n      pop\n        /* \"#utility.yul\":12538:12619   */\n    tag_295:\n        /* \"#utility.yul\":12666:12668   */\n      0x20\n        /* \"#utility.yul\":12658:12664   */\n      dup3\n        /* \"#utility.yul\":12655:12669   */\n      lt\n        /* \"#utility.yul\":12635:12653   */\n      dup2\n        /* \"#utility.yul\":12632:12670   */\n      sub\n        /* \"#utility.yul\":12629:12713   */\n      tag_296\n      jumpi\n        /* \"#utility.yul\":12685:12703   */\n      tag_297\n      tag_139\n      jump\t// in\n    tag_297:\n        /* \"#utility.yul\":12629:12713   */\n    tag_296:\n        /* \"#utility.yul\":12450:12719   */\n      pop\n        /* \"#utility.yul\":12399:12719   */\n      swap2\n      swap1\n      pop\n      jump\t// out\n        /* \"#utility.yul\":12725:12892   */\n    tag_140:\n        /* \"#utility.yul\":12865:12884   */\n      0x596f7520617265206e6f74206f776e6572000000000000000000000000000000\n        /* \"#utility.yul\":12861:12862   */\n      0x00\n        /* \"#utility.yul\":12853:12859   */\n      dup3\n        /* \"#utility.yul\":12849:12863   */\n      add\n        /* \"#utility.yul\":12842:12885   */\n      mstore\n        /* \"#utility.yul\":12725:12892   */\n      pop\n      jump\t// out\n        /* \"#utility.yul\":12898:13264   */\n    tag_141:\n        /* \"#utility.yul\":13040:13043   */\n      0x00\n        /* \"#utility.yul\":13061:13128   */\n      tag_300\n        /* \"#utility.yul\":13125:13127   */\n      0x11\n        /* \"#utility.yul\":13120:13123   */\n      dup4\n        /* \"#utility.yul\":13061:13128   */\n      tag_108\n      jump\t// in\n    tag_300:\n        /* \"#utility.yul\":13054:13128   */\n      swap2\n      pop\n        /* \"#utility.yul\":13137:13230   */\n      tag_301\n        /* \"#utility.yul\":13226:13229   */\n      dup3\n        /* \"#utility.yul\":13137:13230   */\n      tag_140\n      jump\t// in\n    tag_301:\n        /* \"#utility.yul\":13255:13257   */\n      0x20\n        /* \"#utility.yul\":13250:13253   */\n      dup3\n        /* \"#utility.yul\":13246:13258   */\n      add\n        /* \"#utility.yul\":13239:13258   */\n      swap1\n      pop\n        /* \"#utility.yul\":12898:13264   */\n      swap2\n      swap1\n      pop\n      jump\t// out\n        /* \"#utility.yul\":13270:13689   */\n    tag_38:\n        /* \"#utility.yul\":13436:13440   */\n      0x00\n        /* \"#utility.yul\":13474:13476   */\n      0x20\n        /* \"#utility.yul\":13463:13472   */\n      dup3\n        /* \"#utility.yul\":13459:13477   */\n      add\n        /* \"#utility.yul\":13451:13477   */\n      swap1\n      pop\n        /* \"#utility.yul\":13523:13532   */\n      dup2\n        /* \"#utility.yul\":13517:13521   */\n      dup2\n        /* \"#utility.yul\":13513:13533   */\n      sub\n        /* \"#utility.yul\":13509:13510   */\n      0x00\n        /* \"#utility.yul\":13498:13507   */\n      dup4\n        /* \"#utility.yul\":13494:13511   */\n      add\n        /* \"#utility.yul\":13487:13534   */\n      mstore\n        /* \"#utility.yul\":13551:13682   */\n      tag_303\n        /* \"#utility.yul\":13677:13681   */\n      dup2\n        /* \"#utility.yul\":13551:13682   */\n      tag_141\n      jump\t// in\n    tag_303:\n        /* \"#utility.yul\":13543:13682   */\n      swap1\n      pop\n        /* \"#utility.yul\":13270:13689   */\n      swap2\n      swap1\n      pop\n      jump\t// out\n        /* \"#utility.yul\":13695:13843   */\n    tag_142:\n        /* \"#utility.yul\":13797:13808   */\n      0x00\n        /* \"#utility.yul\":13834:13837   */\n      dup2\n        /* \"#utility.yul\":13819:13837   */\n      swap1\n      pop\n        /* \"#utility.yul\":13695:13843   */\n      swap3\n      swap2\n      pop\n      pop\n      jump\t// out\n        /* \"#utility.yul\":13849:14239   */\n    tag_143:\n        /* \"#utility.yul\":13955:13958   */\n      0x00\n        /* \"#utility.yul\":13983:14022   */\n      tag_306\n        /* \"#utility.yul\":14016:14021   */\n      dup3\n        /* \"#utility.yul\":13983:14022   */\n      tag_107\n      jump\t// in\n    tag_306:\n        /* \"#utility.yul\":14038:14127   */\n      tag_307\n        /* \"#utility.yul\":14120:14126   */\n      dup2\n        /* \"#utility.yul\":14115:14118   */\n      dup6\n        /* \"#utility.yul\":14038:14127   */\n      tag_142\n      jump\t// in\n    tag_307:\n        /* \"#utility.yul\":14031:14127   */\n      swap4\n      pop\n        /* \"#utility.yul\":14136:14201   */\n      tag_308\n        /* \"#utility.yul\":14194:14200   */\n      dup2\n        /* \"#utility.yul\":14189:14192   */\n      dup6\n        /* \"#utility.yul\":14182:14186   */\n      0x20\n        /* \"#utility.yul\":14175:14180   */\n      dup7\n        /* \"#utility.yul\":14171:14187   */\n      add\n        /* \"#utility.yul\":14136:14201   */\n      tag_109\n      jump\t// in\n    tag_308:\n        /* \"#utility.yul\":14226:14232   */\n      dup1\n        /* \"#utility.yul\":14221:14224   */\n      dup5\n        /* \"#utility.yul\":14217:14233   */\n      add\n        /* \"#utility.yul\":14210:14233   */\n      swap2\n      pop\n        /* \"#utility.yul\":13959:14239   */\n      pop\n        /* \"#utility.yul\":13849:14239   */\n      swap3\n      swap2\n      pop\n      pop\n      jump\t// out\n        /* \"#utility.yul\":14245:14520   */\n    tag_43:\n        /* \"#utility.yul\":14377:14380   */\n      0x00\n        /* \"#utility.yul\":14399:14494   */\n      tag_310\n        /* \"#utility.yul\":14490:14493   */\n      dup3\n        /* \"#utility.yul\":14481:14487   */\n      dup5\n        /* \"#utility.yul\":14399:14494   */\n      tag_143\n      jump\t// in\n    tag_310:\n        /* \"#utility.yul\":14392:14494   */\n      swap2\n      pop\n        /* \"#utility.yul\":14511:14514   */\n      dup2\n        /* \"#utility.yul\":14504:14514   */\n      swap1\n      pop\n        /* \"#utility.yul\":14245:14520   */\n      swap3\n      swap2\n      pop\n      pop\n      jump\t// out\n        /* \"#utility.yul\":14526:14706   */\n    tag_46:\n        /* \"#utility.yul\":14574:14651   */\n      0x4e487b7100000000000000000000000000000000000000000000000000000000\n        /* \"#utility.yul\":14571:14572   */\n      0x00\n        /* \"#utility.yul\":14564:14652   */\n      mstore\n        /* \"#utility.yul\":14671:14675   */\n      0x32\n        /* \"#utility.yul\":14668:14669   */\n      0x04\n        /* \"#utility.yul\":14661:14676   */\n      mstore\n        /* \"#utility.yul\":14695:14699   */\n      0x24\n        /* \"#utility.yul\":14692:14693   */\n      0x00\n        /* \"#utility.yul\":14685:14700   */\n      revert\n        /* \"#utility.yul\":14712:14853   */\n    tag_144:\n        /* \"#utility.yul\":14761:14765   */\n      0x00\n        /* \"#utility.yul\":14784:14787   */\n      dup2\n        /* \"#utility.yul\":14776:14787   */\n      swap1\n      pop\n        /* \"#utility.yul\":14807:14810   */\n      dup2\n        /* \"#utility.yul\":14804:14805   */\n      0x00\n        /* \"#utility.yul\":14797:14811   */\n      mstore\n        /* \"#utility.yul\":14841:14845   */\n      0x20\n        /* \"#utility.yul\":14838:14839   */\n      0x00\n        /* \"#utility.yul\":14828:14846   */\n      keccak256\n        /* \"#utility.yul\":14820:14846   */\n      swap1\n      pop\n        /* \"#utility.yul\":14712:14853   */\n      swap2\n      swap1\n      pop\n      jump\t// out\n        /* \"#utility.yul\":14883:15757   */\n    tag_145:\n        /* \"#utility.yul\":14986:14989   */\n      0x00\n        /* \"#utility.yul\":15023:15028   */\n      dup2\n        /* \"#utility.yul\":15017:15029   */\n      sload\n        /* \"#utility.yul\":15052:15088   */\n      tag_314\n        /* \"#utility.yul\":15078:15087   */\n      dup2\n        /* \"#utility.yul\":15052:15088   */\n      tag_30\n      jump\t// in\n    tag_314:\n        /* \"#utility.yul\":15104:15193   */\n      tag_315\n        /* \"#utility.yul\":15186:15192   */\n      dup2\n        /* \"#utility.yul\":15181:15184   */\n      dup7\n        /* \"#utility.yul\":15104:15193   */\n      tag_142\n      jump\t// in\n    tag_315:\n        /* \"#utility.yul\":15097:15193   */\n      swap5\n      pop\n        /* \"#utility.yul\":15224:15225   */\n      0x01\n        /* \"#utility.yul\":15213:15222   */\n      dup3\n        /* \"#utility.yul\":15209:15226   */\n      and\n        /* \"#utility.yul\":15240:15241   */\n      0x00\n        /* \"#utility.yul\":15235:15401   */\n      dup2\n      eq\n      tag_317\n      jumpi\n        /* \"#utility.yul\":15415:15416   */\n      0x01\n        /* \"#utility.yul\":15410:15751   */\n      dup2\n      eq\n      tag_318\n      jumpi\n        /* \"#utility.yul\":15202:15751   */\n      jump(tag_316)\n        /* \"#utility.yul\":15235:15401   */\n    tag_317:\n        /* \"#utility.yul\":15319:15323   */\n      0xff\n        /* \"#utility.yul\":15315:15324   */\n      not\n        /* \"#utility.yul\":15304:15313   */\n      dup4\n        /* \"#utility.yul\":15300:15325   */\n      and\n        /* \"#utility.yul\":15295:15298   */\n      dup7\n        /* \"#utility.yul\":15288:15326   */\n      mstore\n        /* \"#utility.yul\":15381:15387   */\n      dup2\n        /* \"#utility.yul\":15374:15388   */\n      iszero\n        /* \"#utility.yul\":15367:15389   */\n      iszero\n        /* \"#utility.yul\":15359:15365   */\n      dup3\n        /* \"#utility.yul\":15355:15390   */\n      mul\n        /* \"#utility.yul\":15350:15353   */\n      dup7\n        /* \"#utility.yul\":15346:15391   */\n      add\n        /* \"#utility.yul\":15339:15391   */\n      swap4\n      pop\n        /* \"#utility.yul\":15235:15401   */\n      jump(tag_316)\n        /* \"#utility.yul\":15410:15751   */\n    tag_318:\n        /* \"#utility.yul\":15477:15515   */\n      tag_319\n        /* \"#utility.yul\":15509:15514   */\n      dup6\n        /* \"#utility.yul\":15477:15515   */\n      tag_144\n      jump\t// in\n    tag_319:\n        /* \"#utility.yul\":15537:15538   */\n      0x00\n        /* \"#utility.yul\":15551:15705   */\n    tag_320:\n        /* \"#utility.yul\":15565:15571   */\n      dup4\n        /* \"#utility.yul\":15562:15563   */\n      dup2\n        /* \"#utility.yul\":15559:15572   */\n      lt\n        /* \"#utility.yul\":15551:15705   */\n      iszero\n      tag_322\n      jumpi\n        /* \"#utility.yul\":15639:15646   */\n      dup2\n        /* \"#utility.yul\":15633:15647   */\n      sload\n        /* \"#utility.yul\":15629:15630   */\n      dup2\n        /* \"#utility.yul\":15624:15627   */\n      dup10\n        /* \"#utility.yul\":15620:15631   */\n      add\n        /* \"#utility.yul\":15613:15648   */\n      mstore\n        /* \"#utility.yul\":15689:15690   */\n      0x01\n        /* \"#utility.yul\":15680:15687   */\n      dup3\n        /* \"#utility.yul\":15676:15691   */\n      add\n        /* \"#utility.yul\":15665:15691   */\n      swap2\n      pop\n        /* \"#utility.yul\":15587:15591   */\n      0x20\n        /* \"#utility.yul\":15584:15585   */\n      dup2\n        /* \"#utility.yul\":15580:15592   */\n      add\n        /* \"#utility.yul\":15575:15592   */\n      swap1\n      pop\n        /* \"#utility.yul\":15551:15705   */\n      jump(tag_320)\n    tag_322:\n        /* \"#utility.yul\":15734:15740   */\n      dup4\n        /* \"#utility.yul\":15729:15732   */\n      dup9\n        /* \"#utility.yul\":15725:15741   */\n      add\n        /* \"#utility.yul\":15718:15741   */\n      swap6\n      pop\n        /* \"#utility.yul\":15417:15751   */\n      pop\n      pop\n        /* \"#utility.yul\":15202:15751   */\n    tag_316:\n      pop\n        /* \"#utility.yul\":14990:15757   */\n      pop\n      pop\n        /* \"#utility.yul\":14883:15757   */\n      swap3\n      swap2\n      pop\n      pop\n      jump\t// out\n        /* \"#utility.yul\":15763:16032   */\n    tag_49:\n        /* \"#utility.yul\":15892:15895   */\n      0x00\n        /* \"#utility.yul\":15914:16006   */\n      tag_324\n        /* \"#utility.yul\":16002:16005   */\n      dup3\n        /* \"#utility.yul\":15993:15999   */\n      dup5\n        /* \"#utility.yul\":15914:16006   */\n      tag_145\n      jump\t// in\n    tag_324:\n        /* \"#utility.yul\":15907:16006   */\n      swap2\n      pop\n        /* \"#utility.yul\":16023:16026   */\n      dup2\n        /* \"#utility.yul\":16016:16026   */\n      swap1\n      pop\n        /* \"#utility.yul\":15763:16032   */\n      swap3\n      swap2\n      pop\n      pop\n      jump\t// out\n        /* \"#utility.yul\":16038:16218   */\n    tag_146:\n        /* \"#utility.yul\":16086:16163   */\n      0x4e487b7100000000000000000000000000000000000000000000000000000000\n        /* \"#utility.yul\":16083:16084   */\n      0x00\n        /* \"#utility.yul\":16076:16164   */\n      mstore\n        /* \"#utility.yul\":16183:16187   */\n      0x11\n        /* \"#utility.yul\":16180:16181   */\n      0x04\n        /* \"#utility.yul\":16173:16188   */\n      mstore\n        /* \"#utility.yul\":16207:16211   */\n      0x24\n        /* \"#utility.yul\":16204:16205   */\n      0x00\n        /* \"#utility.yul\":16197:16212   */\n      revert\n        /* \"#utility.yul\":16224:16418   */\n    tag_52:\n        /* \"#utility.yul\":16264:16268   */\n      0x00\n        /* \"#utility.yul\":16284:16304   */\n      tag_327\n        /* \"#utility.yul\":16302:16303   */\n      dup3\n        /* \"#utility.yul\":16284:16304   */\n      tag_104\n      jump\t// in\n    tag_327:\n        /* \"#utility.yul\":16279:16304   */\n      swap2\n      pop\n        /* \"#utility.yul\":16318:16338   */\n      tag_328\n        /* \"#utility.yul\":16336:16337   */\n      dup4\n        /* \"#utility.yul\":16318:16338   */\n      tag_104\n      jump\t// in\n    tag_328:\n        /* \"#utility.yul\":16313:16338   */\n      swap3\n      pop\n        /* \"#utility.yul\":16362:16363   */\n      dup3\n        /* \"#utility.yul\":16359:16360   */\n      dup3\n        /* \"#utility.yul\":16355:16364   */\n      sub\n        /* \"#utility.yul\":16347:16364   */\n      swap1\n      pop\n        /* \"#utility.yul\":16386:16387   */\n      dup2\n        /* \"#utility.yul\":16380:16384   */\n      dup2\n        /* \"#utility.yul\":16377:16388   */\n      gt\n        /* \"#utility.yul\":16374:16411   */\n      iszero\n      tag_329\n      jumpi\n        /* \"#utility.yul\":16391:16409   */\n      tag_330\n      tag_146\n      jump\t// in\n    tag_330:\n        /* \"#utility.yul\":16374:16411   */\n    tag_329:\n        /* \"#utility.yul\":16224:16418   */\n      swap3\n      swap2\n      pop\n      pop\n      jump\t// out\n        /* \"#utility.yul\":16424:16573   */\n    tag_147:\n        /* \"#utility.yul\":16473:16479   */\n      0x00\n        /* \"#utility.yul\":16507:16512   */\n      dup2\n        /* \"#utility.yul\":16501:16513   */\n      sload\n        /* \"#utility.yul\":16491:16513   */\n      swap1\n      pop\n        /* \"#utility.yul\":16533:16566   */\n      tag_332\n        /* \"#utility.yul\":16559:16565   */\n      dup2\n        /* \"#utility.yul\":16533:16566   */\n      tag_30\n      jump\t// in\n    tag_332:\n        /* \"#utility.yul\":16523:16566   */\n      swap1\n      pop\n        /* \"#utility.yul\":16424:16573   */\n      swap2\n      swap1\n      pop\n      jump\t// out\n        /* \"#utility.yul\":16579:16672   */\n    tag_148:\n        /* \"#utility.yul\":16616:16622   */\n      0x00\n        /* \"#utility.yul\":16663:16665   */\n      0x20\n        /* \"#utility.yul\":16658:16660   */\n      0x1f\n        /* \"#utility.yul\":16651:16656   */\n      dup4\n        /* \"#utility.yul\":16647:16661   */\n      add\n        /* \"#utility.yul\":16643:16666   */\n      div\n        /* \"#utility.yul\":16633:16666   */\n      swap1\n      pop\n        /* \"#utility.yul\":16579:16672   */\n      swap2\n      swap1\n      pop\n      jump\t// out\n        /* \"#utility.yul\":16678:16785   */\n    tag_149:\n        /* \"#utility.yul\":16722:16730   */\n      0x00\n        /* \"#utility.yul\":16772:16777   */\n      dup3\n        /* \"#utility.yul\":16766:16770   */\n      dup3\n        /* \"#utility.yul\":16762:16778   */\n      shl\n        /* \"#utility.yul\":16741:16778   */\n      swap1\n      pop\n        /* \"#utility.yul\":16678:16785   */\n      swap3\n      swap2\n      pop\n      pop\n      jump\t// out\n        /* \"#utility.yul\":16791:17184   */\n    tag_150:\n        /* \"#utility.yul\":16860:16866   */\n      0x00\n        /* \"#utility.yul\":16910:16911   */\n      0x08\n        /* \"#utility.yul\":16898:16908   */\n      dup4\n        /* \"#utility.yul\":16894:16912   */\n      mul\n        /* \"#utility.yul\":16933:17030   */\n      tag_336\n        /* \"#utility.yul\":16963:17029   */\n      0xffffffffffffffffffffffffffffffffffffffffffffffffffffffffffffffff\n        /* \"#utility.yul\":16952:16961   */\n      dup3\n        /* \"#utility.yul\":16933:17030   */\n      tag_149\n      jump\t// in\n    tag_336:\n        /* \"#utility.yul\":17051:17090   */\n      tag_337\n        /* \"#utility.yul\":17081:17089   */\n      dup7\n        /* \"#utility.yul\":17070:17079   */\n      dup4\n        /* \"#utility.yul\":17051:17090   */\n      tag_149\n      jump\t// in\n    tag_337:\n        /* \"#utility.yul\":17039:17090   */\n      swap6\n      pop\n        /* \"#utility.yul\":17123:17127   */\n      dup1\n        /* \"#utility.yul\":17119:17128   */\n      not\n        /* \"#utility.yul\":17112:17117   */\n      dup5\n        /* \"#utility.yul\":17108:17129   */\n      and\n        /* \"#utility.yul\":17099:17129   */\n      swap4\n      pop\n        /* \"#utility.yul\":17172:17176   */\n      dup1\n        /* \"#utility.yul\":17162:17170   */\n      dup7\n        /* \"#utility.yul\":17158:17177   */\n      and\n        /* \"#utility.yul\":17151:17156   */\n      dup5\n        /* \"#utility.yul\":17148:17178   */\n      or\n        /* \"#utility.yul\":17138:17178   */\n      swap3\n      pop\n        /* \"#utility.yul\":16867:17184   */\n      pop\n      pop\n        /* \"#utility.yul\":16791:17184   */\n      swap4\n      swap3\n      pop\n      pop\n      pop\n      jump\t// out\n        /* \"#utility.yul\":17190:17250   */\n    tag_151:\n        /* \"#utility.yul\":17218:17221   */\n      0x00\n        /* \"#utility.yul\":17239:17244   */\n      dup2\n        /* \"#utility.yul\":17232:17244   */\n      swap1\n      pop\n        /* \"#utility.yul\":17190:17250   */\n      swap2\n      swap1\n      pop\n      jump\t// out\n        /* \"#utility.yul\":17256:17398   */\n    tag_152:\n        /* \"#utility.yul\":17306:17315   */\n      0x00\n        /* \"#utility.yul\":17339:17392   */\n      tag_340\n        /* \"#utility.yul\":17357:17391   */\n      tag_341\n        /* \"#utility.yul\":17366:17390   */\n      tag_342\n        /* \"#utility.yul\":17384:17389   */\n      dup5\n        /* \"#utility.yul\":17366:17390   */\n      tag_104\n      jump\t// in\n    tag_342:\n        /* \"#utility.yul\":17357:17391   */\n      tag_151\n      jump\t// in\n    tag_341:\n        /* \"#utility.yul\":17339:17392   */\n      tag_104\n      jump\t// in\n    tag_340:\n        /* \"#utility.yul\":17326:17392   */\n      swap1\n      pop\n        /* \"#utility.yul\":17256:17398   */\n      swap2\n      swap1\n      pop\n      jump\t// out\n        /* \"#utility.yul\":17404:17479   */\n    tag_153:\n        /* \"#utility.yul\":17447:17450   */\n      0x00\n        /* \"#utility.yul\":17468:17473   */\n      dup2\n        /* \"#utility.yul\":17461:17473   */\n      swap1\n      pop\n        /* \"#utility.yul\":17404:17479   */\n      swap2\n      swap1\n      pop\n      jump\t// out\n        /* \"#utility.yul\":17485:17754   */\n    tag_154:\n        /* \"#utility.yul\":17595:17634   */\n      tag_345\n        /* \"#utility.yul\":17626:17633   */\n      dup4\n        /* \"#utility.yul\":17595:17634   */\n      tag_152\n      jump\t// in\n    tag_345:\n        /* \"#utility.yul\":17656:17747   */\n      tag_346\n        /* \"#utility.yul\":17705:17746   */\n      tag_347\n        /* \"#utility.yul\":17729:17745   */\n      dup3\n        /* \"#utility.yul\":17705:17746   */\n      tag_153\n      jump\t// in\n    tag_347:\n        /* \"#utility.yul\":17697:17703   */\n      dup5\n        /* \"#utility.yul\":17690:17694   */\n      dup5\n        /* \"#utility.yul\":17684:17695   */\n      sload\n        /* \"#utility.yul\":17656:17747   */\n      tag_150\n      jump\t// in\n    tag_346:\n        /* \"#utility.yul\":17650:17654   */\n      dup3\n        /* \"#utility.yul\":17643:17748   */\n      sstore\n        /* \"#utility.yul\":17561:17754   */\n      pop\n        /* \"#utility.yul\":17485:17754   */\n      pop\n      pop\n      pop\n      jump\t// out\n        /* \"#utility.yul\":17760:17833   */\n    tag_155:\n        /* \"#utility.yul\":17805:17808   */\n      0x00\n        /* \"#utility.yul\":17760:17833   */\n      swap1\n      jump\t// out\n        /* \"#utility.yul\":17839:18028   */\n    tag_156:\n        /* \"#utility.yul\":17916:17948   */\n      tag_350\n      tag_155\n      jump\t// in\n    tag_350:\n        /* \"#utility.yul\":17957:18022   */\n      tag_351\n        /* \"#utility.yul\":18015:18021   */\n      dup2\n        /* \"#utility.yul\":18007:18013   */\n      dup5\n        /* \"#utility.yul\":18001:18005   */\n      dup5\n        /* \"#utility.yul\":17957:18022   */\n      tag_154\n      jump\t// in\n    tag_351:\n        /* \"#utility.yul\":17892:18028   */\n      pop\n        /* \"#utility.yul\":17839:18028   */\n      pop\n      pop\n      jump\t// out\n        /* \"#utility.yul\":18034:18220   */\n    tag_157:\n        /* \"#utility.yul\":18094:18214   */\n    tag_353:\n        /* \"#utility.yul\":18111:18114   */\n      dup2\n        /* \"#utility.yul\":18104:18109   */\n      dup2\n        /* \"#utility.yul\":18101:18115   */\n      lt\n        /* \"#utility.yul\":18094:18214   */\n      iszero\n      tag_355\n      jumpi\n        /* \"#utility.yul\":18165:18204   */\n      tag_356\n        /* \"#utility.yul\":18202:18203   */\n      0x00\n        /* \"#utility.yul\":18195:18200   */\n      dup3\n        /* \"#utility.yul\":18165:18204   */\n      tag_156\n      jump\t// in\n    tag_356:\n        /* \"#utility.yul\":18138:18139   */\n      0x01\n        /* \"#utility.yul\":18131:18136   */\n      dup2\n        /* \"#utility.yul\":18127:18140   */\n      add\n        /* \"#utility.yul\":18118:18140   */\n      swap1\n      pop\n        /* \"#utility.yul\":18094:18214   */\n      jump(tag_353)\n    tag_355:\n        /* \"#utility.yul\":18034:18220   */\n      pop\n      pop\n      jump\t// out\n        /* \"#utility.yul\":18226:18769   */\n    tag_158:\n        /* \"#utility.yul\":18327:18329   */\n      0x1f\n        /* \"#utility.yul\":18322:18325   */\n      dup3\n        /* \"#utility.yul\":18319:18330   */\n      gt\n        /* \"#utility.yul\":18316:18762   */\n      iszero\n      tag_358\n      jumpi\n        /* \"#utility.yul\":18361:18399   */\n      tag_359\n        /* \"#utility.yul\":18393:18398   */\n      dup2\n        /* \"#utility.yul\":18361:18399   */\n      tag_144\n      jump\t// in\n    tag_359:\n        /* \"#utility.yul\":18445:18474   */\n      tag_360\n        /* \"#utility.yul\":18463:18473   */\n      dup5\n        /* \"#utility.yul\":18445:18474   */\n      tag_148\n      jump\t// in\n    tag_360:\n        /* \"#utility.yul\":18435:18443   */\n      dup2\n        /* \"#utility.yul\":18431:18475   */\n      add\n        /* \"#utility.yul\":18628:18630   */\n      0x20\n        /* \"#utility.yul\":18616:18626   */\n      dup6\n        /* \"#utility.yul\":18613:18631   */\n      lt\n        /* \"#utility.yul\":18610:18659   */\n      iszero\n      tag_361\n      jumpi\n        /* \"#utility.yul\":18649:18657   */\n      dup2\n        /* \"#utility.yul\":18634:18657   */\n      swap1\n      pop\n        /* \"#utility.yul\":18610:18659   */\n    tag_361:\n        /* \"#utility.yul\":18672:18752   */\n      tag_362\n        /* \"#utility.yul\":18728:18750   */\n      tag_363\n        /* \"#utility.yul\":18746:18749   */\n      dup6\n        /* \"#utility.yul\":18728:18750   */\n      tag_148\n      jump\t// in\n    tag_363:\n        /* \"#utility.yul\":18718:18726   */\n      dup4\n        /* \"#utility.yul\":18714:18751   */\n      add\n        /* \"#utility.yul\":18701:18712   */\n      dup3\n        /* \"#utility.yul\":18672:18752   */\n      tag_157\n      jump\t// in\n    tag_362:\n        /* \"#utility.yul\":18331:18762   */\n      pop\n      pop\n        /* \"#utility.yul\":18316:18762   */\n    tag_358:\n        /* \"#utility.yul\":18226:18769   */\n      pop\n      pop\n      pop\n      jump\t// out\n        /* \"#utility.yul\":18775:18892   */\n    tag_159:\n        /* \"#utility.yul\":18829:18837   */\n      0x00\n        /* \"#utility.yul\":18879:18884   */\n      dup3\n        /* \"#utility.yul\":18873:18877   */\n      dup3\n        /* \"#utility.yul\":18869:18885   */\n      shr\n        /* \"#utility.yul\":18848:18885   */\n      swap1\n      pop\n        /* \"#utility.yul\":18775:18892   */\n      swap3\n      swap2\n      pop\n      pop\n      jump\t// out\n        /* \"#utility.yul\":18898:19067   */\n    tag_160:\n        /* \"#utility.yul\":18942:18948   */\n      0x00\n        /* \"#utility.yul\":18975:19026   */\n      tag_366\n        /* \"#utility.yul\":19023:19024   */\n      0x00\n        /* \"#utility.yul\":19019:19025   */\n      not\n        /* \"#utility.yul\":19011:19016   */\n      dup5\n        /* \"#utility.yul\":19008:19009   */\n      0x08\n        /* \"#utility.yul\":19004:19017   */\n      mul\n        /* \"#utility.yul\":18975:19026   */\n      tag_159\n      jump\t// in\n    tag_366:\n        /* \"#utility.yul\":18971:19027   */\n      not\n        /* \"#utility.yul\":19056:19060   */\n      dup1\n        /* \"#utility.yul\":19050:19054   */\n      dup4\n        /* \"#utility.yul\":19046:19061   */\n      and\n        /* \"#utility.yul\":19036:19061   */\n      swap2\n      pop\n        /* \"#utility.yul\":18949:19067   */\n      pop\n        /* \"#utility.yul\":18898:19067   */\n      swap3\n      swap2\n      pop\n      pop\n      jump\t// out\n        /* \"#utility.yul\":19072:19367   */\n    tag_161:\n        /* \"#utility.yul\":19148:19152   */\n      0x00\n        /* \"#utility.yul\":19294:19323   */\n      tag_368\n        /* \"#utility.yul\":19319:19322   */\n      dup4\n        /* \"#utility.yul\":19313:19317   */\n      dup4\n        /* \"#utility.yul\":19294:19323   */\n      tag_160\n      jump\t// in\n    tag_368:\n        /* \"#utility.yul\":19286:19323   */\n      swap2\n      pop\n        /* \"#utility.yul\":19356:19359   */\n      dup3\n        /* \"#utility.yul\":19353:19354   */\n      0x02\n        /* \"#utility.yul\":19349:19360   */\n      mul\n        /* \"#utility.yul\":19343:19347   */\n      dup3\n        /* \"#utility.yul\":19340:19361   */\n      or\n        /* \"#utility.yul\":19332:19361   */\n      swap1\n      pop\n        /* \"#utility.yul\":19072:19367   */\n      swap3\n      swap2\n      pop\n      pop\n      jump\t// out\n        /* \"#utility.yul\":19372:20823   */\n    tag_60:\n        /* \"#utility.yul\":19483:19486   */\n      dup2\n        /* \"#utility.yul\":19477:19481   */\n      dup2\n        /* \"#utility.yul\":19474:19487   */\n      sub\n        /* \"#utility.yul\":19471:19497   */\n      tag_370\n      jumpi\n        /* \"#utility.yul\":19490:19495   */\n      pop\n      pop\n      jump(tag_369)\n        /* \"#utility.yul\":19471:19497   */\n    tag_370:\n        /* \"#utility.yul\":19521:19555   */\n      tag_371\n        /* \"#utility.yul\":19551:19554   */\n      dup3\n        /* \"#utility.yul\":19521:19555   */\n      tag_147\n      jump\t// in\n    tag_371:\n        /* \"#utility.yul\":19620:19638   */\n      0xffffffffffffffff\n        /* \"#utility.yul\":19612:19618   */\n      dup2\n        /* \"#utility.yul\":19609:19639   */\n      gt\n        /* \"#utility.yul\":19606:19662   */\n      iszero\n      tag_372\n      jumpi\n        /* \"#utility.yul\":19642:19660   */\n      tag_373\n      tag_118\n      jump\t// in\n    tag_373:\n        /* \"#utility.yul\":19606:19662   */\n    tag_372:\n        /* \"#utility.yul\":19686:19724   */\n      tag_374\n        /* \"#utility.yul\":19718:19722   */\n      dup3\n        /* \"#utility.yul\":19712:19723   */\n      sload\n        /* \"#utility.yul\":19686:19724   */\n      tag_30\n      jump\t// in\n    tag_374:\n        /* \"#utility.yul\":19771:19838   */\n      tag_375\n        /* \"#utility.yul\":19831:19837   */\n      dup3\n        /* \"#utility.yul\":19823:19829   */\n      dup3\n        /* \"#utility.yul\":19817:19821   */\n      dup6\n        /* \"#utility.yul\":19771:19838   */\n      tag_158\n      jump\t// in\n    tag_375:\n        /* \"#utility.yul\":19865:19866   */\n      0x00\n        /* \"#utility.yul\":19894:19896   */\n      0x1f\n        /* \"#utility.yul\":19886:19892   */\n      dup4\n        /* \"#utility.yul\":19883:19897   */\n      gt\n        /* \"#utility.yul\":19911:19912   */\n      0x01\n        /* \"#utility.yul\":19906:20578   */\n      dup2\n      eq\n      tag_377\n      jumpi\n        /* \"#utility.yul\":20622:20623   */\n      0x00\n        /* \"#utility.yul\":20639:20645   */\n      dup5\n        /* \"#utility.yul\":20636:20713   */\n      iszero\n      tag_378\n      jumpi\n        /* \"#utility.yul\":20688:20697   */\n      dup3\n        /* \"#utility.yul\":20683:20686   */\n      dup8\n        /* \"#utility.yul\":20679:20698   */\n      add\n        /* \"#utility.yul\":20673:20699   */\n      sload\n        /* \"#utility.yul\":20664:20699   */\n      swap1\n      pop\n        /* \"#utility.yul\":20636:20713   */\n    tag_378:\n        /* \"#utility.yul\":20739:20806   */\n      tag_379\n        /* \"#utility.yul\":20799:20805   */\n      dup6\n        /* \"#utility.yul\":20792:20797   */\n      dup3\n        /* \"#utility.yul\":20739:20806   */\n      tag_161\n      jump\t// in\n    tag_379:\n        /* \"#utility.yul\":20733:20737   */\n      dup7\n        /* \"#utility.yul\":20726:20807   */\n      sstore\n        /* \"#utility.yul\":20595:20817   */\n      pop\n        /* \"#utility.yul\":19876:20817   */\n      jump(tag_376)\n        /* \"#utility.yul\":19906:20578   */\n    tag_377:\n        /* \"#utility.yul\":19958:19962   */\n      0x1f\n        /* \"#utility.yul\":19954:19963   */\n      not\n        /* \"#utility.yul\":19946:19952   */\n      dup5\n        /* \"#utility.yul\":19942:19964   */\n      and\n        /* \"#utility.yul\":19984:20020   */\n      tag_380\n        /* \"#utility.yul\":20016:20019   */\n      dup8\n        /* \"#utility.yul\":19984:20020   */\n      tag_144\n      jump\t// in\n    tag_380:\n        /* \"#utility.yul\":19977:20020   */\n      swap7\n      pop\n        /* \"#utility.yul\":20047:20084   */\n      tag_381\n        /* \"#utility.yul\":20079:20083   */\n      dup7\n        /* \"#utility.yul\":20047:20084   */\n      tag_144\n      jump\t// in\n    tag_381:\n        /* \"#utility.yul\":20106:20107   */\n      0x00\n        /* \"#utility.yul\":20120:20327   */\n    tag_382:\n        /* \"#utility.yul\":20134:20141   */\n      dup3\n        /* \"#utility.yul\":20131:20132   */\n      dup2\n        /* \"#utility.yul\":20128:20142   */\n      lt\n        /* \"#utility.yul\":20120:20327   */\n      iszero\n      tag_384\n      jumpi\n        /* \"#utility.yul\":20213:20222   */\n      dup5\n        /* \"#utility.yul\":20208:20211   */\n      dup10\n        /* \"#utility.yul\":20204:20223   */\n      add\n        /* \"#utility.yul\":20198:20224   */\n      sload\n        /* \"#utility.yul\":20190:20196   */\n      dup3\n        /* \"#utility.yul\":20183:20225   */\n      sstore\n        /* \"#utility.yul\":20264:20265   */\n      0x01\n        /* \"#utility.yul\":20256:20262   */\n      dup3\n        /* \"#utility.yul\":20252:20266   */\n      add\n        /* \"#utility.yul\":20242:20266   */\n      swap2\n      pop\n        /* \"#utility.yul\":20311:20312   */\n      0x01\n        /* \"#utility.yul\":20300:20309   */\n      dup6\n        /* \"#utility.yul\":20296:20313   */\n      add\n        /* \"#utility.yul\":20283:20313   */\n      swap5\n      pop\n        /* \"#utility.yul\":20157:20161   */\n      0x20\n        /* \"#utility.yul\":20154:20155   */\n      dup2\n        /* \"#utility.yul\":20150:20162   */\n      add\n        /* \"#utility.yul\":20145:20162   */\n      swap1\n      pop\n        /* \"#utility.yul\":20120:20327   */\n      jump(tag_382)\n    tag_384:\n        /* \"#utility.yul\":20355:20361   */\n      dup7\n        /* \"#utility.yul\":20346:20353   */\n      dup4\n        /* \"#utility.yul\":20343:20362   */\n      lt\n        /* \"#utility.yul\":20340:20519   */\n      iszero\n      tag_385\n      jumpi\n        /* \"#utility.yul\":20413:20422   */\n      dup5\n        /* \"#utility.yul\":20408:20411   */\n      dup10\n        /* \"#utility.yul\":20404:20423   */\n      add\n        /* \"#utility.yul\":20398:20424   */\n      sload\n        /* \"#utility.yul\":20456:20504   */\n      tag_386\n        /* \"#utility.yul\":20498:20502   */\n      0x1f\n        /* \"#utility.yul\":20490:20496   */\n      dup10\n        /* \"#utility.yul\":20486:20503   */\n      and\n        /* \"#utility.yul\":20475:20484   */\n      dup3\n        /* \"#utility.yul\":20456:20504   */\n      tag_160\n      jump\t// in\n    tag_386:\n        /* \"#utility.yul\":20448:20454   */\n      dup4\n        /* \"#utility.yul\":20441:20505   */\n      sstore\n        /* \"#utility.yul\":20363:20519   */\n      pop\n        /* \"#utility.yul\":20340:20519   */\n    tag_385:\n        /* \"#utility.yul\":20565:20566   */\n      0x01\n        /* \"#utility.yul\":20561:20562   */\n      0x02\n        /* \"#utility.yul\":20553:20559   */\n      dup9\n        /* \"#utility.yul\":20549:20563   */\n      mul\n        /* \"#utility.yul\":20545:20567   */\n      add\n        /* \"#utility.yul\":20539:20543   */\n      dup9\n        /* \"#utility.yul\":20532:20568   */\n      sstore\n        /* \"#utility.yul\":19913:20578   */\n      pop\n      pop\n      pop\n        /* \"#utility.yul\":19876:20817   */\n    tag_376:\n      pop\n        /* \"#utility.yul\":19461:20823   */\n      pop\n      pop\n      pop\n        /* \"#utility.yul\":19372:20823   */\n      pop\n      pop\n    tag_369:\n      jump\t// out\n        /* \"#utility.yul\":20829:21009   */\n    tag_63:\n        /* \"#utility.yul\":20877:20954   */\n      0x4e487b7100000000000000000000000000000000000000000000000000000000\n        /* \"#utility.yul\":20874:20875   */\n      0x00\n        /* \"#utility.yul\":20867:20955   */\n      mstore\n        /* \"#utility.yul\":20974:20978   */\n      0x31\n        /* \"#utility.yul\":20971:20972   */\n      0x04\n        /* \"#utility.yul\":20964:20979   */\n      mstore\n        /* \"#utility.yul\":20998:21002   */\n      0x24\n        /* \"#utility.yul\":20995:20996   */\n      0x00\n        /* \"#utility.yul\":20988:21003   */\n      revert\n        /* \"#utility.yul\":21015:21328   */\n    tag_68:\n        /* \"#utility.yul\":21128:21132   */\n      0x00\n        /* \"#utility.yul\":21166:21168   */\n      0x20\n        /* \"#utility.yul\":21155:21164   */\n      dup3\n        /* \"#utility.yul\":21151:21169   */\n      add\n        /* \"#utility.yul\":21143:21169   */\n      swap1\n      pop\n        /* \"#utility.yul\":21215:21224   */\n      dup2\n        /* \"#utility.yul\":21209:21213   */\n      dup2\n        /* \"#utility.yul\":21205:21225   */\n      sub\n        /* \"#utility.yul\":21201:21202   */\n      0x00\n        /* \"#utility.yul\":21190:21199   */\n      dup4\n        /* \"#utility.yul\":21186:21203   */\n      add\n        /* \"#utility.yul\":21179:21226   */\n      mstore\n        /* \"#utility.yul\":21243:21321   */\n      tag_389\n        /* \"#utility.yul\":21316:21320   */\n      dup2\n        /* \"#utility.yul\":21307:21313   */\n      dup5\n        /* \"#utility.yul\":21243:21321   */\n      tag_111\n      jump\t// in\n    tag_389:\n        /* \"#utility.yul\":21235:21321   */\n      swap1\n      pop\n        /* \"#utility.yul\":21015:21328   */\n      swap3\n      swap2\n      pop\n      pop\n      jump\t// out\n        /* \"#utility.yul\":21334:21512   */\n    tag_162:\n        /* \"#utility.yul\":21474:21504   */\n      0x434944206e6f7420666f756e6420666f72207468652073656e64657200000000\n        /* \"#utility.yul\":21470:21471   */\n      0x00\n        /* \"#utility.yul\":21462:21468   */\n      dup3\n        /* \"#utility.yul\":21458:21472   */\n      add\n        /* \"#utility.yul\":21451:21505   */\n      mstore\n        /* \"#utility.yul\":21334:21512   */\n      pop\n      jump\t// out\n        /* \"#utility.yul\":21518:21884   */\n    tag_163:\n        /* \"#utility.yul\":21660:21663   */\n      0x00\n        /* \"#utility.yul\":21681:21748   */\n      tag_392\n        /* \"#utility.yul\":21745:21747   */\n      0x1c\n        /* \"#utility.yul\":21740:21743   */\n      dup4\n        /* \"#utility.yul\":21681:21748   */\n      tag_108\n      jump\t// in\n    tag_392:\n        /* \"#utility.yul\":21674:21748   */\n      swap2\n      pop\n        /* \"#utility.yul\":21757:21850   */\n      tag_393\n        /* \"#utility.yul\":21846:21849   */\n      dup3\n        /* \"#utility.yul\":21757:21850   */\n      tag_162\n      jump\t// in\n    tag_393:\n        /* \"#utility.yul\":21875:21877   */\n      0x20\n        /* \"#utility.yul\":21870:21873   */\n      dup3\n        /* \"#utility.yul\":21866:21878   */\n      add\n        /* \"#utility.yul\":21859:21878   */\n      swap1\n      pop\n        /* \"#utility.yul\":21518:21884   */\n      swap2\n      swap1\n      pop\n      jump\t// out\n        /* \"#utility.yul\":21890:22309   */\n    tag_71:\n        /* \"#utility.yul\":22056:22060   */\n      0x00\n        /* \"#utility.yul\":22094:22096   */\n      0x20\n        /* \"#utility.yul\":22083:22092   */\n      dup3\n        /* \"#utility.yul\":22079:22097   */\n      add\n        /* \"#utility.yul\":22071:22097   */\n      swap1\n      pop\n        /* \"#utility.yul\":22143:22152   */\n      dup2\n        /* \"#utility.yul\":22137:22141   */\n      dup2\n        /* \"#utility.yul\":22133:22153   */\n      sub\n        /* \"#utility.yul\":22129:22130   */\n      0x00\n        /* \"#utility.yul\":22118:22127   */\n      dup4\n        /* \"#utility.yul\":22114:22131   */\n      add\n        /* \"#utility.yul\":22107:22154   */\n      mstore\n        /* \"#utility.yul\":22171:22302   */\n      tag_395\n        /* \"#utility.yul\":22297:22301   */\n      dup2\n        /* \"#utility.yul\":22171:22302   */\n      tag_163\n      jump\t// in\n    tag_395:\n        /* \"#utility.yul\":22163:22302   */\n      swap1\n      pop\n        /* \"#utility.yul\":21890:22309   */\n      swap2\n      swap1\n      pop\n      jump\t// out\n        /* \"#utility.yul\":22315:22487   */\n    tag_164:\n        /* \"#utility.yul\":22455:22479   */\n      0x596f7520617265206e6f7420746865206f776e65722100000000000000000000\n        /* \"#utility.yul\":22451:22452   */\n      0x00\n        /* \"#utility.yul\":22443:22449   */\n      dup3\n        /* \"#utility.yul\":22439:22453   */\n      add\n        /* \"#utility.yul\":22432:22480   */\n      mstore\n        /* \"#utility.yul\":22315:22487   */\n      pop\n      jump\t// out\n        /* \"#utility.yul\":22493:22859   */\n    tag_165:\n        /* \"#utility.yul\":22635:22638   */\n      0x00\n        /* \"#utility.yul\":22656:22723   */\n      tag_398\n        /* \"#utility.yul\":22720:22722   */\n      0x16\n        /* \"#utility.yul\":22715:22718   */\n      dup4\n        /* \"#utility.yul\":22656:22723   */\n      tag_108\n      jump\t// in\n    tag_398:\n        /* \"#utility.yul\":22649:22723   */\n      swap2\n      pop\n        /* \"#utility.yul\":22732:22825   */\n      tag_399\n        /* \"#utility.yul\":22821:22824   */\n      dup3\n        /* \"#utility.yul\":22732:22825   */\n      tag_164\n      jump\t// in\n    tag_399:\n        /* \"#utility.yul\":22850:22852   */\n      0x20\n        /* \"#utility.yul\":22845:22848   */\n      dup3\n        /* \"#utility.yul\":22841:22853   */\n      add\n        /* \"#utility.yul\":22834:22853   */\n      swap1\n      pop\n        /* \"#utility.yul\":22493:22859   */\n      swap2\n      swap1\n      pop\n      jump\t// out\n        /* \"#utility.yul\":22865:23284   */\n    tag_75:\n        /* \"#utility.yul\":23031:23035   */\n      0x00\n        /* \"#utility.yul\":23069:23071   */\n      0x20\n        /* \"#utility.yul\":23058:23067   */\n      dup3\n        /* \"#utility.yul\":23054:23072   */\n      add\n        /* \"#utility.yul\":23046:23072   */\n      swap1\n      pop\n        /* \"#utility.yul\":23118:23127   */\n      dup2\n        /* \"#utility.yul\":23112:23116   */\n      dup2\n        /* \"#utility.yul\":23108:23128   */\n      sub\n        /* \"#utility.yul\":23104:23105   */\n      0x00\n        /* \"#utility.yul\":23093:23102   */\n      dup4\n        /* \"#utility.yul\":23089:23106   */\n      add\n        /* \"#utility.yul\":23082:23129   */\n      mstore\n        /* \"#utility.yul\":23146:23277   */\n      tag_401\n        /* \"#utility.yul\":23272:23276   */\n      dup2\n        /* \"#utility.yul\":23146:23277   */\n      tag_165\n      jump\t// in\n    tag_401:\n        /* \"#utility.yul\":23138:23277   */\n      swap1\n      pop\n        /* \"#utility.yul\":22865:23284   */\n      swap2\n      swap1\n      pop\n      jump\t// out\n        /* \"#utility.yul\":23290:24685   */\n    tag_87:\n        /* \"#utility.yul\":23407:23444   */\n      tag_403\n        /* \"#utility.yul\":23440:23443   */\n      dup3\n        /* \"#utility.yul\":23407:23444   */\n      tag_107\n      jump\t// in\n    tag_403:\n        /* \"#utility.yul\":23509:23527   */\n      0xffffffffffffffff\n        /* \"#utility.yul\":23501:23507   */\n      dup2\n        /* \"#utility.yul\":23498:23528   */\n      gt\n        /* \"#utility.yul\":23495:23551   */\n      iszero\n      tag_404\n      jumpi\n        /* \"#utility.yul\":23531:23549   */\n      tag_405\n      tag_118\n      jump\t// in\n    tag_405:\n        /* \"#utility.yul\":23495:23551   */\n    tag_404:\n        /* \"#utility.yul\":23575:23613   */\n      tag_406\n        /* \"#utility.yul\":23607:23611   */\n      dup3\n        /* \"#utility.yul\":23601:23612   */\n      sload\n        /* \"#utility.yul\":23575:23613   */\n      tag_30\n      jump\t// in\n    tag_406:\n        /* \"#utility.yul\":23660:23727   */\n      tag_407\n        /* \"#utility.yul\":23720:23726   */\n      dup3\n        /* \"#utility.yul\":23712:23718   */\n      dup3\n        /* \"#utility.yul\":23706:23710   */\n      dup6\n        /* \"#utility.yul\":23660:23727   */\n      tag_158\n      jump\t// in\n    tag_407:\n        /* \"#utility.yul\":23754:23755   */\n      0x00\n        /* \"#utility.yul\":23778:23782   */\n      0x20\n        /* \"#utility.yul\":23765:23782   */\n      swap1\n      pop\n        /* \"#utility.yul\":23810:23812   */\n      0x1f\n        /* \"#utility.yul\":23802:23808   */\n      dup4\n        /* \"#utility.yul\":23799:23813   */\n      gt\n        /* \"#utility.yul\":23827:23828   */\n      0x01\n        /* \"#utility.yul\":23822:24440   */\n      dup2\n      eq\n      tag_409\n      jumpi\n        /* \"#utility.yul\":24484:24485   */\n      0x00\n        /* \"#utility.yul\":24501:24507   */\n      dup5\n        /* \"#utility.yul\":24498:24575   */\n      iszero\n      tag_410\n      jumpi\n        /* \"#utility.yul\":24550:24559   */\n      dup3\n        /* \"#utility.yul\":24545:24548   */\n      dup8\n        /* \"#utility.yul\":24541:24560   */\n      add\n        /* \"#utility.yul\":24535:24561   */\n      mload\n        /* \"#utility.yul\":24526:24561   */\n      swap1\n      pop\n        /* \"#utility.yul\":24498:24575   */\n    tag_410:\n        /* \"#utility.yul\":24601:24668   */\n      tag_411\n        /* \"#utility.yul\":24661:24667   */\n      dup6\n        /* \"#utility.yul\":24654:24659   */\n      dup3\n        /* \"#utility.yul\":24601:24668   */\n      tag_161\n      jump\t// in\n    tag_411:\n        /* \"#utility.yul\":24595:24599   */\n      dup7\n        /* \"#utility.yul\":24588:24669   */\n      sstore\n        /* \"#utility.yul\":24457:24679   */\n      pop\n        /* \"#utility.yul\":23792:24679   */\n      jump(tag_408)\n        /* \"#utility.yul\":23822:24440   */\n    tag_409:\n        /* \"#utility.yul\":23874:23878   */\n      0x1f\n        /* \"#utility.yul\":23870:23879   */\n      not\n        /* \"#utility.yul\":23862:23868   */\n      dup5\n        /* \"#utility.yul\":23858:23880   */\n      and\n        /* \"#utility.yul\":23908:23945   */\n      tag_412\n        /* \"#utility.yul\":23940:23944   */\n      dup7\n        /* \"#utility.yul\":23908:23945   */\n      tag_144\n      jump\t// in\n    tag_412:\n        /* \"#utility.yul\":23967:23968   */\n      0x00\n        /* \"#utility.yul\":23981:24189   */\n    tag_413:\n        /* \"#utility.yul\":23995:24002   */\n      dup3\n        /* \"#utility.yul\":23992:23993   */\n      dup2\n        /* \"#utility.yul\":23989:24003   */\n      lt\n        /* \"#utility.yul\":23981:24189   */\n      iszero\n      tag_415\n      jumpi\n        /* \"#utility.yul\":24074:24083   */\n      dup5\n        /* \"#utility.yul\":24069:24072   */\n      dup10\n        /* \"#utility.yul\":24065:24084   */\n      add\n        /* \"#utility.yul\":24059:24085   */\n      mload\n        /* \"#utility.yul\":24051:24057   */\n      dup3\n        /* \"#utility.yul\":24044:24086   */\n      sstore\n        /* \"#utility.yul\":24125:24126   */\n      0x01\n        /* \"#utility.yul\":24117:24123   */\n      dup3\n        /* \"#utility.yul\":24113:24127   */\n      add\n        /* \"#utility.yul\":24103:24127   */\n      swap2\n      pop\n        /* \"#utility.yul\":24172:24174   */\n      0x20\n        /* \"#utility.yul\":24161:24170   */\n      dup6\n        /* \"#utility.yul\":24157:24175   */\n      add\n        /* \"#utility.yul\":24144:24175   */\n      swap5\n      pop\n        /* \"#utility.yul\":24018:24022   */\n      0x20\n        /* \"#utility.yul\":24015:24016   */\n      dup2\n        /* \"#utility.yul\":24011:24023   */\n      add\n        /* \"#utility.yul\":24006:24023   */\n      swap1\n      pop\n        /* \"#utility.yul\":23981:24189   */\n      jump(tag_413)\n    tag_415:\n        /* \"#utility.yul\":24217:24223   */\n      dup7\n        /* \"#utility.yul\":24208:24215   */\n      dup4\n        /* \"#utility.yul\":24205:24224   */\n      lt\n        /* \"#utility.yul\":24202:24381   */\n      iszero\n      tag_416\n      jumpi\n        /* \"#utility.yul\":24275:24284   */\n      dup5\n        /* \"#utility.yul\":24270:24273   */\n      dup10\n        /* \"#utility.yul\":24266:24285   */\n      add\n        /* \"#utility.yul\":24260:24286   */\n      mload\n        /* \"#utility.yul\":24318:24366   */\n      tag_417\n        /* \"#utility.yul\":24360:24364   */\n      0x1f\n        /* \"#utility.yul\":24352:24358   */\n      dup10\n        /* \"#utility.yul\":24348:24365   */\n      and\n        /* \"#utility.yul\":24337:24346   */\n      dup3\n        /* \"#utility.yul\":24318:24366   */\n      tag_160\n      jump\t// in\n    tag_417:\n        /* \"#utility.yul\":24310:24316   */\n      dup4\n        /* \"#utility.yul\":24303:24367   */\n      sstore\n        /* \"#utility.yul\":24225:24381   */\n      pop\n        /* \"#utility.yul\":24202:24381   */\n    tag_416:\n        /* \"#utility.yul\":24427:24428   */\n      0x01\n        /* \"#utility.yul\":24423:24424   */\n      0x02\n        /* \"#utility.yul\":24415:24421   */\n      dup9\n        /* \"#utility.yul\":24411:24425   */\n      mul\n        /* \"#utility.yul\":24407:24429   */\n      add\n        /* \"#utility.yul\":24401:24405   */\n      dup9\n        /* \"#utility.yul\":24394:24430   */\n      sstore\n        /* \"#utility.yul\":23829:24440   */\n      pop\n      pop\n      pop\n        /* \"#utility.yul\":23792:24679   */\n    tag_408:\n      pop\n        /* \"#utility.yul\":23382:24685   */\n      pop\n      pop\n      pop\n        /* \"#utility.yul\":23290:24685   */\n      pop\n      pop\n      jump\t// out\n        /* \"#utility.yul\":24691:25335   */\n    tag_89:\n        /* \"#utility.yul\":24888:24892   */\n      0x00\n        /* \"#utility.yul\":24926:24929   */\n      0x80\n        /* \"#utility.yul\":24915:24924   */\n      dup3\n        /* \"#utility.yul\":24911:24930   */\n      add\n        /* \"#utility.yul\":24903:24930   */\n      swap1\n      pop\n        /* \"#utility.yul\":24976:24985   */\n      dup2\n        /* \"#utility.yul\":24970:24974   */\n      dup2\n        /* \"#utility.yul\":24966:24986   */\n      sub\n        /* \"#utility.yul\":24962:24963   */\n      0x00\n        /* \"#utility.yul\":24951:24960   */\n      dup4\n        /* \"#utility.yul\":24947:24964   */\n      add\n        /* \"#utility.yul\":24940:24987   */\n      mstore\n        /* \"#utility.yul\":25004:25082   */\n      tag_419\n        /* \"#utility.yul\":25077:25081   */\n      dup2\n        /* \"#utility.yul\":25068:25074   */\n      dup8\n        /* \"#utility.yul\":25004:25082   */\n      tag_111\n      jump\t// in\n    tag_419:\n        /* \"#utility.yul\":24996:25082   */\n      swap1\n      pop\n        /* \"#utility.yul\":25092:25164   */\n      tag_420\n        /* \"#utility.yul\":25160:25162   */\n      0x20\n        /* \"#utility.yul\":25149:25158   */\n      dup4\n        /* \"#utility.yul\":25145:25163   */\n      add\n        /* \"#utility.yul\":25136:25142   */\n      dup7\n        /* \"#utility.yul\":25092:25164   */\n      tag_112\n      jump\t// in\n    tag_420:\n        /* \"#utility.yul\":25174:25246   */\n      tag_421\n        /* \"#utility.yul\":25242:25244   */\n      0x40\n        /* \"#utility.yul\":25231:25240   */\n      dup4\n        /* \"#utility.yul\":25227:25245   */\n      add\n        /* \"#utility.yul\":25218:25224   */\n      dup6\n        /* \"#utility.yul\":25174:25246   */\n      tag_115\n      jump\t// in\n    tag_421:\n        /* \"#utility.yul\":25256:25328   */\n      tag_422\n        /* \"#utility.yul\":25324:25326   */\n      0x60\n        /* \"#utility.yul\":25313:25322   */\n      dup4\n        /* \"#utility.yul\":25309:25327   */\n      add\n        /* \"#utility.yul\":25300:25306   */\n      dup5\n        /* \"#utility.yul\":25256:25328   */\n      tag_113\n      jump\t// in\n    tag_422:\n        /* \"#utility.yul\":24691:25335   */\n      swap6\n      swap5\n      pop\n      pop\n      pop\n      pop\n      pop\n      jump\t// out\n\n    auxdata: 0xa2646970667358221220d8d7beb669b9bcdc1790abc251f02991f0bed2e4193df0281a6510d59ef10fee64736f6c634300081a0033\n}\n",
				"bytecode": {
					"linkReferences": {},
					"object": "6080604052348015600e575f80fd5b506115ae8061001c5f395ff3fe608060405234801561000f575f80fd5b5060043610610049575f3560e01c80622e28a51461004d578063379639ed14610080578063433bf37b1461009c578063bf6be7af146100cc575b5f80fd5b6100676004803603810190610062919061094e565b6100e8565b6040516100779493929190610a32565b60405180910390f35b61009a60048036038101906100959190610ba8565b6101d2565b005b6100b660048036038101906100b19190610c02565b6104f3565b6040516100c39190610dbd565b60405180910390f35b6100e660048036038101906100e19190610e07565b6106f1565b005b5f602052815f5260405f208181548110610100575f80fd5b905f5260205f2090600402015f9150915050805f01805461012090610ea0565b80601f016020809104026020016040519081016040528092919081815260200182805461014c90610ea0565b80156101975780601f1061016e57610100808354040283529160200191610197565b820191905f5260205f20905b81548152906001019060200180831161017a57829003601f168201915b505050505090806001015f9054906101000a900473ffffffffffffffffffffffffffffffffffffffff16908060020154908060030154905084565b8173ffffffffffffffffffffffffffffffffffffffff163373ffffffffffffffffffffffffffffffffffffffff1614610240576040517f08c379a000000000000000000000000000000000000000000000000000000000815260040161023790610f1a565b60405180910390fd5b5f805f3373ffffffffffffffffffffffffffffffffffffffff1673ffffffffffffffffffffffffffffffffffffffff1681526020019081526020015f2090505f805b82805490508110156104ac578360405160200161029f9190610f72565b604051602081830303815290604052805190602001208382815481106102c8576102c7610f88565b5b905f5260205f2090600402015f016040516020016102e69190611047565b604051602081830303815290604052805190602001200361049f578260018480549050610313919061108a565b8154811061032457610323610f88565b5b905f5260205f20906004020183828154811061034357610342610f88565b5b905f5260205f2090600402015f8201815f019081610361919061125d565b50600182015f9054906101000a900473ffffffffffffffffffffffffffffffffffffffff16816001015f6101000a81548173ffffffffffffffffffffffffffffffffffffffff021916908373ffffffffffffffffffffffffffffffffffffffff1602179055506002820154816002015560038201548160030155905050828054806103ef576103ee611342565b5b600190038181905f5260205f2090600402015f8082015f6104109190610858565b600182015f6101000a81549073ffffffffffffffffffffffffffffffffffffffff0219169055600282015f9055600382015f905550509055600191503373ffffffffffffffffffffffffffffffffffffffff167fec53acee17e291d4c2113d26ee57d287301f82fafa5871c806185942df36fbdf85604051610492919061136f565b60405180910390a26104ac565b8080600101915050610282565b50806104ed576040517f08c379a00000000000000000000000000000000000000000000000000000000081526004016104e4906113d9565b60405180910390fd5b50505050565b60603373ffffffffffffffffffffffffffffffffffffffff168273ffffffffffffffffffffffffffffffffffffffff1614610563576040517f08c379a000000000000000000000000000000000000000000000000000000000815260040161055a90611441565b60405180910390fd5b5f808373ffffffffffffffffffffffffffffffffffffffff1673ffffffffffffffffffffffffffffffffffffffff1681526020019081526020015f20805480602002602001604051908101604052809291908181526020015f905b828210156106e6578382905f5260205f2090600402016040518060800160405290815f820180546105ee90610ea0565b80601f016020809104026020016040519081016040528092919081815260200182805461061a90610ea0565b80156106655780601f1061063c57610100808354040283529160200191610665565b820191905f5260205f20905b81548152906001019060200180831161064857829003601f168201915b50505050508152602001600182015f9054906101000a900473ffffffffffffffffffffffffffffffffffffffff1673ffffffffffffffffffffffffffffffffffffffff1673ffffffffffffffffffffffffffffffffffffffff16815260200160028201548152602001600382015481525050815260200190600101906105be565b505050509050919050565b5f60405180608001604052808581526020013373ffffffffffffffffffffffffffffffffffffffff1681526020014281526020018481525090505f808373ffffffffffffffffffffffffffffffffffffffff1673ffffffffffffffffffffffffffffffffffffffff1681526020019081526020015f2081908060018154018082558091505060019003905f5260205f2090600402015f909190919091505f820151815f0190816107a1919061145f565b506020820151816001015f6101000a81548173ffffffffffffffffffffffffffffffffffffffff021916908373ffffffffffffffffffffffffffffffffffffffff160217905550604082015181600201556060820151816003015550508173ffffffffffffffffffffffffffffffffffffffff167f9e579ea0c4da0f88f445fc1ca29e6141a190d5ad059c58931481738eebddfb038533864260405161084a949392919061152e565b60405180910390a250505050565b50805461086490610ea0565b5f825580601f106108755750610892565b601f0160209004905f5260205f20908101906108919190610895565b5b50565b5b808211156108ac575f815f905550600101610896565b5090565b5f604051905090565b5f80fd5b5f80fd5b5f73ffffffffffffffffffffffffffffffffffffffff82169050919050565b5f6108ea826108c1565b9050919050565b6108fa816108e0565b8114610904575f80fd5b50565b5f81359050610915816108f1565b92915050565b5f819050919050565b61092d8161091b565b8114610937575f80fd5b50565b5f8135905061094881610924565b92915050565b5f8060408385031215610964576109636108b9565b5b5f61097185828601610907565b92505060206109828582860161093a565b9150509250929050565b5f81519050919050565b5f82825260208201905092915050565b8281835e5f83830152505050565b5f601f19601f8301169050919050565b5f6109ce8261098c565b6109d88185610996565b93506109e88185602086016109a6565b6109f1816109b4565b840191505092915050565b610a05816108e0565b82525050565b610a148161091b565b82525050565b5f819050919050565b610a2c81610a1a565b82525050565b5f6080820190508181035f830152610a4a81876109c4565b9050610a5960208301866109fc565b610a666040830185610a0b565b610a736060830184610a23565b95945050505050565b5f80fd5b5f80fd5b7f4e487b71000000000000000000000000000000000000000000000000000000005f52604160045260245ffd5b610aba826109b4565b810181811067ffffffffffffffff82111715610ad957610ad8610a84565b5b80604052505050565b5f610aeb6108b0565b9050610af78282610ab1565b919050565b5f67ffffffffffffffff821115610b1657610b15610a84565b5b610b1f826109b4565b9050602081019050919050565b828183375f83830152505050565b5f610b4c610b4784610afc565b610ae2565b905082815260208101848484011115610b6857610b67610a80565b5b610b73848285610b2c565b509392505050565b5f82601f830112610b8f57610b8e610a7c565b5b8135610b9f848260208601610b3a565b91505092915050565b5f8060408385031215610bbe57610bbd6108b9565b5b5f610bcb85828601610907565b925050602083013567ffffffffffffffff811115610bec57610beb6108bd565b5b610bf885828601610b7b565b9150509250929050565b5f60208284031215610c1757610c166108b9565b5b5f610c2484828501610907565b91505092915050565b5f81519050919050565b5f82825260208201905092915050565b5f819050602082019050919050565b5f82825260208201905092915050565b5f610c708261098c565b610c7a8185610c56565b9350610c8a8185602086016109a6565b610c93816109b4565b840191505092915050565b610ca7816108e0565b82525050565b610cb68161091b565b82525050565b610cc581610a1a565b82525050565b5f608083015f8301518482035f860152610ce58282610c66565b9150506020830151610cfa6020860182610c9e565b506040830151610d0d6040860182610cad565b506060830151610d206060860182610cbc565b508091505092915050565b5f610d368383610ccb565b905092915050565b5f602082019050919050565b5f610d5482610c2d565b610d5e8185610c37565b935083602082028501610d7085610c47565b805f5b85811015610dab5784840389528151610d8c8582610d2b565b9450610d9783610d3e565b925060208a01995050600181019050610d73565b50829750879550505050505092915050565b5f6020820190508181035f830152610dd58184610d4a565b905092915050565b610de681610a1a565b8114610df0575f80fd5b50565b5f81359050610e0181610ddd565b92915050565b5f805f60608486031215610e1e57610e1d6108b9565b5b5f84013567ffffffffffffffff811115610e3b57610e3a6108bd565b5b610e4786828701610b7b565b9350506020610e5886828701610df3565b9250506040610e6986828701610907565b9150509250925092565b7f4e487b71000000000000000000000000000000000000000000000000000000005f52602260045260245ffd5b5f6002820490506001821680610eb757607f821691505b602082108103610eca57610ec9610e73565b5b50919050565b7f596f7520617265206e6f74206f776e65720000000000000000000000000000005f82015250565b5f610f04601183610996565b9150610f0f82610ed0565b602082019050919050565b5f6020820190508181035f830152610f3181610ef8565b9050919050565b5f81905092915050565b5f610f4c8261098c565b610f568185610f38565b9350610f668185602086016109a6565b80840191505092915050565b5f610f7d8284610f42565b915081905092915050565b7f4e487b71000000000000000000000000000000000000000000000000000000005f52603260045260245ffd5b5f819050815f5260205f209050919050565b5f8154610fd381610ea0565b610fdd8186610f38565b9450600182165f8114610ff7576001811461100c5761103e565b60ff198316865281151582028601935061103e565b61101585610fb5565b5f5b8381101561103657815481890152600182019150602081019050611017565b838801955050505b50505092915050565b5f6110528284610fc7565b915081905092915050565b7f4e487b71000000000000000000000000000000000000000000000000000000005f52601160045260245ffd5b5f6110948261091b565b915061109f8361091b565b92508282039050818111156110b7576110b661105d565b5b92915050565b5f815490506110cb81610ea0565b9050919050565b5f6020601f8301049050919050565b5f82821b905092915050565b5f6008830261111c7fffffffffffffffffffffffffffffffffffffffffffffffffffffffffffffffff826110e1565b61112686836110e1565b95508019841693508086168417925050509392505050565b5f819050919050565b5f61116161115c6111578461091b565b61113e565b61091b565b9050919050565b5f819050919050565b61117a83611147565b61118e61118682611168565b8484546110ed565b825550505050565b5f90565b6111a2611196565b6111ad818484611171565b505050565b5b818110156111d0576111c55f8261119a565b6001810190506111b3565b5050565b601f821115611215576111e681610fb5565b6111ef846110d2565b810160208510156111fe578190505b61121261120a856110d2565b8301826111b2565b50505b505050565b5f82821c905092915050565b5f6112355f198460080261121a565b1980831691505092915050565b5f61124d8383611226565b9150826002028217905092915050565b81810361126b575050611340565b611274826110bd565b67ffffffffffffffff81111561128d5761128c610a84565b5b6112978254610ea0565b6112a28282856111d4565b5f601f8311600181146112cf575f84156112bd578287015490505b6112c78582611242565b865550611339565b601f1984166112dd87610fb5565b96506112e886610fb5565b5f5b8281101561130f578489015482556001820191506001850194506020810190506112ea565b8683101561132c5784890154611328601f891682611226565b8355505b6001600288020188555050505b5050505050505b565b7f4e487b71000000000000000000000000000000000000000000000000000000005f52603160045260245ffd5b5f6020820190508181035f83015261138781846109c4565b905092915050565b7f434944206e6f7420666f756e6420666f72207468652073656e646572000000005f82015250565b5f6113c3601c83610996565b91506113ce8261138f565b602082019050919050565b5f6020820190508181035f8301526113f0816113b7565b9050919050565b7f596f7520617265206e6f7420746865206f776e657221000000000000000000005f82015250565b5f61142b601683610996565b9150611436826113f7565b602082019050919050565b5f6020820190508181035f8301526114588161141f565b9050919050565b6114688261098c565b67ffffffffffffffff81111561148157611480610a84565b5b61148b8254610ea0565b6114968282856111d4565b5f60209050601f8311600181146114c7575f84156114b5578287015190505b6114bf8582611242565b865550611526565b601f1984166114d586610fb5565b5f5b828110156114fc578489015182556001820191506020850194506020810190506114d7565b868310156115195784890151611515601f891682611226565b8355505b6001600288020188555050505b505050505050565b5f6080820190508181035f83015261154681876109c4565b905061155560208301866109fc565b6115626040830185610a23565b61156f6060830184610a0b565b9594505050505056fea2646970667358221220d8d7beb669b9bcdc1790abc251f02991f0bed2e4193df0281a6510d59ef10fee64736f6c634300081a0033",
					"opcodes": "PUSH1 0x80 PUSH1 0x40 MSTORE CALLVALUE DUP1 ISZERO PUSH1 0xE JUMPI PUSH0 DUP1 REVERT JUMPDEST POP PUSH2 0x15AE DUP1 PUSH2 0x1C PUSH0 CODECOPY PUSH0 RETURN INVALID PUSH1 0x80 PUSH1 0x40 MSTORE CALLVALUE DUP1 ISZERO PUSH2 0xF JUMPI PUSH0 DUP1 REVERT JUMPDEST POP PUSH1 0x4 CALLDATASIZE LT PUSH2 0x49 JUMPI PUSH0 CALLDATALOAD PUSH1 0xE0 SHR DUP1 PUSH3 0x2E28A5 EQ PUSH2 0x4D JUMPI DUP1 PUSH4 0x379639ED EQ PUSH2 0x80 JUMPI DUP1 PUSH4 0x433BF37B EQ PUSH2 0x9C JUMPI DUP1 PUSH4 0xBF6BE7AF EQ PUSH2 0xCC JUMPI JUMPDEST PUSH0 DUP1 REVERT JUMPDEST PUSH2 0x67 PUSH1 0x4 DUP1 CALLDATASIZE SUB DUP2 ADD SWAP1 PUSH2 0x62 SWAP2 SWAP1 PUSH2 0x94E JUMP JUMPDEST PUSH2 0xE8 JUMP JUMPDEST PUSH1 0x40 MLOAD PUSH2 0x77 SWAP5 SWAP4 SWAP3 SWAP2 SWAP1 PUSH2 0xA32 JUMP JUMPDEST PUSH1 0x40 MLOAD DUP1 SWAP2 SUB SWAP1 RETURN JUMPDEST PUSH2 0x9A PUSH1 0x4 DUP1 CALLDATASIZE SUB DUP2 ADD SWAP1 PUSH2 0x95 SWAP2 SWAP1 PUSH2 0xBA8 JUMP JUMPDEST PUSH2 0x1D2 JUMP JUMPDEST STOP JUMPDEST PUSH2 0xB6 PUSH1 0x4 DUP1 CALLDATASIZE SUB DUP2 ADD SWAP1 PUSH2 0xB1 SWAP2 SWAP1 PUSH2 0xC02 JUMP JUMPDEST PUSH2 0x4F3 JUMP JUMPDEST PUSH1 0x40 MLOAD PUSH2 0xC3 SWAP2 SWAP1 PUSH2 0xDBD JUMP JUMPDEST PUSH1 0x40 MLOAD DUP1 SWAP2 SUB SWAP1 RETURN JUMPDEST PUSH2 0xE6 PUSH1 0x4 DUP1 CALLDATASIZE SUB DUP2 ADD SWAP1 PUSH2 0xE1 SWAP2 SWAP1 PUSH2 0xE07 JUMP JUMPDEST PUSH2 0x6F1 JUMP JUMPDEST STOP JUMPDEST PUSH0 PUSH1 0x20 MSTORE DUP2 PUSH0 MSTORE PUSH1 0x40 PUSH0 KECCAK256 DUP2 DUP2 SLOAD DUP2 LT PUSH2 0x100 JUMPI PUSH0 DUP1 REVERT JUMPDEST SWAP1 PUSH0 MSTORE PUSH1 0x20 PUSH0 KECCAK256 SWAP1 PUSH1 0x4 MUL ADD PUSH0 SWAP2 POP SWAP2 POP POP DUP1 PUSH0 ADD DUP1 SLOAD PUSH2 0x120 SWAP1 PUSH2 0xEA0 JUMP JUMPDEST DUP1 PUSH1 0x1F ADD PUSH1 0x20 DUP1 SWAP2 DIV MUL PUSH1 0x20 ADD PUSH1 0x40 MLOAD SWAP1 DUP2 ADD PUSH1 0x40 MSTORE DUP1 SWAP3 SWAP2 SWAP1 DUP2 DUP2 MSTORE PUSH1 0x20 ADD DUP3 DUP1 SLOAD PUSH2 0x14C SWAP1 PUSH2 0xEA0 JUMP JUMPDEST DUP1 ISZERO PUSH2 0x197 JUMPI DUP1 PUSH1 0x1F LT PUSH2 0x16E JUMPI PUSH2 0x100 DUP1 DUP4 SLOAD DIV MUL DUP4 MSTORE SWAP2 PUSH1 0x20 ADD SWAP2 PUSH2 0x197 JUMP JUMPDEST DUP3 ADD SWAP2 SWAP1 PUSH0 MSTORE PUSH1 0x20 PUSH0 KECCAK256 SWAP1 JUMPDEST DUP2 SLOAD DUP2 MSTORE SWAP1 PUSH1 0x1 ADD SWAP1 PUSH1 0x20 ADD DUP1 DUP4 GT PUSH2 0x17A JUMPI DUP3 SWAP1 SUB PUSH1 0x1F AND DUP3 ADD SWAP2 JUMPDEST POP POP POP POP POP SWAP1 DUP1 PUSH1 0x1 ADD PUSH0 SWAP1 SLOAD SWAP1 PUSH2 0x100 EXP SWAP1 DIV PUSH20 0xFFFFFFFFFFFFFFFFFFFFFFFFFFFFFFFFFFFFFFFF AND SWAP1 DUP1 PUSH1 0x2 ADD SLOAD SWAP1 DUP1 PUSH1 0x3 ADD SLOAD SWAP1 POP DUP5 JUMP JUMPDEST DUP2 PUSH20 0xFFFFFFFFFFFFFFFFFFFFFFFFFFFFFFFFFFFFFFFF AND CALLER PUSH20 0xFFFFFFFFFFFFFFFFFFFFFFFFFFFFFFFFFFFFFFFF AND EQ PUSH2 0x240 JUMPI PUSH1 0x40 MLOAD PUSH32 0x8C379A000000000000000000000000000000000000000000000000000000000 DUP2 MSTORE PUSH1 0x4 ADD PUSH2 0x237 SWAP1 PUSH2 0xF1A JUMP JUMPDEST PUSH1 0x40 MLOAD DUP1 SWAP2 SUB SWAP1 REVERT JUMPDEST PUSH0 DUP1 PUSH0 CALLER PUSH20 0xFFFFFFFFFFFFFFFFFFFFFFFFFFFFFFFFFFFFFFFF AND PUSH20 0xFFFFFFFFFFFFFFFFFFFFFFFFFFFFFFFFFFFFFFFF AND DUP2 MSTORE PUSH1 0x20 ADD SWAP1 DUP2 MSTORE PUSH1 0x20 ADD PUSH0 KECCAK256 SWAP1 POP PUSH0 DUP1 JUMPDEST DUP3 DUP1 SLOAD SWAP1 POP DUP2 LT ISZERO PUSH2 0x4AC JUMPI DUP4 PUSH1 0x40 MLOAD PUSH1 0x20 ADD PUSH2 0x29F SWAP2 SWAP1 PUSH2 0xF72 JUMP JUMPDEST PUSH1 0x40 MLOAD PUSH1 0x20 DUP2 DUP4 SUB SUB DUP2 MSTORE SWAP1 PUSH1 0x40 MSTORE DUP1 MLOAD SWAP1 PUSH1 0x20 ADD KECCAK256 DUP4 DUP3 DUP2 SLOAD DUP2 LT PUSH2 0x2C8 JUMPI PUSH2 0x2C7 PUSH2 0xF88 JUMP JUMPDEST JUMPDEST SWAP1 PUSH0 MSTORE PUSH1 0x20 PUSH0 KECCAK256 SWAP1 PUSH1 0x4 MUL ADD PUSH0 ADD PUSH1 0x40 MLOAD PUSH1 0x20 ADD PUSH2 0x2E6 SWAP2 SWAP1 PUSH2 0x1047 JUMP JUMPDEST PUSH1 0x40 MLOAD PUSH1 0x20 DUP2 DUP4 SUB SUB DUP2 MSTORE SWAP1 PUSH1 0x40 MSTORE DUP1 MLOAD SWAP1 PUSH1 0x20 ADD KECCAK256 SUB PUSH2 0x49F JUMPI DUP3 PUSH1 0x1 DUP5 DUP1 SLOAD SWAP1 POP PUSH2 0x313 SWAP2 SWAP1 PUSH2 0x108A JUMP JUMPDEST DUP2 SLOAD DUP2 LT PUSH2 0x324 JUMPI PUSH2 0x323 PUSH2 0xF88 JUMP JUMPDEST JUMPDEST SWAP1 PUSH0 MSTORE PUSH1 0x20 PUSH0 KECCAK256 SWAP1 PUSH1 0x4 MUL ADD DUP4 DUP3 DUP2 SLOAD DUP2 LT PUSH2 0x343 JUMPI PUSH2 0x342 PUSH2 0xF88 JUMP JUMPDEST JUMPDEST SWAP1 PUSH0 MSTORE PUSH1 0x20 PUSH0 KECCAK256 SWAP1 PUSH1 0x4 MUL ADD PUSH0 DUP3 ADD DUP2 PUSH0 ADD SWAP1 DUP2 PUSH2 0x361 SWAP2 SWAP1 PUSH2 0x125D JUMP JUMPDEST POP PUSH1 0x1 DUP3 ADD PUSH0 SWAP1 SLOAD SWAP1 PUSH2 0x100 EXP SWAP1 DIV PUSH20 0xFFFFFFFFFFFFFFFFFFFFFFFFFFFFFFFFFFFFFFFF AND DUP2 PUSH1 0x1 ADD PUSH0 PUSH2 0x100 EXP DUP2 SLOAD DUP2 PUSH20 0xFFFFFFFFFFFFFFFFFFFFFFFFFFFFFFFFFFFFFFFF MUL NOT AND SWAP1 DUP4 PUSH20 0xFFFFFFFFFFFFFFFFFFFFFFFFFFFFFFFFFFFFFFFF AND MUL OR SWAP1 SSTORE POP PUSH1 0x2 DUP3 ADD SLOAD DUP2 PUSH1 0x2 ADD SSTORE PUSH1 0x3 DUP3 ADD SLOAD DUP2 PUSH1 0x3 ADD SSTORE SWAP1 POP POP DUP3 DUP1 SLOAD DUP1 PUSH2 0x3EF JUMPI PUSH2 0x3EE PUSH2 0x1342 JUMP JUMPDEST JUMPDEST PUSH1 0x1 SWAP1 SUB DUP2 DUP2 SWAP1 PUSH0 MSTORE PUSH1 0x20 PUSH0 KECCAK256 SWAP1 PUSH1 0x4 MUL ADD PUSH0 DUP1 DUP3 ADD PUSH0 PUSH2 0x410 SWAP2 SWAP1 PUSH2 0x858 JUMP JUMPDEST PUSH1 0x1 DUP3 ADD PUSH0 PUSH2 0x100 EXP DUP2 SLOAD SWAP1 PUSH20 0xFFFFFFFFFFFFFFFFFFFFFFFFFFFFFFFFFFFFFFFF MUL NOT AND SWAP1 SSTORE PUSH1 0x2 DUP3 ADD PUSH0 SWAP1 SSTORE PUSH1 0x3 DUP3 ADD PUSH0 SWAP1 SSTORE POP POP SWAP1 SSTORE PUSH1 0x1 SWAP2 POP CALLER PUSH20 0xFFFFFFFFFFFFFFFFFFFFFFFFFFFFFFFFFFFFFFFF AND PUSH32 0xEC53ACEE17E291D4C2113D26EE57D287301F82FAFA5871C806185942DF36FBDF DUP6 PUSH1 0x40 MLOAD PUSH2 0x492 SWAP2 SWAP1 PUSH2 0x136F JUMP JUMPDEST PUSH1 0x40 MLOAD DUP1 SWAP2 SUB SWAP1 LOG2 PUSH2 0x4AC JUMP JUMPDEST DUP1 DUP1 PUSH1 0x1 ADD SWAP2 POP POP PUSH2 0x282 JUMP JUMPDEST POP DUP1 PUSH2 0x4ED JUMPI PUSH1 0x40 MLOAD PUSH32 0x8C379A000000000000000000000000000000000000000000000000000000000 DUP2 MSTORE PUSH1 0x4 ADD PUSH2 0x4E4 SWAP1 PUSH2 0x13D9 JUMP JUMPDEST PUSH1 0x40 MLOAD DUP1 SWAP2 SUB SWAP1 REVERT JUMPDEST POP POP POP POP JUMP JUMPDEST PUSH1 0x60 CALLER PUSH20 0xFFFFFFFFFFFFFFFFFFFFFFFFFFFFFFFFFFFFFFFF AND DUP3 PUSH20 0xFFFFFFFFFFFFFFFFFFFFFFFFFFFFFFFFFFFFFFFF AND EQ PUSH2 0x563 JUMPI PUSH1 0x40 MLOAD PUSH32 0x8C379A000000000000000000000000000000000000000000000000000000000 DUP2 MSTORE PUSH1 0x4 ADD PUSH2 0x55A SWAP1 PUSH2 0x1441 JUMP JUMPDEST PUSH1 0x40 MLOAD DUP1 SWAP2 SUB SWAP1 REVERT JUMPDEST PUSH0 DUP1 DUP4 PUSH20 0xFFFFFFFFFFFFFFFFFFFFFFFFFFFFFFFFFFFFFFFF AND PUSH20 0xFFFFFFFFFFFFFFFFFFFFFFFFFFFFFFFFFFFFFFFF AND DUP2 MSTORE PUSH1 0x20 ADD SWAP1 DUP2 MSTORE PUSH1 0x20 ADD PUSH0 KECCAK256 DUP1 SLOAD DUP1 PUSH1 0x20 MUL PUSH1 0x20 ADD PUSH1 0x40 MLOAD SWAP1 DUP2 ADD PUSH1 0x40 MSTORE DUP1 SWAP3 SWAP2 SWAP1 DUP2 DUP2 MSTORE PUSH1 0x20 ADD PUSH0 SWAP1 JUMPDEST DUP3 DUP3 LT ISZERO PUSH2 0x6E6 JUMPI DUP4 DUP3 SWAP1 PUSH0 MSTORE PUSH1 0x20 PUSH0 KECCAK256 SWAP1 PUSH1 0x4 MUL ADD PUSH1 0x40 MLOAD DUP1 PUSH1 0x80 ADD PUSH1 0x40 MSTORE SWAP1 DUP2 PUSH0 DUP3 ADD DUP1 SLOAD PUSH2 0x5EE SWAP1 PUSH2 0xEA0 JUMP JUMPDEST DUP1 PUSH1 0x1F ADD PUSH1 0x20 DUP1 SWAP2 DIV MUL PUSH1 0x20 ADD PUSH1 0x40 MLOAD SWAP1 DUP2 ADD PUSH1 0x40 MSTORE DUP1 SWAP3 SWAP2 SWAP1 DUP2 DUP2 MSTORE PUSH1 0x20 ADD DUP3 DUP1 SLOAD PUSH2 0x61A SWAP1 PUSH2 0xEA0 JUMP JUMPDEST DUP1 ISZERO PUSH2 0x665 JUMPI DUP1 PUSH1 0x1F LT PUSH2 0x63C JUMPI PUSH2 0x100 DUP1 DUP4 SLOAD DIV MUL DUP4 MSTORE SWAP2 PUSH1 0x20 ADD SWAP2 PUSH2 0x665 JUMP JUMPDEST DUP3 ADD SWAP2 SWAP1 PUSH0 MSTORE PUSH1 0x20 PUSH0 KECCAK256 SWAP1 JUMPDEST DUP2 SLOAD DUP2 MSTORE SWAP1 PUSH1 0x1 ADD SWAP1 PUSH1 0x20 ADD DUP1 DUP4 GT PUSH2 0x648 JUMPI DUP3 SWAP1 SUB PUSH1 0x1F AND DUP3 ADD SWAP2 JUMPDEST POP POP POP POP POP DUP2 MSTORE PUSH1 0x20 ADD PUSH1 0x1 DUP3 ADD PUSH0 SWAP1 SLOAD SWAP1 PUSH2 0x100 EXP SWAP1 DIV PUSH20 0xFFFFFFFFFFFFFFFFFFFFFFFFFFFFFFFFFFFFFFFF AND PUSH20 0xFFFFFFFFFFFFFFFFFFFFFFFFFFFFFFFFFFFFFFFF AND PUSH20 0xFFFFFFFFFFFFFFFFFFFFFFFFFFFFFFFFFFFFFFFF AND DUP2 MSTORE PUSH1 0x20 ADD PUSH1 0x2 DUP3 ADD SLOAD DUP2 MSTORE PUSH1 0x20 ADD PUSH1 0x3 DUP3 ADD SLOAD DUP2 MSTORE POP POP DUP2 MSTORE PUSH1 0x20 ADD SWAP1 PUSH1 0x1 ADD SWAP1 PUSH2 0x5BE JUMP JUMPDEST POP POP POP POP SWAP1 POP SWAP2 SWAP1 POP JUMP JUMPDEST PUSH0 PUSH1 0x40 MLOAD DUP1 PUSH1 0x80 ADD PUSH1 0x40 MSTORE DUP1 DUP6 DUP2 MSTORE PUSH1 0x20 ADD CALLER PUSH20 0xFFFFFFFFFFFFFFFFFFFFFFFFFFFFFFFFFFFFFFFF AND DUP2 MSTORE PUSH1 0x20 ADD TIMESTAMP DUP2 MSTORE PUSH1 0x20 ADD DUP5 DUP2 MSTORE POP SWAP1 POP PUSH0 DUP1 DUP4 PUSH20 0xFFFFFFFFFFFFFFFFFFFFFFFFFFFFFFFFFFFFFFFF AND PUSH20 0xFFFFFFFFFFFFFFFFFFFFFFFFFFFFFFFFFFFFFFFF AND DUP2 MSTORE PUSH1 0x20 ADD SWAP1 DUP2 MSTORE PUSH1 0x20 ADD PUSH0 KECCAK256 DUP2 SWAP1 DUP1 PUSH1 0x1 DUP2 SLOAD ADD DUP1 DUP3 SSTORE DUP1 SWAP2 POP POP PUSH1 0x1 SWAP1 SUB SWAP1 PUSH0 MSTORE PUSH1 0x20 PUSH0 KECCAK256 SWAP1 PUSH1 0x4 MUL ADD PUSH0 SWAP1 SWAP2 SWAP1 SWAP2 SWAP1 SWAP2 POP PUSH0 DUP3 ADD MLOAD DUP2 PUSH0 ADD SWAP1 DUP2 PUSH2 0x7A1 SWAP2 SWAP1 PUSH2 0x145F JUMP JUMPDEST POP PUSH1 0x20 DUP3 ADD MLOAD DUP2 PUSH1 0x1 ADD PUSH0 PUSH2 0x100 EXP DUP2 SLOAD DUP2 PUSH20 0xFFFFFFFFFFFFFFFFFFFFFFFFFFFFFFFFFFFFFFFF MUL NOT AND SWAP1 DUP4 PUSH20 0xFFFFFFFFFFFFFFFFFFFFFFFFFFFFFFFFFFFFFFFF AND MUL OR SWAP1 SSTORE POP PUSH1 0x40 DUP3 ADD MLOAD DUP2 PUSH1 0x2 ADD SSTORE PUSH1 0x60 DUP3 ADD MLOAD DUP2 PUSH1 0x3 ADD SSTORE POP POP DUP2 PUSH20 0xFFFFFFFFFFFFFFFFFFFFFFFFFFFFFFFFFFFFFFFF AND PUSH32 0x9E579EA0C4DA0F88F445FC1CA29E6141A190D5AD059C58931481738EEBDDFB03 DUP6 CALLER DUP7 TIMESTAMP PUSH1 0x40 MLOAD PUSH2 0x84A SWAP5 SWAP4 SWAP3 SWAP2 SWAP1 PUSH2 0x152E JUMP JUMPDEST PUSH1 0x40 MLOAD DUP1 SWAP2 SUB SWAP1 LOG2 POP POP POP POP JUMP JUMPDEST POP DUP1 SLOAD PUSH2 0x864 SWAP1 PUSH2 0xEA0 JUMP JUMPDEST PUSH0 DUP3 SSTORE DUP1 PUSH1 0x1F LT PUSH2 0x875 JUMPI POP PUSH2 0x892 JUMP JUMPDEST PUSH1 0x1F ADD PUSH1 0x20 SWAP1 DIV SWAP1 PUSH0 MSTORE PUSH1 0x20 PUSH0 KECCAK256 SWAP1 DUP2 ADD SWAP1 PUSH2 0x891 SWAP2 SWAP1 PUSH2 0x895 JUMP JUMPDEST JUMPDEST POP JUMP JUMPDEST JUMPDEST DUP1 DUP3 GT ISZERO PUSH2 0x8AC JUMPI PUSH0 DUP2 PUSH0 SWAP1 SSTORE POP PUSH1 0x1 ADD PUSH2 0x896 JUMP JUMPDEST POP SWAP1 JUMP JUMPDEST PUSH0 PUSH1 0x40 MLOAD SWAP1 POP SWAP1 JUMP JUMPDEST PUSH0 DUP1 REVERT JUMPDEST PUSH0 DUP1 REVERT JUMPDEST PUSH0 PUSH20 0xFFFFFFFFFFFFFFFFFFFFFFFFFFFFFFFFFFFFFFFF DUP3 AND SWAP1 POP SWAP2 SWAP1 POP JUMP JUMPDEST PUSH0 PUSH2 0x8EA DUP3 PUSH2 0x8C1 JUMP JUMPDEST SWAP1 POP SWAP2 SWAP1 POP JUMP JUMPDEST PUSH2 0x8FA DUP2 PUSH2 0x8E0 JUMP JUMPDEST DUP2 EQ PUSH2 0x904 JUMPI PUSH0 DUP1 REVERT JUMPDEST POP JUMP JUMPDEST PUSH0 DUP2 CALLDATALOAD SWAP1 POP PUSH2 0x915 DUP2 PUSH2 0x8F1 JUMP JUMPDEST SWAP3 SWAP2 POP POP JUMP JUMPDEST PUSH0 DUP2 SWAP1 POP SWAP2 SWAP1 POP JUMP JUMPDEST PUSH2 0x92D DUP2 PUSH2 0x91B JUMP JUMPDEST DUP2 EQ PUSH2 0x937 JUMPI PUSH0 DUP1 REVERT JUMPDEST POP JUMP JUMPDEST PUSH0 DUP2 CALLDATALOAD SWAP1 POP PUSH2 0x948 DUP2 PUSH2 0x924 JUMP JUMPDEST SWAP3 SWAP2 POP POP JUMP JUMPDEST PUSH0 DUP1 PUSH1 0x40 DUP4 DUP6 SUB SLT ISZERO PUSH2 0x964 JUMPI PUSH2 0x963 PUSH2 0x8B9 JUMP JUMPDEST JUMPDEST PUSH0 PUSH2 0x971 DUP6 DUP3 DUP7 ADD PUSH2 0x907 JUMP JUMPDEST SWAP3 POP POP PUSH1 0x20 PUSH2 0x982 DUP6 DUP3 DUP7 ADD PUSH2 0x93A JUMP JUMPDEST SWAP2 POP POP SWAP3 POP SWAP3 SWAP1 POP JUMP JUMPDEST PUSH0 DUP2 MLOAD SWAP1 POP SWAP2 SWAP1 POP JUMP JUMPDEST PUSH0 DUP3 DUP3 MSTORE PUSH1 0x20 DUP3 ADD SWAP1 POP SWAP3 SWAP2 POP POP JUMP JUMPDEST DUP3 DUP2 DUP4 MCOPY PUSH0 DUP4 DUP4 ADD MSTORE POP POP POP JUMP JUMPDEST PUSH0 PUSH1 0x1F NOT PUSH1 0x1F DUP4 ADD AND SWAP1 POP SWAP2 SWAP1 POP JUMP JUMPDEST PUSH0 PUSH2 0x9CE DUP3 PUSH2 0x98C JUMP JUMPDEST PUSH2 0x9D8 DUP2 DUP6 PUSH2 0x996 JUMP JUMPDEST SWAP4 POP PUSH2 0x9E8 DUP2 DUP6 PUSH1 0x20 DUP7 ADD PUSH2 0x9A6 JUMP JUMPDEST PUSH2 0x9F1 DUP2 PUSH2 0x9B4 JUMP JUMPDEST DUP5 ADD SWAP2 POP POP SWAP3 SWAP2 POP POP JUMP JUMPDEST PUSH2 0xA05 DUP2 PUSH2 0x8E0 JUMP JUMPDEST DUP3 MSTORE POP POP JUMP JUMPDEST PUSH2 0xA14 DUP2 PUSH2 0x91B JUMP JUMPDEST DUP3 MSTORE POP POP JUMP JUMPDEST PUSH0 DUP2 SWAP1 POP SWAP2 SWAP1 POP JUMP JUMPDEST PUSH2 0xA2C DUP2 PUSH2 0xA1A JUMP JUMPDEST DUP3 MSTORE POP POP JUMP JUMPDEST PUSH0 PUSH1 0x80 DUP3 ADD SWAP1 POP DUP2 DUP2 SUB PUSH0 DUP4 ADD MSTORE PUSH2 0xA4A DUP2 DUP8 PUSH2 0x9C4 JUMP JUMPDEST SWAP1 POP PUSH2 0xA59 PUSH1 0x20 DUP4 ADD DUP7 PUSH2 0x9FC JUMP JUMPDEST PUSH2 0xA66 PUSH1 0x40 DUP4 ADD DUP6 PUSH2 0xA0B JUMP JUMPDEST PUSH2 0xA73 PUSH1 0x60 DUP4 ADD DUP5 PUSH2 0xA23 JUMP JUMPDEST SWAP6 SWAP5 POP POP POP POP POP JUMP JUMPDEST PUSH0 DUP1 REVERT JUMPDEST PUSH0 DUP1 REVERT JUMPDEST PUSH32 0x4E487B7100000000000000000000000000000000000000000000000000000000 PUSH0 MSTORE PUSH1 0x41 PUSH1 0x4 MSTORE PUSH1 0x24 PUSH0 REVERT JUMPDEST PUSH2 0xABA DUP3 PUSH2 0x9B4 JUMP JUMPDEST DUP2 ADD DUP2 DUP2 LT PUSH8 0xFFFFFFFFFFFFFFFF DUP3 GT OR ISZERO PUSH2 0xAD9 JUMPI PUSH2 0xAD8 PUSH2 0xA84 JUMP JUMPDEST JUMPDEST DUP1 PUSH1 0x40 MSTORE POP POP POP JUMP JUMPDEST PUSH0 PUSH2 0xAEB PUSH2 0x8B0 JUMP JUMPDEST SWAP1 POP PUSH2 0xAF7 DUP3 DUP3 PUSH2 0xAB1 JUMP JUMPDEST SWAP2 SWAP1 POP JUMP JUMPDEST PUSH0 PUSH8 0xFFFFFFFFFFFFFFFF DUP3 GT ISZERO PUSH2 0xB16 JUMPI PUSH2 0xB15 PUSH2 0xA84 JUMP JUMPDEST JUMPDEST PUSH2 0xB1F DUP3 PUSH2 0x9B4 JUMP JUMPDEST SWAP1 POP PUSH1 0x20 DUP2 ADD SWAP1 POP SWAP2 SWAP1 POP JUMP JUMPDEST DUP3 DUP2 DUP4 CALLDATACOPY PUSH0 DUP4 DUP4 ADD MSTORE POP POP POP JUMP JUMPDEST PUSH0 PUSH2 0xB4C PUSH2 0xB47 DUP5 PUSH2 0xAFC JUMP JUMPDEST PUSH2 0xAE2 JUMP JUMPDEST SWAP1 POP DUP3 DUP2 MSTORE PUSH1 0x20 DUP2 ADD DUP5 DUP5 DUP5 ADD GT ISZERO PUSH2 0xB68 JUMPI PUSH2 0xB67 PUSH2 0xA80 JUMP JUMPDEST JUMPDEST PUSH2 0xB73 DUP5 DUP3 DUP6 PUSH2 0xB2C JUMP JUMPDEST POP SWAP4 SWAP3 POP POP POP JUMP JUMPDEST PUSH0 DUP3 PUSH1 0x1F DUP4 ADD SLT PUSH2 0xB8F JUMPI PUSH2 0xB8E PUSH2 0xA7C JUMP JUMPDEST JUMPDEST DUP2 CALLDATALOAD PUSH2 0xB9F DUP5 DUP3 PUSH1 0x20 DUP7 ADD PUSH2 0xB3A JUMP JUMPDEST SWAP2 POP POP SWAP3 SWAP2 POP POP JUMP JUMPDEST PUSH0 DUP1 PUSH1 0x40 DUP4 DUP6 SUB SLT ISZERO PUSH2 0xBBE JUMPI PUSH2 0xBBD PUSH2 0x8B9 JUMP JUMPDEST JUMPDEST PUSH0 PUSH2 0xBCB DUP6 DUP3 DUP7 ADD PUSH2 0x907 JUMP JUMPDEST SWAP3 POP POP PUSH1 0x20 DUP4 ADD CALLDATALOAD PUSH8 0xFFFFFFFFFFFFFFFF DUP2 GT ISZERO PUSH2 0xBEC JUMPI PUSH2 0xBEB PUSH2 0x8BD JUMP JUMPDEST JUMPDEST PUSH2 0xBF8 DUP6 DUP3 DUP7 ADD PUSH2 0xB7B JUMP JUMPDEST SWAP2 POP POP SWAP3 POP SWAP3 SWAP1 POP JUMP JUMPDEST PUSH0 PUSH1 0x20 DUP3 DUP5 SUB SLT ISZERO PUSH2 0xC17 JUMPI PUSH2 0xC16 PUSH2 0x8B9 JUMP JUMPDEST JUMPDEST PUSH0 PUSH2 0xC24 DUP5 DUP3 DUP6 ADD PUSH2 0x907 JUMP JUMPDEST SWAP2 POP POP SWAP3 SWAP2 POP POP JUMP JUMPDEST PUSH0 DUP2 MLOAD SWAP1 POP SWAP2 SWAP1 POP JUMP JUMPDEST PUSH0 DUP3 DUP3 MSTORE PUSH1 0x20 DUP3 ADD SWAP1 POP SWAP3 SWAP2 POP POP JUMP JUMPDEST PUSH0 DUP2 SWAP1 POP PUSH1 0x20 DUP3 ADD SWAP1 POP SWAP2 SWAP1 POP JUMP JUMPDEST PUSH0 DUP3 DUP3 MSTORE PUSH1 0x20 DUP3 ADD SWAP1 POP SWAP3 SWAP2 POP POP JUMP JUMPDEST PUSH0 PUSH2 0xC70 DUP3 PUSH2 0x98C JUMP JUMPDEST PUSH2 0xC7A DUP2 DUP6 PUSH2 0xC56 JUMP JUMPDEST SWAP4 POP PUSH2 0xC8A DUP2 DUP6 PUSH1 0x20 DUP7 ADD PUSH2 0x9A6 JUMP JUMPDEST PUSH2 0xC93 DUP2 PUSH2 0x9B4 JUMP JUMPDEST DUP5 ADD SWAP2 POP POP SWAP3 SWAP2 POP POP JUMP JUMPDEST PUSH2 0xCA7 DUP2 PUSH2 0x8E0 JUMP JUMPDEST DUP3 MSTORE POP POP JUMP JUMPDEST PUSH2 0xCB6 DUP2 PUSH2 0x91B JUMP JUMPDEST DUP3 MSTORE POP POP JUMP JUMPDEST PUSH2 0xCC5 DUP2 PUSH2 0xA1A JUMP JUMPDEST DUP3 MSTORE POP POP JUMP JUMPDEST PUSH0 PUSH1 0x80 DUP4 ADD PUSH0 DUP4 ADD MLOAD DUP5 DUP3 SUB PUSH0 DUP7 ADD MSTORE PUSH2 0xCE5 DUP3 DUP3 PUSH2 0xC66 JUMP JUMPDEST SWAP2 POP POP PUSH1 0x20 DUP4 ADD MLOAD PUSH2 0xCFA PUSH1 0x20 DUP7 ADD DUP3 PUSH2 0xC9E JUMP JUMPDEST POP PUSH1 0x40 DUP4 ADD MLOAD PUSH2 0xD0D PUSH1 0x40 DUP7 ADD DUP3 PUSH2 0xCAD JUMP JUMPDEST POP PUSH1 0x60 DUP4 ADD MLOAD PUSH2 0xD20 PUSH1 0x60 DUP7 ADD DUP3 PUSH2 0xCBC JUMP JUMPDEST POP DUP1 SWAP2 POP POP SWAP3 SWAP2 POP POP JUMP JUMPDEST PUSH0 PUSH2 0xD36 DUP4 DUP4 PUSH2 0xCCB JUMP JUMPDEST SWAP1 POP SWAP3 SWAP2 POP POP JUMP JUMPDEST PUSH0 PUSH1 0x20 DUP3 ADD SWAP1 POP SWAP2 SWAP1 POP JUMP JUMPDEST PUSH0 PUSH2 0xD54 DUP3 PUSH2 0xC2D JUMP JUMPDEST PUSH2 0xD5E DUP2 DUP6 PUSH2 0xC37 JUMP JUMPDEST SWAP4 POP DUP4 PUSH1 0x20 DUP3 MUL DUP6 ADD PUSH2 0xD70 DUP6 PUSH2 0xC47 JUMP JUMPDEST DUP1 PUSH0 JUMPDEST DUP6 DUP2 LT ISZERO PUSH2 0xDAB JUMPI DUP5 DUP5 SUB DUP10 MSTORE DUP2 MLOAD PUSH2 0xD8C DUP6 DUP3 PUSH2 0xD2B JUMP JUMPDEST SWAP5 POP PUSH2 0xD97 DUP4 PUSH2 0xD3E JUMP JUMPDEST SWAP3 POP PUSH1 0x20 DUP11 ADD SWAP10 POP POP PUSH1 0x1 DUP2 ADD SWAP1 POP PUSH2 0xD73 JUMP JUMPDEST POP DUP3 SWAP8 POP DUP8 SWAP6 POP POP POP POP POP POP SWAP3 SWAP2 POP POP JUMP JUMPDEST PUSH0 PUSH1 0x20 DUP3 ADD SWAP1 POP DUP2 DUP2 SUB PUSH0 DUP4 ADD MSTORE PUSH2 0xDD5 DUP2 DUP5 PUSH2 0xD4A JUMP JUMPDEST SWAP1 POP SWAP3 SWAP2 POP POP JUMP JUMPDEST PUSH2 0xDE6 DUP2 PUSH2 0xA1A JUMP JUMPDEST DUP2 EQ PUSH2 0xDF0 JUMPI PUSH0 DUP1 REVERT JUMPDEST POP JUMP JUMPDEST PUSH0 DUP2 CALLDATALOAD SWAP1 POP PUSH2 0xE01 DUP2 PUSH2 0xDDD JUMP JUMPDEST SWAP3 SWAP2 POP POP JUMP JUMPDEST PUSH0 DUP1 PUSH0 PUSH1 0x60 DUP5 DUP7 SUB SLT ISZERO PUSH2 0xE1E JUMPI PUSH2 0xE1D PUSH2 0x8B9 JUMP JUMPDEST JUMPDEST PUSH0 DUP5 ADD CALLDATALOAD PUSH8 0xFFFFFFFFFFFFFFFF DUP2 GT ISZERO PUSH2 0xE3B JUMPI PUSH2 0xE3A PUSH2 0x8BD JUMP JUMPDEST JUMPDEST PUSH2 0xE47 DUP7 DUP3 DUP8 ADD PUSH2 0xB7B JUMP JUMPDEST SWAP4 POP POP PUSH1 0x20 PUSH2 0xE58 DUP7 DUP3 DUP8 ADD PUSH2 0xDF3 JUMP JUMPDEST SWAP3 POP POP PUSH1 0x40 PUSH2 0xE69 DUP7 DUP3 DUP8 ADD PUSH2 0x907 JUMP JUMPDEST SWAP2 POP POP SWAP3 POP SWAP3 POP SWAP3 JUMP JUMPDEST PUSH32 0x4E487B7100000000000000000000000000000000000000000000000000000000 PUSH0 MSTORE PUSH1 0x22 PUSH1 0x4 MSTORE PUSH1 0x24 PUSH0 REVERT JUMPDEST PUSH0 PUSH1 0x2 DUP3 DIV SWAP1 POP PUSH1 0x1 DUP3 AND DUP1 PUSH2 0xEB7 JUMPI PUSH1 0x7F DUP3 AND SWAP2 POP JUMPDEST PUSH1 0x20 DUP3 LT DUP2 SUB PUSH2 0xECA JUMPI PUSH2 0xEC9 PUSH2 0xE73 JUMP JUMPDEST JUMPDEST POP SWAP2 SWAP1 POP JUMP JUMPDEST PUSH32 0x596F7520617265206E6F74206F776E6572000000000000000000000000000000 PUSH0 DUP3 ADD MSTORE POP JUMP JUMPDEST PUSH0 PUSH2 0xF04 PUSH1 0x11 DUP4 PUSH2 0x996 JUMP JUMPDEST SWAP2 POP PUSH2 0xF0F DUP3 PUSH2 0xED0 JUMP JUMPDEST PUSH1 0x20 DUP3 ADD SWAP1 POP SWAP2 SWAP1 POP JUMP JUMPDEST PUSH0 PUSH1 0x20 DUP3 ADD SWAP1 POP DUP2 DUP2 SUB PUSH0 DUP4 ADD MSTORE PUSH2 0xF31 DUP2 PUSH2 0xEF8 JUMP JUMPDEST SWAP1 POP SWAP2 SWAP1 POP JUMP JUMPDEST PUSH0 DUP2 SWAP1 POP SWAP3 SWAP2 POP POP JUMP JUMPDEST PUSH0 PUSH2 0xF4C DUP3 PUSH2 0x98C JUMP JUMPDEST PUSH2 0xF56 DUP2 DUP6 PUSH2 0xF38 JUMP JUMPDEST SWAP4 POP PUSH2 0xF66 DUP2 DUP6 PUSH1 0x20 DUP7 ADD PUSH2 0x9A6 JUMP JUMPDEST DUP1 DUP5 ADD SWAP2 POP POP SWAP3 SWAP2 POP POP JUMP JUMPDEST PUSH0 PUSH2 0xF7D DUP3 DUP5 PUSH2 0xF42 JUMP JUMPDEST SWAP2 POP DUP2 SWAP1 POP SWAP3 SWAP2 POP POP JUMP JUMPDEST PUSH32 0x4E487B7100000000000000000000000000000000000000000000000000000000 PUSH0 MSTORE PUSH1 0x32 PUSH1 0x4 MSTORE PUSH1 0x24 PUSH0 REVERT JUMPDEST PUSH0 DUP2 SWAP1 POP DUP2 PUSH0 MSTORE PUSH1 0x20 PUSH0 KECCAK256 SWAP1 POP SWAP2 SWAP1 POP JUMP JUMPDEST PUSH0 DUP2 SLOAD PUSH2 0xFD3 DUP2 PUSH2 0xEA0 JUMP JUMPDEST PUSH2 0xFDD DUP2 DUP7 PUSH2 0xF38 JUMP JUMPDEST SWAP5 POP PUSH1 0x1 DUP3 AND PUSH0 DUP2 EQ PUSH2 0xFF7 JUMPI PUSH1 0x1 DUP2 EQ PUSH2 0x100C JUMPI PUSH2 0x103E JUMP JUMPDEST PUSH1 0xFF NOT DUP4 AND DUP7 MSTORE DUP2 ISZERO ISZERO DUP3 MUL DUP7 ADD SWAP4 POP PUSH2 0x103E JUMP JUMPDEST PUSH2 0x1015 DUP6 PUSH2 0xFB5 JUMP JUMPDEST PUSH0 JUMPDEST DUP4 DUP2 LT ISZERO PUSH2 0x1036 JUMPI DUP2 SLOAD DUP2 DUP10 ADD MSTORE PUSH1 0x1 DUP3 ADD SWAP2 POP PUSH1 0x20 DUP2 ADD SWAP1 POP PUSH2 0x1017 JUMP JUMPDEST DUP4 DUP9 ADD SWAP6 POP POP POP JUMPDEST POP POP POP SWAP3 SWAP2 POP POP JUMP JUMPDEST PUSH0 PUSH2 0x1052 DUP3 DUP5 PUSH2 0xFC7 JUMP JUMPDEST SWAP2 POP DUP2 SWAP1 POP SWAP3 SWAP2 POP POP JUMP JUMPDEST PUSH32 0x4E487B7100000000000000000000000000000000000000000000000000000000 PUSH0 MSTORE PUSH1 0x11 PUSH1 0x4 MSTORE PUSH1 0x24 PUSH0 REVERT JUMPDEST PUSH0 PUSH2 0x1094 DUP3 PUSH2 0x91B JUMP JUMPDEST SWAP2 POP PUSH2 0x109F DUP4 PUSH2 0x91B JUMP JUMPDEST SWAP3 POP DUP3 DUP3 SUB SWAP1 POP DUP2 DUP2 GT ISZERO PUSH2 0x10B7 JUMPI PUSH2 0x10B6 PUSH2 0x105D JUMP JUMPDEST JUMPDEST SWAP3 SWAP2 POP POP JUMP JUMPDEST PUSH0 DUP2 SLOAD SWAP1 POP PUSH2 0x10CB DUP2 PUSH2 0xEA0 JUMP JUMPDEST SWAP1 POP SWAP2 SWAP1 POP JUMP JUMPDEST PUSH0 PUSH1 0x20 PUSH1 0x1F DUP4 ADD DIV SWAP1 POP SWAP2 SWAP1 POP JUMP JUMPDEST PUSH0 DUP3 DUP3 SHL SWAP1 POP SWAP3 SWAP2 POP POP JUMP JUMPDEST PUSH0 PUSH1 0x8 DUP4 MUL PUSH2 0x111C PUSH32 0xFFFFFFFFFFFFFFFFFFFFFFFFFFFFFFFFFFFFFFFFFFFFFFFFFFFFFFFFFFFFFFFF DUP3 PUSH2 0x10E1 JUMP JUMPDEST PUSH2 0x1126 DUP7 DUP4 PUSH2 0x10E1 JUMP JUMPDEST SWAP6 POP DUP1 NOT DUP5 AND SWAP4 POP DUP1 DUP7 AND DUP5 OR SWAP3 POP POP POP SWAP4 SWAP3 POP POP POP JUMP JUMPDEST PUSH0 DUP2 SWAP1 POP SWAP2 SWAP1 POP JUMP JUMPDEST PUSH0 PUSH2 0x1161 PUSH2 0x115C PUSH2 0x1157 DUP5 PUSH2 0x91B JUMP JUMPDEST PUSH2 0x113E JUMP JUMPDEST PUSH2 0x91B JUMP JUMPDEST SWAP1 POP SWAP2 SWAP1 POP JUMP JUMPDEST PUSH0 DUP2 SWAP1 POP SWAP2 SWAP1 POP JUMP JUMPDEST PUSH2 0x117A DUP4 PUSH2 0x1147 JUMP JUMPDEST PUSH2 0x118E PUSH2 0x1186 DUP3 PUSH2 0x1168 JUMP JUMPDEST DUP5 DUP5 SLOAD PUSH2 0x10ED JUMP JUMPDEST DUP3 SSTORE POP POP POP POP JUMP JUMPDEST PUSH0 SWAP1 JUMP JUMPDEST PUSH2 0x11A2 PUSH2 0x1196 JUMP JUMPDEST PUSH2 0x11AD DUP2 DUP5 DUP5 PUSH2 0x1171 JUMP JUMPDEST POP POP POP JUMP JUMPDEST JUMPDEST DUP2 DUP2 LT ISZERO PUSH2 0x11D0 JUMPI PUSH2 0x11C5 PUSH0 DUP3 PUSH2 0x119A JUMP JUMPDEST PUSH1 0x1 DUP2 ADD SWAP1 POP PUSH2 0x11B3 JUMP JUMPDEST POP POP JUMP JUMPDEST PUSH1 0x1F DUP3 GT ISZERO PUSH2 0x1215 JUMPI PUSH2 0x11E6 DUP2 PUSH2 0xFB5 JUMP JUMPDEST PUSH2 0x11EF DUP5 PUSH2 0x10D2 JUMP JUMPDEST DUP2 ADD PUSH1 0x20 DUP6 LT ISZERO PUSH2 0x11FE JUMPI DUP2 SWAP1 POP JUMPDEST PUSH2 0x1212 PUSH2 0x120A DUP6 PUSH2 0x10D2 JUMP JUMPDEST DUP4 ADD DUP3 PUSH2 0x11B2 JUMP JUMPDEST POP POP JUMPDEST POP POP POP JUMP JUMPDEST PUSH0 DUP3 DUP3 SHR SWAP1 POP SWAP3 SWAP2 POP POP JUMP JUMPDEST PUSH0 PUSH2 0x1235 PUSH0 NOT DUP5 PUSH1 0x8 MUL PUSH2 0x121A JUMP JUMPDEST NOT DUP1 DUP4 AND SWAP2 POP POP SWAP3 SWAP2 POP POP JUMP JUMPDEST PUSH0 PUSH2 0x124D DUP4 DUP4 PUSH2 0x1226 JUMP JUMPDEST SWAP2 POP DUP3 PUSH1 0x2 MUL DUP3 OR SWAP1 POP SWAP3 SWAP2 POP POP JUMP JUMPDEST DUP2 DUP2 SUB PUSH2 0x126B JUMPI POP POP PUSH2 0x1340 JUMP JUMPDEST PUSH2 0x1274 DUP3 PUSH2 0x10BD JUMP JUMPDEST PUSH8 0xFFFFFFFFFFFFFFFF DUP2 GT ISZERO PUSH2 0x128D JUMPI PUSH2 0x128C PUSH2 0xA84 JUMP JUMPDEST JUMPDEST PUSH2 0x1297 DUP3 SLOAD PUSH2 0xEA0 JUMP JUMPDEST PUSH2 0x12A2 DUP3 DUP3 DUP6 PUSH2 0x11D4 JUMP JUMPDEST PUSH0 PUSH1 0x1F DUP4 GT PUSH1 0x1 DUP2 EQ PUSH2 0x12CF JUMPI PUSH0 DUP5 ISZERO PUSH2 0x12BD JUMPI DUP3 DUP8 ADD SLOAD SWAP1 POP JUMPDEST PUSH2 0x12C7 DUP6 DUP3 PUSH2 0x1242 JUMP JUMPDEST DUP7 SSTORE POP PUSH2 0x1339 JUMP JUMPDEST PUSH1 0x1F NOT DUP5 AND PUSH2 0x12DD DUP8 PUSH2 0xFB5 JUMP JUMPDEST SWAP7 POP PUSH2 0x12E8 DUP7 PUSH2 0xFB5 JUMP JUMPDEST PUSH0 JUMPDEST DUP3 DUP2 LT ISZERO PUSH2 0x130F JUMPI DUP5 DUP10 ADD SLOAD DUP3 SSTORE PUSH1 0x1 DUP3 ADD SWAP2 POP PUSH1 0x1 DUP6 ADD SWAP5 POP PUSH1 0x20 DUP2 ADD SWAP1 POP PUSH2 0x12EA JUMP JUMPDEST DUP7 DUP4 LT ISZERO PUSH2 0x132C JUMPI DUP5 DUP10 ADD SLOAD PUSH2 0x1328 PUSH1 0x1F DUP10 AND DUP3 PUSH2 0x1226 JUMP JUMPDEST DUP4 SSTORE POP JUMPDEST PUSH1 0x1 PUSH1 0x2 DUP9 MUL ADD DUP9 SSTORE POP POP POP JUMPDEST POP POP POP POP POP POP JUMPDEST JUMP JUMPDEST PUSH32 0x4E487B7100000000000000000000000000000000000000000000000000000000 PUSH0 MSTORE PUSH1 0x31 PUSH1 0x4 MSTORE PUSH1 0x24 PUSH0 REVERT JUMPDEST PUSH0 PUSH1 0x20 DUP3 ADD SWAP1 POP DUP2 DUP2 SUB PUSH0 DUP4 ADD MSTORE PUSH2 0x1387 DUP2 DUP5 PUSH2 0x9C4 JUMP JUMPDEST SWAP1 POP SWAP3 SWAP2 POP POP JUMP JUMPDEST PUSH32 0x434944206E6F7420666F756E6420666F72207468652073656E64657200000000 PUSH0 DUP3 ADD MSTORE POP JUMP JUMPDEST PUSH0 PUSH2 0x13C3 PUSH1 0x1C DUP4 PUSH2 0x996 JUMP JUMPDEST SWAP2 POP PUSH2 0x13CE DUP3 PUSH2 0x138F JUMP JUMPDEST PUSH1 0x20 DUP3 ADD SWAP1 POP SWAP2 SWAP1 POP JUMP JUMPDEST PUSH0 PUSH1 0x20 DUP3 ADD SWAP1 POP DUP2 DUP2 SUB PUSH0 DUP4 ADD MSTORE PUSH2 0x13F0 DUP2 PUSH2 0x13B7 JUMP JUMPDEST SWAP1 POP SWAP2 SWAP1 POP JUMP JUMPDEST PUSH32 0x596F7520617265206E6F7420746865206F776E65722100000000000000000000 PUSH0 DUP3 ADD MSTORE POP JUMP JUMPDEST PUSH0 PUSH2 0x142B PUSH1 0x16 DUP4 PUSH2 0x996 JUMP JUMPDEST SWAP2 POP PUSH2 0x1436 DUP3 PUSH2 0x13F7 JUMP JUMPDEST PUSH1 0x20 DUP3 ADD SWAP1 POP SWAP2 SWAP1 POP JUMP JUMPDEST PUSH0 PUSH1 0x20 DUP3 ADD SWAP1 POP DUP2 DUP2 SUB PUSH0 DUP4 ADD MSTORE PUSH2 0x1458 DUP2 PUSH2 0x141F JUMP JUMPDEST SWAP1 POP SWAP2 SWAP1 POP JUMP JUMPDEST PUSH2 0x1468 DUP3 PUSH2 0x98C JUMP JUMPDEST PUSH8 0xFFFFFFFFFFFFFFFF DUP2 GT ISZERO PUSH2 0x1481 JUMPI PUSH2 0x1480 PUSH2 0xA84 JUMP JUMPDEST JUMPDEST PUSH2 0x148B DUP3 SLOAD PUSH2 0xEA0 JUMP JUMPDEST PUSH2 0x1496 DUP3 DUP3 DUP6 PUSH2 0x11D4 JUMP JUMPDEST PUSH0 PUSH1 0x20 SWAP1 POP PUSH1 0x1F DUP4 GT PUSH1 0x1 DUP2 EQ PUSH2 0x14C7 JUMPI PUSH0 DUP5 ISZERO PUSH2 0x14B5 JUMPI DUP3 DUP8 ADD MLOAD SWAP1 POP JUMPDEST PUSH2 0x14BF DUP6 DUP3 PUSH2 0x1242 JUMP JUMPDEST DUP7 SSTORE POP PUSH2 0x1526 JUMP JUMPDEST PUSH1 0x1F NOT DUP5 AND PUSH2 0x14D5 DUP7 PUSH2 0xFB5 JUMP JUMPDEST PUSH0 JUMPDEST DUP3 DUP2 LT ISZERO PUSH2 0x14FC JUMPI DUP5 DUP10 ADD MLOAD DUP3 SSTORE PUSH1 0x1 DUP3 ADD SWAP2 POP PUSH1 0x20 DUP6 ADD SWAP5 POP PUSH1 0x20 DUP2 ADD SWAP1 POP PUSH2 0x14D7 JUMP JUMPDEST DUP7 DUP4 LT ISZERO PUSH2 0x1519 JUMPI DUP5 DUP10 ADD MLOAD PUSH2 0x1515 PUSH1 0x1F DUP10 AND DUP3 PUSH2 0x1226 JUMP JUMPDEST DUP4 SSTORE POP JUMPDEST PUSH1 0x1 PUSH1 0x2 DUP9 MUL ADD DUP9 SSTORE POP POP POP JUMPDEST POP POP POP POP POP POP JUMP JUMPDEST PUSH0 PUSH1 0x80 DUP3 ADD SWAP1 POP DUP2 DUP2 SUB PUSH0 DUP4 ADD MSTORE PUSH2 0x1546 DUP2 DUP8 PUSH2 0x9C4 JUMP JUMPDEST SWAP1 POP PUSH2 0x1555 PUSH1 0x20 DUP4 ADD DUP7 PUSH2 0x9FC JUMP JUMPDEST PUSH2 0x1562 PUSH1 0x40 DUP4 ADD DUP6 PUSH2 0xA23 JUMP JUMPDEST PUSH2 0x156F PUSH1 0x60 DUP4 ADD DUP5 PUSH2 0xA0B JUMP JUMPDEST SWAP6 SWAP5 POP POP POP POP POP JUMP INVALID LOG2 PUSH5 0x6970667358 0x22 SLT KECCAK256 0xD8 0xD7 0xBE 0xB6 PUSH10 0xB9BCDC1790ABC251F029 SWAP2 CREATE 0xBE 0xD2 0xE4 NOT RETURNDATASIZE CREATE 0x28 BYTE PUSH6 0x10D59EF10FEE PUSH5 0x736F6C6343 STOP ADDMOD BYTE STOP CALLER "
				},
				"gasEstimates": {
					"creation": {
						"codeDepositCost": "1110000",
						"executionCost": "1152",
						"totalCost": "1111152"
					},
					"external": {
						"cids(address,uint256)": "infinite",
						"deleteCid(address,string)": "infinite",
						"getFiles(address)": "infinite",
						"storeFile(string,bytes32,address)": "infinite"
					}
				},
				"methodIdentifiers": {
					"cids(address,uint256)": "002e28a5",
					"deleteCid(address,string)": "379639ed",
					"getFiles(address)": "433bf37b",
					"storeFile(string,bytes32,address)": "bf6be7af"
				}
			},
			"storageLayout": {
				"storage": [
					{
						"astId": 34,
						"contract": "contracts/store_cids.sol:StoreCIDs",
						"label": "cids",
						"offset": 0,
						"slot": "0",
						"type": "t_mapping(t_address,t_array(t_struct(CID)10_storage)dyn_storage)"
					}
				],
				"types": {
					"t_address": {
						"encoding": "inplace",
						"label": "address",
						"numberOfBytes": "20"
					},
					"t_array(t_struct(CID)10_storage)dyn_storage": {
						"base": "t_struct(CID)10_storage",
						"encoding": "dynamic_array",
						"label": "struct StoreCIDs.CID[]",
						"numberOfBytes": "32"
					},
					"t_bytes32": {
						"encoding": "inplace",
						"label": "bytes32",
						"numberOfBytes": "32"
					},
					"t_mapping(t_address,t_array(t_struct(CID)10_storage)dyn_storage)": {
						"encoding": "mapping",
						"key": "t_address",
						"label": "mapping(address => struct StoreCIDs.CID[])",
						"numberOfBytes": "32",
						"value": "t_array(t_struct(CID)10_storage)dyn_storage"
					},
					"t_string_storage": {
						"encoding": "bytes",
						"label": "string",
						"numberOfBytes": "32"
					},
					"t_struct(CID)10_storage": {
						"encoding": "inplace",
						"label": "struct StoreCIDs.CID",
						"members": [
							{
								"astId": 3,
								"contract": "contracts/store_cids.sol:StoreCIDs",
								"label": "cid",
								"offset": 0,
								"slot": "0",
								"type": "t_string_storage"
							},
							{
								"astId": 5,
								"contract": "contracts/store_cids.sol:StoreCIDs",
								"label": "sender",
								"offset": 0,
								"slot": "1",
								"type": "t_address"
							},
							{
								"astId": 7,
								"contract": "contracts/store_cids.sol:StoreCIDs",
								"label": "timestamp",
								"offset": 0,
								"slot": "2",
								"type": "t_uint256"
							},
							{
								"astId": 9,
								"contract": "contracts/store_cids.sol:StoreCIDs",
								"label": "digest",
								"offset": 0,
								"slot": "3",
								"type": "t_bytes32"
							}
						],
						"numberOfBytes": "128"
					},
					"t_uint256": {
						"encoding": "inplace",
						"label": "uint256",
						"numberOfBytes": "32"
					}
				}
			},
			"userdoc": {
				"kind": "user",
				"methods": {},
				"version": 1
			}
		}
	}
}